:020000040800F2
:100000000000082055150008B9140008BF140008A6
:10001000C5140008CB140008D1140008000000002B
:10002000000000000000000000000000C1B6000851
:10003000D714000800000000F1B8000859B9000802
:10004000A5150008A5150008A5150008A5150008A8
:10005000A5150008A5150008A5150008A515000898
:10006000A5150008A5150008A5150008A515000888
:10007000A5150008A5150008A5150008A515000878
:10008000A5150008A5150008A5150008A515000868
:10009000A5150008A5150008A5150008A515000858
:1000A000A5150008E5140008A5150008A515000809
:1000B000A5150008A5150008A5150008A515000838
:1000C000A5150008A5150008A5150008A515000828
:1000D000A5150008A5150008A5150008A515000818
:1000E00005150008A5150008A5150008A5150008A8
:1000F00015150008A5150008A5150008A515000888
:10010000A5150008A5150008A5150008A5150008E7
:10011000A5150008A5150008A5150008A5150008D7
:10012000A5150008A5150008A5150008A5150008C7
:10013000A5150008A5150008A5150008A5150008B7
:10014000A5150008A5150008A5150008A5150008A7
:10015000A5150008A5150008A5150008A515000897
:10016000A5150008A5150008A5150008A515000887
:10017000A5150008A5150008A51500080000000039
:10018000A5150008A5150008A5150008A515000867
:10019000A5150008A5150008A5150008A515000857
:1001A000A5150008A5150008A5150008A515000847
:1001B000A5150008A5150008A5150008A515000837
:1001C000A5150008A515000800000000A5150008E9
:1001D000A5150008A5150008A5150008A515000817
:1001E000A5150008A5150008A5150008A515000807
:0801F000A5150008A515000883
:1002000010B5054C237833B9044B13B10448AFF350
:1002100000800123237010BD80000020000000003A
:1002200068C1000808B5034B1BB103490348AFF38D
:10023000008008BD000000008400002068C10008A4
:10024000034613F8012B002AFBD1181A0138704716
:1002500053B94AB9002908BF00281CBF4FF0FF312D
:100260004FF0FF3000F074B9ADF1080C6DE904CE29
:1002700000F006F8DDF804E0DDE9022304B0704781
:100280002DE9F047089D04468E46002B4DD18A4249
:10029000944669D9B2FA82F252B101FA02F3C2F17C
:1002A000200120FA01F10CFA02FC41EA030E94400D
:1002B0004FEA1C48210CBEFBF8F61FFA8CF708FB2E
:1002C00016E341EA034306FB07F199420AD91CEB06
:1002D000030306F1FF3080F01F81994240F21C8138
:1002E000023E63445B1AA4B2B3FBF8F008FB103380
:1002F00044EA034400FB07F7A7420AD91CEB0404B5
:1003000000F1FF3380F00A81A74240F20781644484
:10031000023840EA0640E41B00261DB1D440002309
:10032000C5E900433146BDE8F0878B4209D9002D6D
:1003300000F0EF800026C5E9000130463146BDE8F7
:10034000F087B3FA83F6002E4AD18B4202D3824261
:1003500000F2F980841A61EB030301209E46002D10
:10036000E0D0C5E9004EDDE702B9FFDEB2FA82F265
:10037000002A40F09280A1EB0C014FEA1C471FFAC3
:100380008CFE0126200CB1FBF7F307FB131140EAAA
:1003900001410EFB03F0884208D91CEB010103F177
:1003A000FF3802D2884200F2CB804346091AA4B239
:1003B000B1FBF7F007FB101144EA01440EFB00FE0D
:1003C000A64508D91CEB040400F1FF3102D2A64572
:1003D00000F2BB800846A4EB0E0440EA03409CE711
:1003E000C6F12007B34022FA07FC4CEA030C20FABE
:1003F00007F401FA06F31C43F9404FEA1C4900FADE
:1004000006F3B1FBF9F8200C1FFA8CFE09FB18115A
:1004100040EA014108FB0EF0884202FA06F20BD9CD
:100420001CEB010108F1FF3A80F08880884240F21D
:100430008580A8F102086144091AA4B2B1FBF9F061
:1004400009FB101144EA014100FB0EFE8E4508D95C
:100450001CEB010100F1FF346CD28E456AD90238E1
:10046000614440EA0840A0FB0294A1EB0E01A142C6
:10047000C846A64656D353D05DB1B3EB080261EB34
:100480000E0101FA07F722FA06F3F1401F43C5E90E
:10049000007100263146BDE8F087C2F12003D84044
:1004A0000CFA02FC21FA03F3914001434FEA1C4786
:1004B0001FFA8CFEB3FBF7F007FB10360B0C43EA78
:1004C000064300FB0EF69E4204FA02F408D91CEB28
:1004D000030300F1FF382FD29E422DD90238634426
:1004E0009B1B89B2B3FBF7F607FB163341EA0341C6
:1004F00006FB0EF38B4208D91CEB010106F1FF3815
:1005000016D28B4214D9023E6144C91A46EA00460B
:1005100038E72E46284605E70646E3E61846F8E69D
:100520004B45A9D2B9EB020864EB0C0E0138A3E7E6
:100530004646EAE7204694E74046D1E7D0467BE7C7
:10054000023B614432E7304609E76444023842E73F
:10055000704700BF80B483B000AF78604FF0604355
:10056000D3F8803E03F00103002B13D04FF060431B
:10057000D3F8003E03F00103002B0BD000E000BFD6
:100580004FF060431B68002BF9D04FF060437A684E
:10059000D2B21A707B6818460C37BD465DF8047BF2
:1005A0007047000080B582B002AF02F0EFFE00F0AD
:1005B000C3F800F0A7FA00F02FF900F0F7F900F007
:1005C0007FF900F0CFF900F03FFA00F06DFA3A48F9
:1005D00002F072FF394802F06FFF0021384805F041
:1005E00001F90020FFF7B6FF0F20FFF7B3FFF0205F
:1005F000FFF7B0FFFF20FFF7ADFF06F071FF01200E
:1006000001F066FA2F4ACA21102007F0C7F9034605
:100610002D4A13602D4A00212D4806F0CBFF0346DA
:100620002C4A13602C4A00212C4806F0C3FF0346D5
:100630002B4A13602B4A00212B4806F0BBFF0346D0
:100640002A4A13602A4A00212A4806F0B3FF0346CB
:10065000294A1360294A0021294806F0ABFF0346C6
:10066000284A1360284A0021284806F0A3FF0346C1
:10067000274A1360274A0021274806F09BFF0346BC
:10068000264A1360002007F069F80346244A1360E5
:10069000244B0193082300930023802222492348FE
:1006A00009F09DF9224807F059F80346214A1360E2
:1006B00006F04AFFFEE700BF9C000020E400002097
:1006C00078010020A4D7000830170020A8D6000821
:1006D000150D000854070020CCD60008410D000875
:1006E00058070020F0D60008610D00085C070020C4
:1006F00014D70008A10D0008200A002038D70008F0
:10070000490E0008E40C00205CD70008D50E000854
:10071000A80F002080D70008050F00086C120020E9
:10072000502400204C240020FCC10008250D0008A6
:10073000BCD700082424002080B594B000AF07F196
:100740001C033422002118460BF0E6FB07F10803D6
:1007500000221A605A609A60DA601A6103F012FE91
:100760002B4B1B6C2A4A43F080531364284B1B6CA1
:1007700003F080537B607B68264B1B6823F4404367
:10078000244A43F480431360224B1B6803F4404324
:100790003B603B680323FB614FF480333B620123E2
:1007A000BB621023FB6202237B634FF48003BB63B5
:1007B0000F23FB6390233B6402237B640523BB640C
:1007C0000223FB6407F11C03184603F0EBFD03460C
:1007D000002B01D000F00EFC0F23BB600223FB6056
:1007E00000233B614FF4A0537B614FF48053BB6106
:1007F00007F108030321184604F082F80346002B92
:1008000001D000F0F7FB00BF5037BD4680BD00BFF0
:10081000003802400070004080B584B000AF3B4615
:1008200000221A605A609A60DA60224B224A1A60EB
:10083000204B4FF480325A601E4B4FF080729A600A
:100840001C4B00221A611B4B01229A61194B00229A
:1008500083F82020174B0022DA62164B174A9A625F
:10086000144B0022DA60134B0122DA61114B002293
:1008700083F830200F4B00225A610E4802F0D8FD59
:100880000346002B01D000F0B5FB03233B6001239E
:100890007B600023BB603B461946064802F0E8FE39
:1008A0000346002B01D000F0A5FB00BF1037BD466A
:1008B00080BD00BF9C000020002001400100000F0F
:1008C00080B584B000AF3B4600221A605A609A603F
:1008D000DA60214B214A1A601F4B4FF480325A6074
:1008E0001D4B00229A601C4B00221A611A4B0122F8
:1008F0009A61194B002283F82020174B0022DA62FC
:10090000154B174A9A62144B0022DA60124B0122EF
:10091000DA61114B002283F830200F4B00225A611C
:100920000D4802F085FD0346002B01D000F062FB6C
:100930000A233B6001237B600023BB603B461946D2
:10094000054802F095FE0346002B01D000F052FB53
:1009500000BF1037BD4680BDE400002000210140EB
:100960000100000F80B500AF0E4B0F4A1A600D4B0F
:1009700000225A600B4B00229A600A4B40F2572229
:10098000DA60084B00221A61064B00229A61054882
:1009900004F0F6FD0346002B01D000F02BFB00BF56
:1009A00080BD00BF2C0100200044014080B588B00C
:1009B00000AF3B1D00221A605A609A60DA601A612B
:1009C0005A619A611E4B1F4A1A601D4B00225A60E1
:1009D0001B4B00229A601A4B40F2FF32DA60184B30
:1009E00000221A61164B00229A61154804F0C8FDD6
:1009F0000346002B01D000F0FDFA114804F090FEF0
:100A00000346002B01D000F0F5FA60237B60002341
:100A1000BB600023FB6000237B613B1D0022194665
:100A2000074805F0F9F80346002B01D000F0E2FA80
:100A3000034800F0BDFB00BF2037BD4680BD00BFAE
:100A400078010020001C004080B500AF144B154A0F
:100A50001A60134B4FF4E1325A60114B00229A6036
:100A60000F4B0022DA600E4B00221A610C4B0C2255
:100A70005A610B4B00229A61094B0022DA61084B44
:100A800000221A62064B00225A62054805F041FD19
:100A90000346002B01D000F0ADFA00BF80BD00BFBF
:100AA000C40100200048004080B500AF144B4FF057
:100AB000A0421A60124B06225A60114B0222DA60E1
:100AC0000F4B00221A610E4B02229A610C4B01223D
:100AD000DA610B4B00221A62094B00225A62084B62
:100AE0000122DA62064B00221A63054803F002FB7A
:100AF0000346002B01D000F07DFA00BF80BD00BF8F
:100B00004C02002080B58CB000AF07F11C0300221E
:100B10001A605A609A60DA601A614B4B1B6B4A4A42
:100B200043F004031363484B1B6B03F00403BB61E6
:100B3000BB69454B1B6B444A43F080031363424B34
:100B40001B6B03F080037B617B693F4B1B6B3E4A51
:100B500043F0010313633C4B1B6B03F001033B6148
:100B60003B69394B1B6B384A43F002031363364B26
:100B70001B6B03F00203FB60FB68334B1B6B324AB9
:100B800043F008031363304B1B6B03F00803BB6097
:100B9000BB682D4B1B6B2C4A43F0400313632A4B5D
:100BA0001B6B03F040037B607B68002244F28101F1
:100BB000264803F053FA00224021254803F04EFA5C
:100BC0004FF40053FB614FF404133B6200237B623C
:100BD00007F11C0319461F4803F07CF844F2810317
:100BE000FB6101233B6200237B620023BB6207F1B0
:100BF0001C031946154803F06DF84023FB610123DF
:100C00003B6200237B620023BB6207F11C03194691
:100C10000F4803F05FF88023FB6100233B62002351
:100C20007B6207F11C031946094803F053F80022C0
:100C30000521282003F024F8282003F03DF800BF08
:100C40003037BD4680BD00BF00380240000402407E
:100C5000001802400008024080B500AF034B00229C
:100C60001A60034804F0E4FC00BF80BD4824002063
:100C70002C01002080B400AF034B1B681846BD4612
:100C80005DF8047B704700BF4824002080B582B027
:100C900000AF0346FB80FB88B3F5005F0AD14FF439
:100CA0008041064803F0F3F9054B1B6851211846B3
:100CB00006F0A6FD00BF0837BD4680BD0004024017
:100CC0005024002080B483B000AF0346FB80FB8833
:100CD000054AA2FB0323DB089BB218460C37BD462E
:100CE0005DF8047B704700BFCDCCCCCC80B582B022
:100CF00000AF78607868FFF7A3FA03469AB2012341
:100D00007968034805F053FC00BF0837BD4680BD35
:100D1000C401002080B582B000AF7860012006F0E9
:100D2000EFFCFBE780B582B000AF7860802103481C
:100D300003F0ADF9642009F003F8F7E7000402407E
:100D400080B582B000AF78600121044803F09FF9BC
:100D50004FF4FA7006F0D4FCF6E700BF000402403E
:100D600080B5B6B000AF78600B4802F073FC034664
:100D7000A7F8D630B7F8D630A7F8D430074B1868A4
:100D800007F10C014FF0FF33002206F08DFE0A2020
:100D900006F0B6FCE8E700BF9C00002030170020FA
:100DA000B0B5B6B000AF7860234802F053FC0346FC
:100DB0009BB21A4640F6E44302FB03F31F4A82FB50
:100DC00003121A44D212DB17D31AA7F8D630B7F899
:100DD000D6301846FFF776FF0346A7F8D430B7F8A9
:100DE000D43007F108010A2218460BF083F807F106
:100DF00008031846FFF724FA03461A4607F10803CA
:100E000013440F4A1D4614460FCC28606960AA603F
:100E1000EB6003CC2861696123882B83094B186838
:100E200007F108014FF0FF33002206F03DFE0A20D3
:100E300006F066FCB8E700BFE400002081000880EF
:100E400008C2000830170020B0B5B6B000AF786017
:100E50001D4B186807F10C014FF0FF33002206F01C
:100E600097FEB7F8D420194B1B685A63B7F8D430F3
:100E7000184607F10C030A2219460BF03BF807F15C
:100E80000C031846FFF7DCF903461A4607F10C037A
:100E900013440F4A1D4614460FCC28606960AA60AF
:100EA000EB6003CC2861696123882B83064B1868AB
:100EB00007F10C014FF0FF33002206F0F5FD0A2088
:100EC00006F01EFCC4E700BF3017002078010020A8
:100ED00024C2000880B5B6B000AF7860084B18682F
:100EE00007F10C014FF0FF33002206F051FE07F12D
:100EF0000C031846FFF7FAFE012006F001FCEDE7AF
:100F00003017002080B5B8B000AF78602A4BC7F822
:100F1000DC302A4BC7F8D830294BC7F8D430294BDE
:100F200018684FF0FF330122512106F0C1FC4FF445
:100F30008041254803F07AF8034687F8D33097F8C4
:100F4000D330002B12D0012B21D107F10803D7F8A1
:100F5000DC1018460BF052F81C4B186807F108011A
:100F60004FF0FF33002206F09FFD21E007F1080358
:100F7000D7F8D81018460BF041F8144B186807F151
:100F800008014FF0FF33002206F08EFD10E007F15C
:100F90000803D7F8D41018460BF030F80B4B18683C
:100FA00007F108014FF0FF33002206F07DFD00BF7E
:100FB0000A2006F0A5FBB2E740C2000864C20008A0
:100FC00088C200085024002000040240301700208E
:100FD00080B582B000AF78607B681B68044A93429A
:100FE00001D102F0E1F900BF0837BD4680BD00BF66
:100FF0000004014080B400AF72B600BFFEE70000FD
:1010000080B582B000AF114B1B6C104A43F0805387
:1010100013640E4B1B6C03F080537B607B680B4B9F
:101020005B6C0A4A43F480435364084B5B6C03F4E3
:1010300080433B603B6800220F216FF0010002F00B
:101040001FFE00BF0837BD4680BD00BF003802400C
:1010500080B58CB000AF786007F11C0300221A60E5
:101060005A609A60DA601A617B681B682A4A934268
:1010700024D12A4B5B6C294A43F480735364274B79
:101080005B6C03F48073BB61BB69244B1B6B234A0D
:1010900043F001031363214B1B6B03F001037B61DE
:1010A0007B690823FB6103233B6200237B6207F11A
:1010B0001C0319461A4802F00DFE28E07B681B68E5
:1010C000184A934223D1154B5B6C144A43F40073C6
:1010D0005364124B5B6C03F400733B613B690F4B31
:1010E0001B6B0E4A43F0040313630C4B1B6B03F0A2
:1010F0000403FB60FB680123FB6103233B620023C5
:101100007B6207F11C031946074802F0E3FD00BFAC
:101110003037BD4680BD00BF00200140003802408E
:1011200000000240002101400008024080B584B068
:1011300000AF78607B681B681A4A934214D11A4B3F
:101140005B6C194A43F400335364174B5B6C03F434
:101150000033FB60FB6800220521192002F090FD9E
:10116000192002F0A9FD18E07B681B680F4A934222
:1011700013D10D4B1B6C0C4A43F0800313640A4BD4
:101180001B6C03F08003BB60BB6800220F212C2086
:1011900002F076FD2C2002F08FFD00BF1037BD4617
:1011A00080BD00BF0044014000380240001C0040E8
:1011B00080B588B000AF786007F10C0300221A6098
:1011C0005A609A60DA601A617B681B68114A934220
:1011D0001BD1114B1B6B104A43F0010313630E4BE1
:1011E0001B6B03F00103BB60BB684023FB60022361
:1011F0003B6100237B610023BB610923FB6107F195
:101200000C031946054802F065FD00BF2037BD46B6
:1012100080BD00BF001C00400038024000000240BA
:1012200080B5AEB000AF786007F1A40300221A6069
:101230005A609A60DA601A6107F114039022002163
:1012400018460AF069FE7B681B68224A93423CD12B
:101250004FF480737B6120233B6607F1140318462B
:1012600003F066FD0346002B01D0FFF7C3FE1A4BC7
:101270001B6C194A43F480231364174B1B6C03F453
:1012800080233B613B69144B1B6B134A43F00803FB
:101290001363114B1B6B03F00803FB60FB684FF4F7
:1012A0004073C7F8A4300223C7F8A8300023C7F85A
:1012B000AC300323C7F8B0300723C7F8B43007F1C8
:1012C000A4031946054802F005FD00BFB837BD4626
:1012D00080BD00BF0048004000380240000C0240C2
:1012E00080B5AEB000AF786007F1A40300221A60A9
:1012F0005A609A60DA601A6107F1140390220021A3
:1013000018460AF009FE7B681B68B3F1A04F59D15B
:101310004FF400137B610023C7F8903007F11403EA
:10132000184603F005FD0346002B01D0FFF762FECF
:10133000264B1B6B254A43F001031363234B1B6BA6
:1013400003F001033B613B694FF4C853C7F8A43075
:101350000223C7F8A8300023C7F8AC300323C7F82E
:10136000B0300A23C7F8B43007F1A403194618486F
:1013700002F0B0FC4FF40073C7F8A4300023C7F8A4
:10138000A8300023C7F8AC3007F1A4031946104871
:1013900002F0A0FC0D4B5B6B0C4A43F080035363DF
:1013A0000A4B5B6B03F08003FB60FB68074B5B6CD5
:1013B000064A43F480435364044B5B6C03F480435C
:1013C000BB60BB6800BFB837BD4680BD0038024077
:1013D0000000024080B58CB000AF78600023BB6293
:1013E00000237B622F4B5B6C2E4A43F00203536455
:1013F0002C4B5B6C03F00203BB60BB6807F10C0273
:1014000007F110031146184603F060FC03F04AFC94
:1014100003465B00BB62BB6A234AA2FB03239B0C0F
:10142000013B7B62214B224A1A60204B40F2E7329B
:10143000DA601E4A7B6A53601C4B00221A611B4B08
:1014400000229A60194B00229A61184804F098F81B
:10145000034687F82F3097F82F30002B1BD1134805
:1014600004F0E6F8034687F82F3097F82F30002B6A
:1014700011D12C2002F020FC7B680F2B08D8002211
:1014800079682C2002F0FCFB0A4A7B68136002E0BA
:10149000012387F82F3097F82F3018463037BD4694
:1014A00080BD00BF0038024083DE1B43542400206F
:1014B000000401401000002080B400AFFEE780B4BB
:1014C00000AFFEE780B400AFFEE780B400AFFEE7F8
:1014D00080B400AFFEE780B400AF00BFBD465DF84A
:1014E000047B704780B500AF044B1B680133034A8F
:1014F0001360034804F070FA00BF80BD4824002048
:101500002C01002080B500AF4FF4005002F0DAFD4E
:1015100000BF80BD80B500AF034804F05DFA03480A
:1015200004F05AFA00BF80BD542400207801002046
:1015300080B400AF064BD3F88830054A43F47003FB
:10154000C2F8883000BFBD465DF8047B704700BF1D
:1015500000ED00E0DFF834D00D480E490E4A0023BC
:1015600002E0D458C4500433C4188C42F9D30B4A57
:101570000B4C002301E013600432A242FBD3FFF7BF
:10158000D7FF0AF07BFCFFF70DF87047000008203A
:1015900000000020800000207CD80008800000208F
:1015A00014F60020FEE780B582B000AF786078685E
:1015B00008F00CF8034618460837BD4680BD80B5D4
:1015C00082B000AF7860786808F01AF803461846D1
:1015D0000837BD4680BD80B582B000AF78607868BE
:1015E00009F0FAF803469BB218460837BD4680BD9D
:1015F00080B582B000AF7860786809F0EDF80346F6
:101600001B0C9BB218460837BD4680BD80B582B022
:1016100000AF78600B467B80786809F0DDF8024601
:10162000054B13407A8813431946786809F0EAF8A5
:1016300000BF0837BD4680BD0000FFFF80B582B007
:1016400000AF78600B467B80786809F0C5F80346E8
:101650009AB27B881B0413431946786809F0D2F8C4
:1016600000BF0837BD4680BD80B582B000AF78604E
:101670007868FFF798FF03469BB218460837BD46C7
:1016800080BD80B582B000AF78607868FFF78BFFCF
:1016900003461B0C9BB218460837BD4680BD0000B0
:1016A00080B582B000AF78600B467B807868FFF72A
:1016B0007AFF0246054B13407A881343194678682F
:1016C00007F090FF00BF0837BD4680BD0000FFFF58
:1016D00080B582B000AF78600B467B807868FFF7FA
:1016E00062FF03469AB27B881B041343194678684D
:1016F00007F078FF00BF0837BD4680BD80B582B0D7
:1017000000AF7860786809F065FF03469BB2184621
:101710000837BD4680BD80B582B000AF786078687C
:1017200009F058FF03461B0C9BB218460837BD460C
:1017300080BD80B582B000AF7860786806F056FE54
:1017400003469BB218460837BD4680BD80B582B0BF
:1017500000AF7860786806F049FE03461B0C9BB228
:1017600018460837BD4680BD80B582B000AF7860AE
:101770000B467B80786806F039FE0246054B134025
:101780007A8813431946786806F046FE00BF08378A
:10179000BD4680BD0000FFFF80B582B000AF78601D
:1017A0000B467B80786806F021FE03469AB27B8860
:1017B0001B0413431946786806F02EFE00BF083755
:1017C000BD4680BD80B500AF09F00CF90346184650
:1017D00080BD000080B400AF644B1B680922DA654D
:1017E000624B1B680A2283F86420604B1B680A2244
:1017F00083F865205D4B1B680A2283F866205B4BEB
:101800001B680F2283F86720584B1B68052283F85A
:101810006820564B1B68052283F86920534B1B68D0
:10182000052283F86A20514B1B68052283F86B2040
:101830004E4B1B68052283F86C204C4B1B680F2213
:1018400083F87020494B1B680F2283F87120474BA7
:101850001B680F2283F87220444B1B680F2283F809
:101860007320424B1B680F2283F874203F4B1B6888
:101870000F2283F875203D4B1B680F2283F87620DA
:101880003A4B1B680F2283F87720384B1B680F22D6
:1018900083F87820354B1B68102283F87C20334B6B
:1018A0001B68102283F87D20304B1B68102283F8C0
:1018B0007E202E4B1B68132283F87F202B4B1B6846
:1018C000112283F88020294B1B68102283F8812085
:1018D000264B1B68132283F88220244B1B6813229B
:1018E00083F88320214B1B68132283F884201F4B2D
:1018F0001B680022A3F888201C4B1B68A022A3F8B9
:101900008A201A4B1B684FF4A072A3F88C20174B47
:101910001B684FF4F072A3F88E20144B1B6840F242
:10192000FD22A3F89020114B1B6840F25232A3F81D
:1019300092200E4B1B6840F2A232A3F894200B4B6E
:101940001B6840F20142A3F89620084B1B684FF435
:101950008C62A3F89820054B1B6840F2BF421A66C0
:1019600000BFBD465DF8047B704700BFD8AB0020C8
:1019700080B400AF2F4B00225A822E4B5A8A2D4B37
:101980001A802C4B0A229A822A4B9A8A294B5A8017
:10199000284B1422DA82274BDA8A264B9A80254B71
:1019A0001E221A83234B1A8B224BDA80214B2D22C5
:1019B0005A83204B5A8B1F4B1A811E4B32229A831B
:1019C0001C4B9A8B1B4B5A811A4B3722DA83194BCB
:1019D000DA8B184B9A81174B3C221A84154B1A8CC0
:1019E000144BDA81134B41225A84124B5A8C114BFF
:1019F0001A82104B09229A840E4B1322DA840D4B63
:101A00001D221A850B4B2C225A850A4B31229A85AE
:101A1000084B3622DA85074B3B221A86054B4022BB
:101A20005A86044B45229A8600BFBD465DF8047B6A
:101A3000704700BFCC24002080B483B000AF0346C1
:101A4000FB71FB79082B27D801A252F823F000BFC5
:101A5000851A00087D1A0008811A0008751A000806
:101A6000791A0008891A00088D1A0008911A0008CE
:101A7000951A00080C4B10E00C4B0EE00C4B0CE0E0
:101A80000C4B0AE00C4B08E00C4B06E00C4B04E05E
:101A90000C4B02E00C4B00E00C4B18460C37BD46DB
:101AA0005DF8047B704700BFB0C20008F8C20008B0
:101AB00040C3000894C30008E0C300082CC4000819
:101AC00078C40008CCC4000824C5000880C50008FC
:101AD00080B582B000AF786000F02AFD7B68012BF2
:101AE00002D100F087F80CE07B68022B03D1074895
:101AF00001F0A0F805E07B68002B02D0044801F05B
:101B000099F800BF0837BD4680BD00BFB0C50008CA
:101B1000F0C5000880B586B000AF0023FB75304BE0
:101B20001B68002B0AD12E4B1B68002B04D12D48BB
:101B300001F080F800234EE000234CE0284B1B68A6
:101B40001B6B012B01D1012345E0274B1B68002BA8
:101B50003ED1EFF31083BB60BB683B610123FB60A8
:101B6000FB6883F3108800BF204B1B6801331F4ABA
:101B700013601B4B1B6801221A63FFF723FE034609
:101B80001846FFF728FD0346FB75FB7D002B10D19F
:101B9000032000F05DFE0346FB75FB7D144A1946E9
:101BA000032000F097FFFB7D00221946032000F080
:101BB000A3FBFB7D184600F073FA0C4B1B68013B3E
:101BC0000A4A13603B697B607B6883F3108800BF1F
:101BD000034B1B681B6B18461837BD4680BD00BF02
:101BE000D8AB002024C60008BC240020B424002068
:101BF00068C6000880B500AFFFF78CFF00BF80BD4E
:101C000080B500AF084B1B68002B03D0064B1B6848
:101C100000221A63054B1B68002B02D0034B1B6884
:101C2000984700BF80BD00BFD8AB0020C42400206F
:101C300080B58EB000AFF860B9607A60404B1B6829
:101C4000002B78D07B68002B03DA7B685B427B63D8
:101C500001E07B687B63EFF31083BB61BB693B638F
:101C60000123FB61FB6983F3108800BF354B1B68C0
:101C70000133344A1360BB68002B05D0324B1A681D
:101C80007B681344304A13602D4B1B681B6B002B81
:101C900046D0FF2001F0ACF8034687F82F30796B6F
:101CA0004FF6FF7000F05AF90346BB8500F054FD73
:101CB000B862BB6A002B33D0BB6A97F82F205A70EA
:101CC000BB6A00221A70BB6ABA8D5A8001F068F8AC
:101CD000B9684FF6FF7000F041F90346FB8400231A
:101CE00087F8253000F038FD38623B6A002B17D0AA
:101CF0003B6AFA8C5A803B6A97F825205A70FB6839
:101D0000DBB20133DAB23B6A1A70FB68DAB2BB6A43
:101D10001A7001F045F80A4B1B680B4A12681A65E5
:101D2000084B1B68013B074A13603B6B7B617B6977
:101D300083F3108800E000BF3837BD4680BD00BF88
:101D4000D8AB0020B4240020C824002080B58AB07D
:101D500000AFF8600B467A60FB72FB68FE2B03D97C
:101D6000324800F067FF5DE0FB7A082B03D930486A
:101D700000F060FF56E02F4B1A68FB7A134493F88B
:101D800064301A467B68934203D92B4800F052FF17
:101D900048E02A4B1B68002B03D0294800F04AFF7B
:101DA00040E0284B1B78002B3BD0EFF310837B6186
:101DB0007B697B620123BB61BB6983F3108800BF31
:101DC0001E4B1B6801331D4A13601A4B1B681B6BAB
:101DD000002B1BD04FF6FF7001F00AF803467B84FE
:101DE0007B6887F8213000F0B7FCF861FB69002BB5
:101DF0000CD0FB697A8C5A80FB68DAB2FB691A70E6
:101E0000FB6997F821205A7000F0CAFF0B4B1B6842
:101E1000013B0A4A13607B6A3B613B6983F310888C
:101E200000E000BF2837BD4680BD00BF48CA00089B
:101E300080CA0008D8AB0020C8CA0008B42400201B
:101E400010CB0008C024002080B58AB000AFF86035
:101E50007A603B600B46FB72FB68FE2B03D9384867
:101E600000F0E8FE68E0FB7A082B03D9354800F063
:101E7000E1FE61E0344B1A68FB7A134493F8643056
:101E80001A467B68934203D9304800F0D3FE53E0F2
:101E90002F4B1B68002B03D02E4800F0CBFE4BE0ED
:101EA000EFF310837B617B697B620123BB61BB69BC
:101EB00083F3108800BF264B1B680133244A13604C
:101EC000214B1B681B6B002B2BD0234B1B78002B4B
:101ED00027D0FF2000F08CFF034687F823303968B5
:101EE000FF2000F03BF8034687F822307B6887F834
:101EF000213000F031FCF861FB69002B11D0FB6947
:101F000097F82320DA70FB68DAB2FB691A70FB6974
:101F100097F821205A70FB6997F822209A7000F0F8
:101F20003FFF0B4B1B68013B094A13607B6A3B6117
:101F30003B6983F3108800BF2837BD4680BD00BFD2
:101F400048CB000888CB0008D8AB0020D8CB0008CD
:101F5000B424002028CC0008C024002080B584B020
:101F600000AF786039607B68FF2B09D07B684FF643
:101F7000FF72934204D0164800F05CFE3B6823E0F9
:101F80003A687B689A4201D83B681DE000F0E4FBA8
:101F9000F860FB68002B14D0FB6801221A707B6884
:101FA000DA433B6813401B0ADAB2FB685A707B685D
:101FB000DA433B6813401B0C9AB2FB685A8000F06E
:101FC000EFFE3A687B68134018461037BD4680BD67
:101FD00060CC000880B58AB000AF7860396000231B
:101FE000FB847B68FE2B03D9284800F023FE49E0E0
:101FF000274B1B68002B03D0264800F01BFE41E056
:10200000EFF310833B613B693B6201237B617B699A
:1020100083F3108800BF1E4B1B6801331C4A1360FA
:102020001D4B1B681B6B002B21D01C4B1B78002BFE
:102030001DD0FF2000F0DCFE0346FB7739684FF629
:10204000FF70FFF78BFF0346FB8400F085FBB86150
:10205000BB69002B0BD0BB69FA7F5A707B68DAB280
:10206000BB691A70BB69FA8C5A8000F099FE084B64
:102070001B68013B064A13603B6AFB60FB6883F305
:10208000108800BF2837BD4680BD00BF9CCC00082B
:10209000B4240020F4CC0008D8AB0020C0240020D9
:1020A00080B588B000AF0346FB71FB790F2B03D9D5
:1020B0002F4800F0BFFD58E0EFF31083FB60FB6892
:1020C000FB6101233B613B6983F3108800BF294B0F
:1020D0001B680133274A1360274B1B78FA799A4211
:1020E00038D0264B1B681B6B002B33D0244B0022AF
:1020F0001A604FF6FF7000F07BFE03467B831E4A9A
:10210000FB7913701C4B1B787B7600F025FB786104
:102110007B69002B1ED0184B1B781946032000F05A
:10212000A1F90346012B03D17B6907221A7002E053
:102130007B6906221A707B697A8B5A807B697A7E6A
:102140005A700D4B1B7801221946032000F04EF9FE
:1021500000F026FE074B1B68013B064A1360FB6933
:10216000BB60BB6883F3108800BF2037BD4680BDCD
:102170002CCD0008B4240020C0240020D8AB0020BF
:10218000A424002090B587B000AF0346FB710B4636
:10219000BB7113467B717B79082B03D91F4800F074
:1021A00049FD37E01E4B1A687B79134493F864307D
:1021B000BA799A4203D91B4800F03CFD2AE0184B3B
:1021C0001B681B6B002B25D0BB79FB75144B1C685F
:1021D0007A79BB791146184600F0E2FA0346983343
:1021E000234404333B610021386900F0D1FC0346ED
:1021F000FB8100F0B1FAB860BB68002B0AD0BB6865
:10220000FA791A70BB68FA7D5A70BB68FA895A80ED
:1022100000F0C6FD1C37BD4690BD00BF74CD000860
:10222000D8AB0020C8CD000890B585B000AF0346FC
:10223000FB710B46BB7113467B717B79082B03D96D
:102240002A4800F0F7FC4DE0294B1A687B791344CB
:1022500093F86430BA799A4203D9264800F0EAFC30
:1022600040E0234B1B681B6B002B3BD000F074FA43
:10227000F860FB68002B35D07B79032B17D11C4B02
:102280001C687A79BB791146184600F089FA034632
:102290001946174B1A687B79134493F870300B4436
:1022A0000133234493F89C20FB685A7015E0104BCF
:1022B0001C687A79BB791146184600F071FA03461A
:1022C00019460B4B1A687B79134493F870300B4412
:1022D000234493F89C20FB685A70FB68FA791A70C3
:1022E00000F05EFD1437BD4690BD00BF14CE00085F
:1022F000D8AB00206CCE000890B583B000AF034689
:10230000FB710B46BB7113467B71FB79082B03D91C
:10231000144800F08FFC22E0134B1A68FB79134439
:1023200093F86430BA799A4203D9104800F082FCDD
:1023300015E00D4B1C68FA79BB791146184600F080
:102340002FFA03461946084B1A68FB79134493F891
:1023500070300B44013323447A7983F89C200C3786
:10236000BD4690BDC0CE0008D8AB00200CCF000801
:1023700090B583B000AF03460A46FB711346BB71AC
:10238000FB79082B04D9164800F054FC002322E006
:10239000144B1A68FB79134493F86430BA799A4263
:1023A00004D9114800F046FC002314E00D4B1C68D2
:1023B000FA79BB791146184600F0F2F9034619463E
:1023C000084B1A68FB79134493F870300B440133BF
:1023D000234493F89C3018460C37BD4690BD00BF8F
:1023E0004CCF0008D8AB002098CF000890B583B040
:1023F00000AF0346FB710B46BB7113467B71FB7943
:10240000082B03D9144800F015FC21E0134B1A687F
:10241000FB79134493F86430BA799A4203D910488F
:1024200000F008FC14E00D4B1C68FA79BB791146EA
:10243000184600F0B5F903461946084B1A68FB79AF
:10244000134493F870300B4423447A7983F89C202A
:102450000C37BD4690BD00BFD8CF0008D8AB0020D8
:102460001CD0000890B583B000AF03460A46FB714C
:102470001346BB71FB79082B04D9154800F0DAFB31
:10248000002321E0134B1A68FB79134493F864305E
:10249000BA799A4204D9104800F0CCFB002313E02B
:1024A0000C4B1C68FA79BB791146184600F078F994
:1024B00003461946074B1A68FB79134493F87030AA
:1024C0000B44234493F89C3018460C37BD4690BD0E
:1024D00058D00008D8AB00209CD0000890B583B03D
:1024E00000AF0346FB71104B1B6893F86730FA7915
:1024F0009A4203D90D4800F09DFB11E00A4B1C687D
:10250000FB790321184600F04BF903461A46064BA7
:102510001B6893F8733013442344002283F89C20F3
:102520000C37BD4690BD00BFD8AB0020D8D0000806
:1025300080B500AF824B1B68002B03D1804B814AD2
:102540001A6006E07E4B1B681B78DBB2012B00F0A3
:10255000F4807D4B1B687D4A1360794B1B6848F201
:1025600078620021184609F0D7FC754B1B6841F6CC
:10257000A1229A81724B1B6805229A73704B1B68CB
:102580000022DA736E4B1B6848F278621A616C4B5A
:102590001B684FF4FA529A61694B1B684FF0F03296
:1025A0005A65674B1B6800229A65654B1B680022C1
:1025B0005A63FFF70FF9624B1B684FF0F132C3F813
:1025C0005C255F4B1B684FF44872C3F860255C4B79
:1025D0001B680122C3F86425594B1B684FF0F23287
:1025E000C3F81029564B1B6803F6141350225849A0
:1025F000184600F049FA524B1B684FF0F332C3F80B
:1026000064294F4B1B6803F500430A2283F86C26AC
:102610004B4B1B6803F500430B2283F86D26484B98
:102620001B6803F500430C2283F86E26444B1B689D
:1026300003F500430D2283F86F26414B1B6803F519
:102640000043712283F870263D4B1B6803F500435D
:10265000722283F871263A4B1B6803F500437322FC
:1026600083F87226364B1B6803F50043742283F807
:102670007326334B1B6803F50043F12283F874265D
:102680002F4B1B6803F50043F22283F875262C4B71
:102690001B6803F50043F32283F87626284B1B685A
:1026A00003F50043F42283F87726FFF761F9244B02
:1026B0001B68F422DA72224B1B68F3229A72204BB9
:1026C0001B68F2225A721E4B1B68F1221A721C4BB5
:1026D0001B687422DA711A4B1B6873229A71184BAB
:1026E0001B6872225A71164B1B6871221A71144BA7
:1026F0001B680422DA70124B1B6803229A70104B7D
:102700001B6802225A700E4B1B6801221A70114B73
:102710001B68002B12D00A4B1B6803F614130D4ADA
:1027200011685022184600F0AFF9054B1B680122D2
:10273000C3F80C29FFF764FA00E000BF80BD00BFBA
:10274000D8AB00206025002018E000E05C250020C8
:1027500020D10008BC24002080B500AF0E4B1B68C0
:102760001B6B002B01D1002313E00B4B1B68DB69B3
:10277000B3F5FA5F04D3094800F05CFA002308E0DF
:10278000054B1A68044B1B68DB699B0003F6681352
:102790001344184680BD00BFD8AB002034D10008D8
:1027A00080B582B000AF03460A46FB711346BB7189
:1027B000BB79082B04D9224800F03CFA00233AE008
:1027C000FB79002B08D01F4B1A68BB79134493F890
:1027D0006430FA799A4204D91B4800F02BFA00239E
:1027E00029E0BB79082B22D8FB79002B1FD0154B91
:1027F0001A68BB79134493F86430FA799A4216D870
:10280000104B1A68BB7940335B0013441A890D4B97
:102810001968BB790B4493F87C3099B2FB79013B82
:102820009BB211FB03F39BB213449BB203E0074836
:1028300000F000FA002318460837BD4680BD00BFEF
:102840005CD10008D8AB00209CD10008DCD1000886
:1028500080B588B000AF0346FB714E4B1B68002B60
:1028600004D14D4800F0E6F900238FE0FB79082BF6
:1028700004D94A4800F0DEF9002387E0EFF3108323
:10288000FB60FB68BB6101233B613B6983F31088FC
:1028900000BF434B1B680133414A1360FB79414A37
:1028A00032F813301A46404B1A603F4B1B683D4AC2
:1028B000134493F84830002B14D13B4B1B68DAB219
:1028C000FB79384908335B000B445B88DBB2D31AD1
:1028D000DAB2354B1B680132D1B2324A13440A4690
:1028E00083F84820304B1B682E4A134493F8483035
:1028F000FB77FB792B4A32F81320FB7929491033F7
:102900005B000B449B889A420AD9FB791846FFF773
:1029100093F80346184600F08DF90023FB7729E071
:10292000FB79204A32F81320013291B21D4A22F875
:102930001310FB791B4A32F813301946FB79194AF8
:1029400008335B0013445B88CB1A7B61FB79154A23
:1029500018335B001344DB881A467B69934209DD18
:102960007B69DAB2FB7991B20E4A18335B001344EB
:102970000A46DA800A4B1B68013B094A1360BB69AF
:10298000BB60BB6883F3108800BFFB7F184620370D
:10299000BD4680BDD8AB002074C600081CD200081C
:1029A000B4240020CC240020DCAB002080B584B00F
:1029B00000AF03460A46FB711346BB71FB79082B37
:1029C00003D91D4800F036F933E0BB79002B08D05D
:1029D0001A4B1A68FB79134493F86430BA799A4217
:1029E00003D9174800F026F923E0FB79154A32F89D
:1029F0001320FB79134908335B000B445B889A4230
:102A000003D8114800F016F913E0FB790D4A32F8AB
:102A10001320013A91B20B4A22F81310FB79094AAC
:102A200032F81330FB60074AFB6813444833BA7925
:102A30001A701037BD4680BD64D20008D8AB0020A4
:102A4000ACD20008CC240020F0D2000880B584B0BD
:102A500000AF03460A46FB711346BB71FA79BB7996
:102A600011461846FFF79CFE0346FB81054B1A688A
:102A7000FB891344012283F89C2000BF1037BD4618
:102A800080BD00BFD8AB002080B487B000AFF86035
:102A9000B9607A6000237B6110E0BA687B691A44F0
:102AA000F9687B690B4412781A70BA687B69134421
:102AB0001B78002B07D07B6901337B617A697B68C7
:102AC0009A42EAD300E000BF00BF1C37BD465DF864
:102AD000047B704780B582B000AF03463A60FB715B
:102AE0000B46BB713B68002B03D1234800F0A2F8D2
:102AF0003EE0FB79082B03D9204800F09BF837E033
:102B0000BB79002B03D11E4800F094F830E01D4B38
:102B10001A68FB79134493F86430BA799A4208D959
:102B2000FB791846FEF788FF0346184600F082F846
:102B30001EE0FA79BB7911461846FFF731FE0346CD
:102B40001A46114B1A80114B1B68002B10D10D4BEC
:102B50001A680D4B1B8898331344181D094B1A68CB
:102B6000FB79134493F870301A463968FFF78CFFED
:102B70000837BD4680BD00BF20D3000854D30008ED
:102B800084D30008D8AB0020E0AB0020BC24002098
:102B900080B588B000AF78600B467B800023FB7265
:102BA0000023BB727B68002B04D1204800F042F860
:102BB000002336E007F10B0207F10A031946786893
:102BC00000F028FBEFF310833B613B69BB610123FD
:102BD0007B617B6983F3108800BF154B1B68013351
:102BE000134A1360B97AFA7A7B88786800F0D8F9CA
:102BF0000346FB83FB8B002B07D1B97AFA7A7B88DB
:102C0000786800F049FA0346FB83094B1B68013BD7
:102C1000074A1360BB69FB60FB6883F3108800BF41
:102C2000FB8B18462037BD4680BD00BFB4D30008DB
:102C3000B424002080B582B000AF7860114B1B68CF
:102C4000002B01D0FEF7DCFF0F4B1B68002B15D1CA
:102C50000D4A7B6813600B4B1B68002B0ED0094B91
:102C60001B6803F61413084A116850221846FFF730
:102C70000BFF044B1B680122C3F80C2900BF083767
:102C8000BD4680BDD8AB0020BC24002080B586B0F6
:102C900000AF0346FB7100237B6100233B61FB799E
:102CA000002B72D13C48FFF7C5FF72E03B4B1B681D
:102CB000DB697A6913443B61384B1A683B699B00B6
:102CC000134493F86839982B28D9344B1A683B6918
:102CD0009B00134493F86839A72B1FD82F4B1A6811
:102CE0003B699B00134493F868396833FB73FA7BA4
:102CF0003B691A44294B1B689B699A4241D2274B76
:102D00001A683B699B0003F66813D018FB7B0133FC
:102D10009B001A46002109F0FFF832E01F4B1A68A9
:102D20003B699B00134493F86839012B2AD13B6916
:102D30005A1C1A4B1B689B699A420CD2174B1A6893
:102D40003B699B0003F668131344082200211846D0
:102D500009F0E2F816E0114B1B6803F66813042231
:102D60000021184609F0D8F80C4B1A683B699B0003
:102D700003F66813134404220021184609F0CCF826
:102D800000E000BF7B6901337B61FB797A699A427D
:102D90008CD31837BD4680BDE4D30008D8AB0020E3
:102DA00080B500AF114B1B681B6B002B1BD00F4B6A
:102DB0001B685A6901325A610C4B1B68DA6901328F
:102DC000DA610A4B1B68DB69B3F5FA5F07D3074B7F
:102DD0001B6801221A62054B1B680022DA61012080
:102DE000FFF754FF00E000BF80BD00BFD8AB00205C
:102DF00080B586B000AF0346FB8000237B610023D3
:102E00003B610023FB60FB88FF2B09D0FB884FF65A
:102E1000FF72934204D05A48FFF70CFF0023ABE047
:102E2000584B1B685B6A002B16D1574B1B68002B55
:102E300006D0554B1A68534B1B6892085A620BE038
:102E4000524B1A68524B1B689A4205D0514B1A6874
:102E50004C4B1B6892085A6207F10C03184600F0AD
:102E60001FFAFA684C4B1B68D31A3B61FB684A4A4D
:102E70001360444B1B685B6A002B43D0414B1B68BB
:102E80005B6A3A699A421DD93E4B1B68D96A3D4B31
:102E90001B685B6A3A69B2FBF3F23A4B1B680A445F
:102EA000DA62384B1B68996A364B1B685A6A3B6971
:102EB000B3FBF2F000FB02F29A1A324B1B680A4491
:102EC0009A6207E02F4B1B68996A2E4B1B683A6980
:102ED0000A449A622B4B1B689A6A2A4B1B685B6AEE
:102EE0009A4213D3274B1B68DA6A0132DA62254B08
:102EF0001B68996A234B1B685A6A224B1B688A1A03
:102F00009A6203E01F4B1B68FA689A62FB883A6971
:102F10009A422CD9FFF720FC78617B69002B26D0E0
:102F2000FB884FF6FF7293420BD17B69A9221A707E
:102F30003B691B0C9AB27B695A807B6900225A70EC
:102F400013E0FB88FF2B0DD17B69A8221A703B6927
:102F50001B0A9AB27B695A803B691B0EDAB27B6905
:102F60005A7002E00D48FFF765FEFFF719FF3B6955
:102F70009AB2FB8813409BB218461837BD4680BDF5
:102F80003CD40008D8AB0020B824002018E000E0B2
:102F90005C25002000000020E4AB00207CD4000869
:102FA00080B584B000AF7860084611461A460346E3
:102FB000FB700B46BB7013463B80344B1B68FA78A2
:102FC00002F2444233F81230FB817B68002B04D1BB
:102FD0002F48FFF72FFE002353E0BB78002B4AD188
:102FE0002C48FFF727FE00234BE0284B1A68FB898B
:102FF0000233134493F868351A463B88DBB29A4291
:1030000026D1224B1A68FB890333134493F86835A1
:103010009AB23B881B0A9BB29A4219D11B4B1A6881
:10302000FB89191DBB780B44134493F86835002BBA
:103030000ED1164B1A68FB89043303F5AD631344B4
:10304000BA787968184608F0E1FF0346002B16D0DD
:103050000E4B1A68FB89134493F868359AB20B4BF0
:103060001968FB8901330B4493F868359BB21B0246
:103070009BB21344FB81FB89002BB6D100E000BF5B
:10308000FB8918461037BD4680BD00BFD8AB002075
:10309000A0D40008DCD4000880B584B000AF78600C
:1030A000084611461A460346FB700B46BB70134692
:1030B0003B800023FB817B68002B04D15148FFF744
:1030C000B9FD002399E0BB78002B04D14E48FFF7EF
:1030D000B1FD002391E04D4B1B68D3F86425BB780C
:1030E00013440433B3F5487F05D34948FFF7A2FDE5
:1030F0000023FB8180E0454B1B68FA7802F24442D2
:1031000033F81210414B1A68404B1B68D3F86435F2
:10311000C9B213440A4683F868253C4B1B68FA7809
:1031200002F2444233F812301B0A99B2374B1A6844
:10313000364B1B68D3F864350133C9B213440A46D1
:1031400083F86825314B1A68304B1B68D3F8643517
:1031500002333988C9B213440A4683F868253B888C
:103160001B0A99B2294B1A68284B1B68D3F864359F
:103170000333C9B213440A4683F86825234B1A68FF
:10318000224B1B68D3F86435043303F5AD63134455
:10319000BA7879681846FFF777FC1C4B1A681B4B06
:1031A0001B68D3F86415BB780B4404331344002226
:1031B00083F86825154B1B68D3F86415134B1B68FF
:1031C000FA7889B202F2444223F812100F4B1B68BE
:1031D000D3F86425BB781A440C4B1B680532C3F83E
:1031E00064250A4B1B68D3F864359AB2BB78053363
:1031F000DBB29BB2D31AFB81FB8918461037BD4660
:1032000080BD00BF14D5000850D50008D8AB002001
:1032100088D5000880B588B000AFF860B9607A60E2
:103220000123FB610023BB61FB68002B03D119481C
:10323000FFF700FD2BE0BB68002B03D11648FFF71A
:10324000F9FC24E07B68002B03D11448FFF7F2FC63
:103250001DE0FB68002B0FD006E0FB7DBA6913442C
:10326000BB61FB690133FB61FB685A1CFA601B7888
:10327000FB75FB7D002BF0D1BB69DBB203F03F0394
:10328000DAB2BB681A70FB69DAB27B681A70203751
:10329000BD4680BDD0D5000804D6000834D600084D
:1032A00080B485B000AF78600023BB600023FB6072
:1032B0002F4B1B68012B07D17B68002B51D02D4B66
:1032C0001A687B681A604CE02B4B1A682B4B1B6802
:1032D000D31A0133BB602A4B1A682A4B1B68D31AD6
:1032E000013B002B03DB264B1B68FB6002E0254BF8
:1032F0001B68FB60224B1B68FA689A4207D1224B7D
:103300001B68BA689A4202D2FB680133FB607B6893
:10331000002B18D0184B1B6801339B08FA6802FB7E
:1033200003F3144A1360144B1B68013303F00303C7
:10333000FA6803FB02F2BB6813449A080D4B1B6842
:1033400013440C4A13600E4AFB6813607B68002B21
:1033500003D0084B1A687B681A600B4ABB6813607D
:1033600000E000BF1437BD465DF8047B704700BF26
:10337000AC240020B024002014E000E018E000E0BD
:10338000E8AB0020A8240020ECAB002080B500AF03
:10339000032000F06AFC0F20FEF71CF8FDF730FE5A
:1033A0000023184680BD000080B400AF064B1B7898
:1033B0001A46064B1B681344044A136000BFBD46FF
:1033C0005DF8047B704700BF14000020F0AB0020C4
:1033D00080B400AF034B1B681846BD465DF8047B04
:1033E000704700BFF0AB002080B584B000AF7860BC
:1033F000FFF7EEFFB8607B68FB60FB68B3F1FF3F4F
:1034000005D00A4B1B781A46FB681344FB6000BFCB
:10341000FFF7DEFF0246BB68D31AFA689A42F7D874
:1034200000BF00BF1037BD4680BD00BF14000020A4
:1034300080B584B000AF78600023FB737B68002BFD
:1034400001D1012331E07B681B6C002B09D1786826
:10345000FDF7FEFD7B6800225A647B68002283F83A
:103460003C207B681B6C03F01003002B16D17B689B
:103470001A6C104B134043F002027B681A647868A0
:1034800000F04CFA7B6800225A647B681B6C23F0C6
:10349000030343F001027B681A6401E00123FB731C
:1034A0007B68002283F83C20FB7B18461037BD4622
:1034B00080BD00BFFDEEFFFF80B485B000AF786037
:1034C0000023FB607B6893F83C30012B01D1022381
:1034D000ADE07B68012283F83C207B681B689B6819
:1034E00003F00103012B18D07B681B689A687B6886
:1034F0001B6842F001029A60504B1B68504AA2FBC5
:1035000003239A0C13465B001344FB6002E0FB6844
:10351000013BFB60FB68002BF9D17B681B689B6853
:1035200003F00103012B75D17B681A6C454B1340E6
:1035300043F480727B681A647B681B685B6803F4E1
:103540008063002B07D07B681B6C23F4405343F44B
:1035500080527B681A647B681B6C03F48053B3F55C
:10356000805F06D17B685B6C23F006027B685A643F
:1035700002E07B6800225A647B68002283F83C20CA
:103580007B681B686FF022021A602F4B5B6803F0A8
:103590001F03002B0FD17B681B689B6803F040530F
:1035A000002B43D17B681B689A687B681B6842F0DC
:1035B00080429A603AE07B681B68244A93420ED1AD
:1035C0007B681B689B6803F04053002B07D17B6826
:1035D0001B689A687B681B6842F080429A601A4BAD
:1035E0005B6803F01003002B20D17B681B68184A2E
:1035F00093421BD17B681B689B6803F04053002BF0
:1036000014D17B681B689A687B681B6842F0804213
:103610009A600BE07B681B6C43F010027B681A64B5
:103620007B685B6C43F001027B685A640023184698
:103630001437BD465DF8047B704700BF00000020D2
:1036400083DE1B43FEF8FFFF002301400020014002
:103650000022014080B483B000AF78607B681B68B3
:10366000DB6C18460C37BD465DF8047B70470000E4
:1036700080B485B000AF786039600023FB607B6860
:1036800093F83C30012B01D1022336E17B68012203
:1036900083F83C203B681B68092B3AD93B681B68C0
:1036A000B3F1004F35D07B681B68D9683B681B6855
:1036B0009BB21A4613465B0013441E3B072202FAD4
:1036C00003F3DA437B681B680A40DA603B681B68D7
:1036D0008D4A93420AD17B681B68D9683B689B6816
:1036E0001A067B681B680A43DA6035E07B681B6852
:1036F000D9683B689A683B681B689BB218460346CA
:103700005B0003441E3B9A407B681B680A43DA60F7
:1037100022E07B681B6819693B681B689BB21A46EC
:1037200013465B001344072202FA03F3DA437B6873
:103730001B680A401A617B681B6819693B689A68B4
:103740003B681B689BB2184603465B0003449A40E3
:103750007B681B680A431A613B685B68062B24D8A8
:103760007B681B68596B3B685A6813469B0013447F
:10377000053B1F2202FA03F3DA437B681B680A4009
:103780005A637B681B68596B3B681B689BB2184681
:103790003B685A6813469B001344053B00FA03F24A
:1037A0007B681B680A435A634CE03B685B680C2BE0
:1037B00024D87B681B68196B3B685A6813469B00CA
:1037C0001344233B1F2202FA03F3DA437B681B688E
:1037D0000A401A637B681B68196B3B681B689BB2C5
:1037E00018463B685A6813469B001344233B00FA73
:1037F00003F27B681B680A431A6323E07B681B683B
:10380000D96A3B685A6813469B001344413B1F2208
:1038100002FA03F3DA437B681B680A40DA627B68CA
:103820001B68D96A3B681B689BB218463B685A689C
:1038300013469B001344413B00FA03F27B681B686C
:103840000A43DA627B681B68304A93420AD13B68BC
:103850001B68B3F1004F05D12D4B5B682C4A23F454
:10386000400353607B681B68284A93420FD13B6832
:103870001B68122B0BD1264B5B68254A23F40003EF
:103880005360234B5B68224A43F4800353607B6898
:103890001B681E4A93422BD13B681B681A4A93420D
:1038A00003D03B681B68112B22D1194B5B68184A67
:1038B00023F480035360164B5B68154A43F40003FE
:1038C00053603B681B68104A934211D1114B1B682F
:1038D000114AA2FB03239A0C13469B0013445B007E
:1038E000FB6002E0FB68013BFB60FB68002BF9D149
:1038F0007B68002283F83C20002318461437BD461D
:103900005DF8047B704700BF1200001000200140EA
:10391000002301400000002083DE1B4380B483B0FD
:1039200000AF7860784B5B68774A23F4403353608C
:10393000754B5A687B685B68734913434B607B68BF
:103940001B685A687B681B6822F480725A607B6827
:103950001B6859687B681B691A027B681B680A43ED
:103960005A607B681B685A687B681B6822F040724B
:103970005A607B681B6859687B689A687B681B681B
:103980000A435A607B681B689A687B681B6822F44C
:1039900000629A607B681B6899687B68DA687B685C
:1039A0001B680A439A607B689B6A584A934222D0FC
:1039B0007B681B689A687B681B6822F070629A605B
:1039C0007B681B6899687B689A6A7B681B680A43F6
:1039D0009A607B681B689A687B681B6822F040527B
:1039E0009A607B681B6899687B68DA6A7B681B68E9
:1039F0000A439A600FE07B681B689A687B681B68C3
:103A000022F070629A607B681B689A687B681B680A
:103A100022F040529A607B681B689A687B681B683A
:103A200022F002029A607B681B6899687B689B6938
:103A30005A007B681B680A439A607B6893F82030C1
:103A4000002B1BD07B681B685A687B681B6842F49C
:103A500000625A607B681B685A687B681B6822F4A6
:103A600060425A607B681B6859687B685B6A013BEF
:103A70005A037B681B680A435A6007E07B681B682F
:103A80005A687B681B6822F400625A607B681B6876
:103A9000DA6A7B681B6822F47002DA627B681B6852
:103AA000D96A7B68DB69013B1A057B681B680A439E
:103AB000DA627B681B689A687B681B6822F4007274
:103AC0009A607B681B6899687B6893F830305A026B
:103AD0007B681B680A439A607B681B689A687B68EE
:103AE0001B6822F480629A607B681B6899687B6817
:103AF0005B699A027B681B680A439A6000BF0C37B7
:103B0000BD465DF8047B7047002301400100000FB3
:103B100080B485B000AF78607B6803F00703FB607A
:103B20000B4BDB68BB60BA684FF6FF031340BB600A
:103B3000FB681A02BB681A43064B1343BB60044A76
:103B4000BB68D36000BF1437BD465DF8047B704787
:103B500000ED00E00000FA0580B400AF044BDB6824
:103B60001B0A03F007031846BD465DF8047B704747
:103B700000ED00E080B483B000AF0346FB7197F91D
:103B80000730002B0BDBFB7903F01F02074997F985
:103B900007305B09012000FA02F241F8232000BF40
:103BA0000C37BD465DF8047B704700BF00E100E0C4
:103BB00080B483B000AF03463960FB7197F90730DA
:103BC000002B0ADB3B68DAB20C4997F90730120187
:103BD000D2B20B4483F800230AE03B68DAB208490A
:103BE000FB7903F00F03043B1201D2B20B441A76A7
:103BF00000BF0C37BD465DF8047B704700E100E074
:103C000000ED00E080B489B000AFF860B9607A6080
:103C1000FB6803F00703FB61FB69C3F10703042B97
:103C200028BF0423BB61FB690433062B02D9FB695F
:103C3000033B00E000237B614FF0FF32BB6902FAD7
:103C400003F3DA43BB681A407B699A404FF0FF31B7
:103C50007B6901FA03F3D9437B680B401343184691
:103C60002437BD465DF8047B704780B582B000AF55
:103C700078607868FFF74CFF00BF0837BD4680BD0D
:103C800080B586B000AF0346B9607A60FB7300234D
:103C90007B61FFF761FF78617A68B9687869FFF73F
:103CA000B1FF024697F90F3011461846FFF780FF23
:103CB00000BF1837BD4680BD80B582B000AF034657
:103CC000FB7197F907301846FFF754FF00BF08371C
:103CD000BD4680BD80B489B000AF786039600023F4
:103CE000FB6100237B6100233B610023BB61002358
:103CF000FB6175E10122FB6902FA03F37B613B681A
:103D00001B687A6913403B613A697B699A4240F0CB
:103D100064813B685B6803F00303012B05D03B68BB
:103D20005B6803F00303022B30D17B689B68BB61A7
:103D3000FB695B00032202FA03F3DB43BA69134019
:103D4000BB613B68DA68FB695B0002FA03F3BA699E
:103D50001343BB617B68BA699A607B685B68BB612F
:103D60000122FB6902FA03F3DB43BA691340BB612A
:103D70003B685B681B0903F00102FB6902FA03F36D
:103D8000BA691343BB617B68BA695A603B685B6878
:103D900003F00303032B17D07B68DB68BB61FB696F
:103DA0005B00032202FA03F3DB43BA691340BB61F1
:103DB0003B689A68FB695B0002FA03F3BA69134334
:103DC000BB617B68BA69DA603B685B6803F0030338
:103DD000022B23D1FB69DA087B68083253F82230C2
:103DE000BB61FB6903F007039B000F2202FA03F398
:103DF000DB43BA691340BB613B681A69FB6903F096
:103E000007039B0002FA03F3BA691343BB61FB6922
:103E1000DA087B680832B96943F822107B681B68AE
:103E2000BB61FB695B00032202FA03F3DB43BA695F
:103E30001340BB613B685B6803F00302FB695B00F6
:103E400002FA03F3BA691343BB617B68BA691A606B
:103E50003B685B6803F44033002B00F0BE80664B88
:103E60005B6C654A43F480435364634B5B6C03F4BF
:103E70008043FB60FB68614AFB699B08023352F890
:103E80002330BB61FB6903F003039B000F2202FA9E
:103E900003F3DB43BA691340BB617B68584A934222
:103EA00037D07B68574A934231D07B68564A934259
:103EB0002BD07B68554A934225D07B68544A934265
:103EC0001FD07B68534A934219D07B68524A934271
:103ED00013D07B68514A93420DD07B68504A93427D
:103EE00007D07B684F4A934201D1092312E00A238D
:103EF00010E008230EE007230CE006230AE0052368
:103F000008E0042306E0032304E0022302E0012387
:103F100000E00023FA6902F0030292009340BA69BC
:103F20001343BB613549FB699B080233BA6941F809
:103F300023203D4B9B68BB613B69DB43BA6913405F
:103F4000BB613B685B6803F48013002B03D0BA6944
:103F50003B691343BB61344ABB699360324BDB68F6
:103F6000BB613B69DB43BA691340BB613B685B687B
:103F700003F40013002B03D0BA693B691343BB6100
:103F8000294ABB69D360284B5B68BB613B69DB4353
:103F9000BA691340BB613B685B6803F40033002BD4
:103FA00003D0BA693B691343BB611F4ABB695360C5
:103FB0001D4B1B68BB613B69DB43BA691340BB61A6
:103FC0003B685B6803F48033002B03D0BA693B691C
:103FD0001343BB61144ABB691360FB690133FB6186
:103FE000FB690F2B7FF686AE00BF00BF2437BD46AE
:103FF0005DF8047B704700BF003802400038014084
:10400000000002400004024000080240000C024090
:10401000001002400014024000180240001C024040
:104020000020024000240240003C014080B485B0E2
:1040300000AF78600B467B807B681A697B881340F1
:10404000002B02D00123FB7301E00023FB73FB7BF9
:1040500018461437BD465DF8047B704780B483B0C2
:1040600000AF78600B467B8013467B707B78002B1B
:1040700003D07A887B689A6103E07B881A047B68A6
:104080009A6100BF0C37BD465DF8047B704780B471
:1040900085B000AF78600B467B807B685B69FB6016
:1040A0007A88FB6813401A04FB68D9437B880B406D
:1040B0001A437B689A6100BF1437BD465DF8047BE4
:1040C0007047000080B582B000AF0346FB80084B0C
:1040D0005A69FB881340002B06D0054AFB885361C0
:1040E000FB881846FCF7D2FD00BF0837BD4680BDEF
:1040F000003C0140F0B58FB00AAF78607B68002BC0
:1041000001D1012316E17B681B68BB607B6893F8D3
:10411000BD34DBB2002B06D17B68002283F8BC24BF
:104120007868FDF7DDF87B68032283F8BD24BB685F
:10413000DB6B03F48073002B02D17B6800221A61D1
:104140007B681B68184602F027FF7B681B683B6092
:104150007E686D4606F110040FCC0FC50FCC0FC55D
:1041600094E8030085E80300331D0ECB386802F0A5
:10417000BBFE0346002B05D07B68022283F8BD24DA
:104180000123D7E07B681B680021184602F015FF69
:104190000023FB734AE0FA7B79681346DB00134483
:1041A0009B000B443D3301221A70FA7B7968134659
:1041B000DB0013449B000B443C33FA7B1A70FA7B00
:1041C000FB7B98B279681346DB0013449B000B44D9
:1041D000443302461A80FA7B79681346DB001344A5
:1041E0009B000B44403300221A70FA7B7968134617
:1041F000DB0013449B000B44483300221A60FA7B17
:1042000079681346DB0013449B000B444C330022B7
:104210001A60FA7B79681346DB0013449B000B4459
:10422000543300221A60FB7B0133FB73FA7B7B68FB
:104230005B689A42AFD30023FB7344E0FA7B796852
:104240001346DB0013449B000B4403F27D23002242
:104250001A70FA7B79681346DB0013449B000B4409
:1042600003F51F73FA7B1A70FA7B79681346DB003B
:1042700013449B000B4403F5207300221A70FA7B51
:1042800079681346DB0013449B000B4403F522734B
:1042900000221A60FA7B79681346DB0013449B0006
:1042A0000B4403F5237300221A60FA7B79681346E6
:1042B000DB0013449B000B4403F5257300221A60B6
:1042C000FB7B0133FB73FA7B7B685B689A42B5D357
:1042D0007B681B683B607E686D4606F110040FCC5E
:1042E0000FC50FCC0FC594E8030085E80300331D0C
:1042F0000ECB386802F0AEFE0346002B05D07B687B
:10430000022283F8BD24012314E07B68002283F895
:1043100038207B68012283F8BD247B685B6A012B0F
:1043200002D1786800F00AF87B681B68184603F031
:104330006CF8002318461437BD46F0BD80B485B034
:1043400000AF78607B681B68FB607B680122C3F864
:1043500000257B68002283F8F424FB689B6943F006
:104360000062FB689A61FB685A6D054B1343FA685B
:104370005365002318461437BD465DF8047B70472B
:104380000300001080B400AF054B1B68044A43F4DF
:104390008073136000BFBD465DF8047B704700BFAB
:1043A0000070004080B586B000AF78600023FB75D8
:1043B0007B68002B01D101239BE27B681B6803F023
:1043C0000103002B00F08780964B9B6803F00C03E1
:1043D000042B0CD0934B9B6803F00C03082B12D1D9
:1043E000904B5B6803F48003B3F5800F0BD18D4BCA
:1043F0001B6803F40033002B6CD07B685B68002BD8
:1044000068D1012375E27B685B68B3F5803F06D114
:10441000844B1B68834A43F4803313602EE07B682F
:104420005B68002B0CD17F4B1B687E4A23F48033E2
:1044300013607C4B1B687B4A23F4802313601DE0D0
:104440007B685B68B3F5A02F0CD1764B1B68754A6F
:1044500043F480231360734B1B68724A43F4803328
:1044600013600BE06F4B1B686E4A23F480331360BC
:104470006C4B1B686B4A23F4802313607B685B687A
:10448000002B13D0FEF7A4FF386108E0FEF7A0FF71
:1044900002463B69D31A642B01D9032329E2614BFD
:1044A0001B6803F40033002BF0D014E0FEF790FFFC
:1044B000386108E0FEF78CFF02463B69D31A642B93
:1044C00001D9032315E2574B1B6803F40033002B7B
:1044D000F0D100E000BF7B681B6803F00203002BF3
:1044E00069D0504B9B6803F00C03002B0BD04D4B55
:1044F0009B6803F00C03082B1CD14A4B5B6803F448
:104500008003002B16D1474B1B6803F00203002BDE
:1045100005D07B68DB68012B01D00123E9E1414B29
:104520001B6823F0F8027B681B69DB003D491343DD
:104530000B6040E07B68DB68002B23D0394B1B68A5
:10454000384A43F001031360FEF742FF386108E088
:10455000FEF73EFF02463B69D31A022B01D9032323
:10456000C7E1304B1B6803F00203002BF0D02D4B4A
:104570001B6823F0F8027B681B69DB0029491343A1
:104580000B6018E0274B1B68264A23F001031360D9
:10459000FEF71EFF386108E0FEF71AFF02463B698E
:1045A000D31A022B01D90323A3E11E4B1B6803F08E
:1045B0000203002BF0D17B681B6803F00803002B7B
:1045C00038D07B685B69002B19D0164B5B6F154A9E
:1045D00043F001035367FEF7FBFE386108E0FEF786
:1045E000F7FE02463B69D31A022B01D9032380E16F
:1045F0000C4B5B6F03F00203002BF0D01AE0094B69
:104600005B6F084A23F001035367FEF7E1FE386150
:104610000AE0FEF7DDFE02463B69D31A022B03D9FE
:10462000032366E100380240924B5B6F03F0020304
:10463000002BEED17B681B6803F00403002B00F015
:10464000A4808C4B1B6C03F08053002B0DD1894B45
:104650001B6C884A43F080531364864B1B6C03F039
:104660008053BB60BB680123FB75834B1B6803F45D
:104670008073002B18D1804B1B687F4A43F48073F2
:104680001360FEF7A5FE386108E0FEF7A1FE0246C2
:104690003B69D31A642B01D903232AE1764B1B68AB
:1046A00003F48073002BF0D07B689B68012B06D14C
:1046B000704B1B6F6F4A43F0010313672DE07B685B
:1046C0009B68002B0CD16B4B1B6F6A4A23F00103D4
:1046D0001367684B1B6F674A23F0040313671CE0E2
:1046E0007B689B68052B0CD1624B1B6F614A43F0C2
:1046F000040313675F4B1B6F5E4A43F001031367AC
:104700000BE05C4B1B6F5B4A23F001031367594BB3
:104710001B6F584A23F0040313677B689B68002BC8
:1047200015D0FEF755FE38610AE0FEF751FE02464D
:104730003B69D31A41F28832934201D90323D8E06E
:104740004C4B1B6F03F00203002BEED014E0FEF77E
:104750003FFE38610AE0FEF73BFE02463B69D31A92
:1047600041F28832934201D90323C2E0414B1B6FCF
:1047700003F00203002BEED1FB7D012B05D13D4B55
:104780001B6C3C4A23F0805313647B689B69002BAD
:1047900000F0AE80374B9B6803F00C03082B6DD004
:1047A0007B689B69022B4BD1324B1B68314A23F04B
:1047B00080731360FEF70CFE386108E0FEF708FE18
:1047C00002463B69D31A022B01D9032391E0294BFE
:1047D0001B6803F00073002BF0D17B68DA697B68FB
:1047E0001B6A1A437B685B6A9B011A437B689B6A5E
:1047F0005B08013B1B041A437B68DB6A1B061A43F8
:104800007B681B6B1B071B4913434B60194B1B68D1
:10481000184A43F080731360FEF7DAFD386108E050
:10482000FEF7D6FD02463B69D31A022B01D90323BA
:104830005FE0104B1B6803F00073002BF0D057E0D3
:104840000C4B1B680B4A23F080731360FEF7C0FD0E
:10485000386108E0FEF7BCFD02463B69D31A022B23
:1048600001D9032345E0034B1B6803F00073002BC1
:10487000F0D13DE000380240007000401F4B5B6803
:10488000FB607B689B69012B30D0FB6803F48002DE
:104890007B68DB699A4229D1FB6803F03F027B68A1
:1048A0001B6A9A4222D1FA6847F6C07313407A68AD
:1048B000526A9201934219D1FB6803F440327B683B
:1048C0009B6A5B08013B1B049A420FD1FB6803F013
:1048D00070627B68DB6A1B069A4207D1FB6803F0B3
:1048E000E0427B681B6B1B079A4201D0012300E06A
:1048F000002318461837BD4680BD00BF003802406F
:1049000080B584B000AF786039600023FB607B68BD
:10491000002B01D10123D0E06A4B1B6803F00F0389
:104920003A689A4210D9674B1B6823F00F02654919
:104930003B6813430B60634B1B6803F00F033A683B
:104940009A4201D00123B8E07B681B6803F00203A0
:10495000002B20D07B681B6803F00403002B05D0DC
:10496000594B9B68584A43F4E05393607B681B683B
:1049700003F00803002B05D0534B9B68524A43F4C5
:1049800060439360504B9B6823F0F0027B689B6808
:104990004D4913438B607B681B6803F00103002BB8
:1049A00040D07B685B68012B07D1474B1B6803F441
:1049B0000033002B15D101237FE07B685B68022B5D
:1049C00007D1414B1B6803F00073002B09D1012371
:1049D00073E03D4B1B6803F00203002B01D1012360
:1049E0006BE0394B9B6823F003027B685B683649B8
:1049F00013438B60FEF7ECFCF8600AE0FEF7E8FC7E
:104A00000246FB68D31A41F28832934201D903234C
:104A100053E02D4B9B6803F00C027B685B689B00A6
:104A20009A42EBD1274B1B6803F00F033A689A4276
:104A300010D2244B1B6823F00F0222493B6813431A
:104A40000B60204B1B6803F00F033A689A4201D0B9
:104A5000012332E07B681B6803F00403002B08D0BD
:104A6000194B9B6823F4E0527B68DB6816491343BB
:104A70008B607B681B6803F00803002B09D0124B86
:104A80009B6823F460427B681B69DB000E4913437B
:104A90008B6000F021F802460B4B9B681B0903F06A
:104AA0000F030A49CB5C22FA03F3094A1360094B4E
:104AB0001B681846FCF78EFC002318461037BD46CD
:104AC00080BD00BF003C024000380240CCD7000847
:104AD00000000020100000202DE9B04F90B000AF82
:104AE00000237B630023FB6300233B630023BB6342
:104AF000594B9B6803F00C03082B0DD0082B00F2D8
:104B0000A180002B02D0042B03D09BE0534BBB634E
:104B10009BE0534BBB6398E04F4B5B6803F03F0354
:104B20007B634D4B5B6803F48003002B28D04A4B1A
:104B30005B689B0900223B627A623B6AC3F3080010
:104B40000021474B03FB01F2002300FB03F3134456
:104B5000434AA0FB0212FA620A46BA62FA6A134496
:104B6000FB627B6B0022BB61FA61D7E90623D7E9C0
:104B70000A01FBF76DFB02460B461346FB6353E04D
:104B8000354B5B689B0900223B617A613B69C3F34B
:104B9000080A4FF0000B52465B464FF000004FF002
:104BA0000001590141EAD261500102460B46B2EBC5
:104BB0000A0863EB0B094FF000024FF000034FEAC5
:104BC000891343EA98634FEA8812B2EB080463EB57
:104BD00009054FF000024FF00003EB0043EA547365
:104BE000E20014461D4614EB0A033B6045EB0B0341
:104BF0007B604FF000024FF00003D7E900452946E3
:104C00008B02214643EA915321468A0210461946F7
:104C10007B6B0022BB60FA60D7E90223FBF718FB2D
:104C200002460B461346FB630B4B5B681B0C03F001
:104C3000030301335B003B63FA6B3B6BB2FBF3F3A3
:104C4000BB6302E0054BBB6300BFBB6B184640373C
:104C5000BD46BDE8B08F00BF003802400024F4001C
:104C600040787D0180B400AF034B1B681846BD46F9
:104C70005DF8047B704700BF0000002080B500AFE6
:104C8000FFF7F0FF0246054B9B689B0A03F0070302
:104C90000349CB5C22FA03F3184680BD003802407A
:104CA000DCD7000880B500AFFFF7DCFF0246054BFC
:104CB0009B685B0B03F007030349CB5C22FA03F309
:104CC000184680BD00380240DCD7000880B483B0AD
:104CD00000AF786039607B680F221A60124B9B68C6
:104CE00003F003027B685A600F4B9B6803F0F002ED
:104CF0007B689A600C4B9B6803F4E0527B68DA6037
:104D0000094B9B68DB0803F4E0527B681A61074B90
:104D10001B6803F00F023B681A6000BF0C37BD46EA
:104D20005DF8047B704700BF00380240003C024041
:104D300080B588B000AF786000237B6100233B61C1
:104D40000023FB600023FB610023BB617B681B68C1
:104D500003F00103002B12D0694B9B68684A23F4CF
:104D600000039360664B9A687B685B6B64491343EE
:104D70008B607B685B6B002B01D10123FB617B683F
:104D80001B6803F40023002B17D05D4BD3F88C3045
:104D900023F440127B68DB6B59491343C1F88C3014
:104DA0007B68DB6BB3F5801F01D10123FB617B685E
:104DB000DB6B002B01D10123BB617B681B6803F413
:104DC0008013002B17D04E4BD3F88C3023F44002C5
:104DD0007B681B6C4A491343C1F88C307B681B6CA1
:104DE000B3F5800F01D10123FB617B681B6C002BA5
:104DF00001D10123BB617B681B6803F08073002B2A
:104E000001D00123FB617B681B6803F02003002BAA
:104E100000F08B803A4B1B6C394A43F0805313648B
:104E2000374B1B6C03F08053BB60BB68354B1B6872
:104E3000344A43F480731360FEF7CAFA786108E0DD
:104E4000FEF7C6FA02467B69D31A642B01D9032305
:104E50008FE32C4B1B6803F48073002BF0D0284B9E
:104E60001B6F03F440733B613B69002B35D07B68BB
:104E70001B6B03F440733A699A422ED0204B1B6F90
:104E800023F440733B611E4B1B6F1D4A43F4803378
:104E900013671B4B1B6F1A4A23F480331367184A9E
:104EA0003B691367164B1B6F03F00103012B14D1F1
:104EB000FEF78EFA78610AE0FEF78AFA02467B690D
:104EC000D31A41F28832934201D9032351E30C4BA8
:104ED0001B6F03F00203002BEED07B681B6B03F407
:104EE0004073B3F5407F11D1054B9B6823F4F81252
:104EF0007B68196B044B0B40014913438B600BE03B
:104F00000038024000700040FFFCFF0FAC4B9B6874
:104F1000AB4A23F4F8139360A94B1A6F7B681B6BA1
:104F2000C3F30B03A64913430B677B681B6803F0AD
:104F30001003002B10D0A24BD3F88C30A04A23F0E2
:104F40008073C2F88C309E4BD3F88C207B689B6BAF
:104F50009B491343C1F88C307B681B6803F4804382
:104F6000002B0AD0964BD3F8903023F440327B6864
:104F70005B6E93491343C1F890307B681B6803F460
:104F80000043002B0AD08E4BD3F8903023F44022FC
:104F90007B689B6E8A491343C1F890307B681B681D
:104FA00003F48033002B0AD0854BD3F8903023F4E0
:104FB00040127B68DB6E82491343C1F890307B68F6
:104FC0001B6803F40033002B0AD07D4BD3F89030DC
:104FD00023F440027B681B6F79491343C1F890307A
:104FE0007B681B6803F04003002B0AD0744BD3F896
:104FF000903023F003027B685B6C71491343C1F866
:1050000090307B681B6803F08003002B0AD06C4B48
:10501000D3F8903023F00C027B689B6C68491343F3
:10502000C1F890307B681B6803F48073002B0AD0B2
:10503000634BD3F8903023F030027B68DB6C60491F
:105040001343C1F890307B681B6803F40073002B96
:105050000AD05B4BD3F8903023F0C0027B681B6D05
:1050600057491343C1F890307B681B6803F4806391
:10507000002B0AD0524BD3F8903023F440727B6857
:105080005B6D4F491343C1F890307B681B6803F494
:105090000063002B0AD04A4BD3F8903023F44062CF
:1050A0007B689B6D46491343C1F890307B681B6851
:1050B00003F48053002B0AD0414BD3F8903023F4F3
:1050C00040527B68DB6D3E491343C1F890307B68EA
:1050D0001B6803F40053002B0AD0394BD3F89030EF
:1050E00023F440427B681B6E35491343C1F890306E
:1050F0007B681B6803F48003002B0AD0304BD3F885
:10510000903023F080627B689B6F2D491343C1F878
:1051100090307B681B6803F40013002B11D0284BE0
:10512000D3F8903023F000627B68DB6F244913438F
:10513000C1F890307B68DB6FB3F1006F01D10123C0
:10514000BB617B681B6803F00803002B01D00123BF
:10515000BB617B681B6803F48023002B0AD0184BCB
:10516000D3F8903023F040727B685B6F144913438F
:10517000C1F890307B681B6803F40003002B0BD050
:105180000F4BD3F8903023F080527B68D3F88030F7
:105190000B491343C1F890307B681B6803F08063B0
:1051A000002B0FD0064BD3F8903023F000527B68D1
:1051B000D3F8843002491343C1F8903002E000BFB5
:1051C000003802407B681B6803F00063002B0BD0A3
:1051D0008A4BD3F88C3023F000727B68D3F8883088
:1051E00086491343C1F88C307B681B6803F08053F9
:1051F000002B0BD0814BD3F88C3023F080627B687E
:10520000D3F88C307D491343C1F88C30FB69012BF6
:1052100006D07B681B6803F00073002B00F0D6807B
:10522000764B1B68754A23F080631360FEF7D0F855
:10523000786108E0FEF7CCF802467B69D31A642B4C
:1052400001D9032395E16D4B1B6803F00063002B2C
:10525000F0D17B681B6803F00103002B21D07B6831
:105260005B6B002B1DD1654BD3F884301B0C03F016
:1052700003033B61614BD3F884301B0E03F00F0333
:10528000FB607B685B689A013B691B041A43FB68FF
:105290001B061A437B689B681B0758491343C1F8D8
:1052A00084307B681B6803F40023002B04D07B68E8
:1052B000DB6BB3F5801F0AD07B681B6803F4801397
:1052C000002B2ED07B681B6CB3F5800F29D14B4B84
:1052D000D3F884301B0C03F003033B61474BD3F836
:1052E00084301B0F03F00703FB607B685B689A0147
:1052F0003B691B041A437B68DB681B061A43FB6887
:105300001B073E491343C1F884303C4BD3F88C3023
:1053100023F01F027B685B6A013B38491343C1F8E5
:105320008C307B681B6803F08073002B1DD0334BDF
:10533000D3F884301B0E03F00F033B612F4BD3F8DF
:1053400084301B0F03F00703FB607B685B689A01E6
:105350007B681B691B041A433B691B061A43FB68E5
:105360001B0726491343C1F884307B681B6803F090
:105370000073002B11D07B685B689A017B681B6906
:105380001B041A437B68DB681B061A437B689B6817
:105390001B071A491343C1F88430184B1B68174A7E
:1053A00043F080631360FEF713F8786108E0FEF7BE
:1053B0000FF802467B69D31A642B01D90323D8E086
:1053C0000E4B1B6803F00063002BF0D0BB69012B70
:1053D00040F0CE80094B1B68084A23F080531360CD
:1053E000FDF7F6FF78610BE0FDF7F2FF02467B69FF
:1053F000D31A642B04D90323BBE000BF003802405A
:105400005E4B1B6803F00053B3F1005FECD07B6888
:105410001B6803F40023002B03D07B68DB6B002B9D
:1054200009D07B681B6803F48013002B2ED07B68A7
:105430001B6C002B2AD1514BD3F888301B0C03F086
:1054400003033B614D4BD3F888301B0F03F0070378
:10545000FB607B685B699A013B691B041A437B68AC
:105460009B691B061A43FB681B0744491343C1F899
:105470008830424BD3F88C3023F4F8527B689B6A17
:10548000013B1B023D491343C1F88C307B681B680C
:1054900003F40013002B22D07B68DB6FB3F1006FA5
:1054A0001DD1364BD3F888301B0E03F00F033B6140
:1054B000324BD3F888301B0F03F00703FB607B6887
:1054C0005B699A017B681B6A1B041A433B691B06D4
:1054D0001A43FB681B0729491343C1F888307B68CE
:1054E0001B6803F00803002B28D0244BD3F8883026
:1054F0001B0E03F00F033B61204BD3F888301B0CCD
:1055000003F00303FB607B685B699A01FB681B0483
:105510001A433B691B061A437B68DB691B07174963
:105520001343C1F88830154BD3F88C3023F4403244
:105530007B68DB6A11491343C1F88C300F4B1B6841
:105540000E4A43F080531360FDF742FF786108E094
:10555000FDF73EFF02467B69D31A642B01D9032372
:1055600007E0064B1B6803F00053B3F1005FEFD177
:10557000002318462037BD4680BD00BF00380240DA
:1055800080B582B000AF78607B68002B01D1012329
:1055900049E07B6893F83D30DBB2002B06D17B6895
:1055A000002283F83C207868FBF7C0FD7B6802226C
:1055B00083F83D207B681A687B68043319461046DF
:1055C00000F066FC7B68012283F848207B6801229A
:1055D00083F83E207B68012283F83F207B6801220C
:1055E00083F840207B68012283F841207B680122F8
:1055F00083F842207B68012283F843207B680122E4
:1056000083F844207B68012283F845207B680122CF
:1056100083F846207B68012283F847207B680122BB
:1056200083F83D20002318460837BD4680BD0000A2
:1056300080B485B000AF78607B6893F83D30DBB212
:10564000012B01D0012354E07B68022283F83D2026
:105650007B681B68DA687B681B6842F00102DA60CD
:105660007B681B68264A934222D07B681B68B3F193
:10567000804F1DD07B681B68224A934218D07B68FC
:105680001B68214A934213D07B681B681F4A9342D0
:105690000ED07B681B681E4A934209D07B681B684A
:1056A0001C4A934204D07B681B681B4A934215D165
:1056B0007B681B689A68194B1340FB60FB68062BDC
:1056C00015D0FB68B3F5803F11D07B681B681A6862
:1056D0007B681B6842F001021A6008E07B681B6867
:1056E0001A687B681B6842F001021A6000E000BF84
:1056F000002318461437BD465DF8047B704700BF91
:10570000000001400004004000080040000C004080
:105710000004014000400140001800400700010063
:1057200080B582B000AF78607B68002B01D1012387
:1057300049E07B6893F83D30DBB2002B06D17B68F3
:10574000002283F83C20786800F041F87B68022250
:1057500083F83D207B681A687B680433194610463D
:1057600000F096FB7B68012283F848207B680122C9
:1057700083F83E207B68012283F83F207B6801226A
:1057800083F840207B68012283F841207B68012256
:1057900083F842207B68012283F843207B68012242
:1057A00083F844207B68012283F845207B6801222E
:1057B00083F846207B68012283F847207B6801221A
:1057C00083F83D20002318460837BD4680BD80B4CD
:1057D00083B000AF786000BF0C37BD465DF8047B36
:1057E0007047000080B584B000AF786039603B68D6
:1057F000002B09D17B6893F83E30DBB2012B14BF3C
:1058000001230023DBB23CE03B68042B09D17B6819
:1058100093F83F30DBB2012B14BF01230023DBB22E
:105820002FE03B68082B09D17B6893F84030DBB24E
:10583000012B14BF01230023DBB222E03B680C2BB9
:1058400009D17B6893F84130DBB2012B14BF0123EF
:105850000023DBB215E03B68102B09D17B6893F87D
:105860004230DBB2012B14BF01230023DBB208E07E
:105870007B6893F84330DBB2012B14BF0123002374
:10588000DBB2002B01D0012392E03B68002B04D156
:105890007B68022283F83E2023E03B68042B04D17E
:1058A0007B68022283F83F201BE03B68082B04D171
:1058B0007B68022283F8402013E03B680C2B04D164
:1058C0007B68022283F841200BE03B68102B04D157
:1058D0007B68022283F8422003E07B68022283F87F
:1058E00043207B681B6801223968184600F0CEFD12
:1058F0007B681B68304A934204D07B681B682F4A40
:10590000934201D1012300E00023002B07D07B68E4
:105910001B685A6C7B681B6842F400425A647B68BF
:105920001B68254A934222D07B681B68B3F1804FE5
:105930001DD07B681B68224A934218D07B681B6885
:10594000204A934213D07B681B681F4A93420ED0B3
:105950007B681B68194A934209D07B681B681B4A05
:10596000934204D07B681B68194A934215D17B6827
:105970001B689A68174B1340FB60FB68062B15D019
:10598000FB68B3F5803F11D07B681B681A687B68A1
:105990001B6842F001021A6008E07B681B681A6805
:1059A0007B681B6842F001021A6000E000BF002320
:1059B00018461037BD4680BD00000140000401407C
:1059C0000004004000080040000C0040004001407E
:1059D000001800400700010080B582B000AF786079
:1059E0007B681B681B6903F00203022B22D17B68D2
:1059F0001B68DB6803F00203022B1BD17B681B686A
:105A00006FF002021A617B6801221A777B681B68BB
:105A10009B6903F00303002B03D0786800F01AFAA7
:105A200005E0786800F00CFA786800F01DFA7B68F1
:105A300000221A777B681B681B6903F00403042BA0
:105A400022D17B681B68DB6803F00403042B1BD1A5
:105A50007B681B686FF004021A617B6802221A7768
:105A60007B681B689B6903F44073002B03D0786844
:105A700000F0F0F905E0786800F0E2F9786800F0ED
:105A8000F3F97B6800221A777B681B681B6903F0B7
:105A90000803082B22D17B681B68DB6803F008032E
:105AA000082B1BD17B681B686FF008021A617B68AA
:105AB00004221A777B681B68DB6903F00303002B61
:105AC00003D0786800F0C6F905E0786800F0B8F90E
:105AD000786800F0C9F97B6800221A777B681B6838
