:020000040800F2
:10000000000008208D160008E9140008EF1400080D
:10001000F5140008FB14000801150008000000009A
:10002000000000000000000000000000F18900084E
:100030000715000800000000018C0008698C00080A
:10004000DD160008DD160008DD160008DD160008C4
:10005000DD160008DD160008DD160008DD160008B4
:10006000DD160008DD160008DD160008DD160008A4
:10007000DD160008DD160008DD160008DD16000894
:10008000DD160008DD160008DD160008DD16000884
:10009000DD160008DD160008DD160008DD16000874
:1000A000DD16000815150008DD160008DD1600082D
:1000B000DD160008DD160008DD160008DD16000854
:1000C000DD160008DD160008DD160008DD16000844
:1000D000DD160008DD160008DD160008DD16000834
:1000E00035150008DD160008DD160008DD160008CD
:1000F000DD160008DD160008DD160008DD16000814
:10010000DD160008DD160008DD160008DD16000803
:10011000DD160008DD16000845150008DD1600088C
:10012000DD160008DD160008DD160008DD160008E3
:10013000DD160008DD160008DD160008DD160008D3
:10014000DD160008DD160008DD160008DD160008C3
:10015000DD160008DD160008DD160008DD160008B3
:10016000DD160008DD160008DD160008DD160008A3
:10017000DD160008DD160008DD160008000000008E
:10018000DD160008DD160008DD160008DD16000883
:10019000DD160008DD160008DD160008DD16000873
:1001A000DD160008DD160008DD160008DD16000863
:1001B000DD160008DD160008DD160008DD16000853
:1001C000DD160008DD16000800000000DD1600083E
:1001D000DD160008DD160008DD160008DD16000833
:1001E000DD160008DD160008DD160008DD16000823
:0801F000DD160008DD16000811
:1002000010B5054C237833B9044B13B10448AFF350
:1002100000800123237010BD740000200000000046
:10022000789D000808B5034B1BB103490348AFF3A1
:10023000008008BD0000000078000020789D0008C4
:10024000034613F8012B002AFBD1181A0138704716
:1002500053B94AB9002908BF00281CBF4FF0FF312D
:100260004FF0FF3000F074B9ADF1080C6DE904CE29
:1002700000F006F8DDF804E0DDE9022304B0704781
:100280002DE9F047089D04468E46002B4DD18A4249
:10029000944669D9B2FA82F252B101FA02F3C2F17C
:1002A000200120FA01F10CFA02FC41EA030E94400D
:1002B0004FEA1C48210CBEFBF8F61FFA8CF708FB2E
:1002C00016E341EA034306FB07F199420AD91CEB06
:1002D000030306F1FF3080F01F81994240F21C8138
:1002E000023E63445B1AA4B2B3FBF8F008FB103380
:1002F00044EA034400FB07F7A7420AD91CEB0404B5
:1003000000F1FF3380F00A81A74240F20781644484
:10031000023840EA0640E41B00261DB1D440002309
:10032000C5E900433146BDE8F0878B4209D9002D6D
:1003300000F0EF800026C5E9000130463146BDE8F7
:10034000F087B3FA83F6002E4AD18B4202D3824261
:1003500000F2F980841A61EB030301209E46002D10
:10036000E0D0C5E9004EDDE702B9FFDEB2FA82F265
:10037000002A40F09280A1EB0C014FEA1C471FFAC3
:100380008CFE0126200CB1FBF7F307FB131140EAAA
:1003900001410EFB03F0884208D91CEB010103F177
:1003A000FF3802D2884200F2CB804346091AA4B239
:1003B000B1FBF7F007FB101144EA01440EFB00FE0D
:1003C000A64508D91CEB040400F1FF3102D2A64572
:1003D00000F2BB800846A4EB0E0440EA03409CE711
:1003E000C6F12007B34022FA07FC4CEA030C20FABE
:1003F00007F401FA06F31C43F9404FEA1C4900FADE
:1004000006F3B1FBF9F8200C1FFA8CFE09FB18115A
:1004100040EA014108FB0EF0884202FA06F20BD9CD
:100420001CEB010108F1FF3A80F08880884240F21D
:100430008580A8F102086144091AA4B2B1FBF9F061
:1004400009FB101144EA014100FB0EFE8E4508D95C
:100450001CEB010100F1FF346CD28E456AD90238E1
:10046000614440EA0840A0FB0294A1EB0E01A142C6
:10047000C846A64656D353D05DB1B3EB080261EB34
:100480000E0101FA07F722FA06F3F1401F43C5E90E
:10049000007100263146BDE8F087C2F12003D84044
:1004A0000CFA02FC21FA03F3914001434FEA1C4786
:1004B0001FFA8CFEB3FBF7F007FB10360B0C43EA78
:1004C000064300FB0EF69E4204FA02F408D91CEB28
:1004D000030300F1FF382FD29E422DD90238634426
:1004E0009B1B89B2B3FBF7F607FB163341EA0341C6
:1004F00006FB0EF38B4208D91CEB010106F1FF3815
:1005000016D28B4214D9023E6144C91A46EA00460B
:1005100038E72E46284605E70646E3E61846F8E69D
:100520004B45A9D2B9EB020864EB0C0E0138A3E7E6
:100530004646EAE7204694E74046D1E7D0467BE7C7
:10054000023B614432E7304609E76444023842E73F
:10055000704700BF80B483B000AF78604FF0604355
:10056000D3F8803E03F00103002B13D04FF060431B
:10057000D3F8003E03F00103002B0BD000E000BFD6
:100580004FF060431B68002BF9D04FF060437A684E
:10059000D2B21A707B6818460C37BD465DF8047BF2
:1005A0007047000080B582B002AF01F098F800F00B
:1005B000B3F800F09DFA00F06DFA00F023F900F0B6
:1005C000EBF900F073F900F0C3F900F033FA3248A8
:1005D00001F01AF9314801F017F90021304803F011
:1005E000F9FA05F075F92F4A7A21102005F0CEFBB3
:1005F00003462D4A13602D4A00212D4805F0D2F9FB
:1006000003462C4A13602C4A00212C4805F0CAF9F5
:1006100003462B4A13602B4A00212B4805F0C2F9F0
:1006200003462A4A13602A4A00212A4805F0BAF9EB
:100630000346294A1360294A0021294805F0B2F9E6
:100640000346284A1360284A0021284805F0AAF9E1
:100650000346274A1360274A0021274805F0A2F9DC
:100660000346264A1360002005F070FA0346244A28
:100670001360244B01930823009300238022224916
:10068000224806F00AFE224805F060FA0346214A95
:10069000136005F051F9FEE790000020D80000201B
:1006A0006C01002008A00008241700200C9F0008FF
:1006B000390D000848070020309F0008690D000828
:1006C0004C070020549F0008910D0008500700209F
:1006D000789F0008D10D0008140A00209C9F000894
:1006E000790E0008D80C0020C09F0008050F0008F4
:1006F0009C0F0020E49F0008350F000860120020C6
:10070000441F0020401F00200C9E0008490D0008D7
:1007100020A00008181F002080B594B000AF07F19A
:100720001C0334220021184608F063FE07F1080379
:1007300000221A605A609A60DA601A6101F0CAFFFA
:100740002E4B1B6C2D4A43F0805313642B4B1B6CB8
:1007500003F080537B607B68294B1B6823F4404384
:10076000274A43F480431360254B1B6803F440433E
:100770003B603B680323FB614FF480333B62012302
:10078000BB621023FB6202237B634FF48003BB63D5
:100790001923FB63C0233B6402237B640423BB64F3
:1007A0000223FB6407F11C03184601F0F3FF034624
:1007B000002B01D000F036FC01F09CFF0346002B1B
:1007C00001D000F02FFC0F23BB600223FB6000234D
:1007D0003B614FF480537B610023BB6107F1080349
:1007E0000321184602F084FA0346002B01D000F0E2
:1007F00019FC00BF5037BD4680BD00BF0038024025
:100800000070004080B584B000AF3B4600221A6003
:100810005A609A60DA60224B224A1A60204B4FF4E9
:1008200080325A601E4B4FF080729A601C4B00223F
:100830001A611B4B01229A61194B002283F8202078
:10084000174B0022DA62164B174A9A62144B0022A9
:10085000DA60134B0122DA61114B002283F8302059
:100860000F4B00225A610E4800F08AFF0346002B0E
:1008700001D000F0D7FB03233B6001237B60002302
:10088000BB603B461946064801F09AF80346002B28
:1008900001D000F0C7FB00BF1037BD4680BD00BFD0
:1008A00090000020002001400100000F80B584B0BE
:1008B00000AF3B4600221A605A609A60DA60214B12
:1008C000214A1A601F4B4FF480325A601D4B0022A0
:1008D0009A601C4B00221A611A4B01229A61194B33
:1008E000002283F82020174B0022DA62154B174AAA
:1008F0009A62144B0022DA60124B0122DA61114B2A
:10090000002283F830200F4B00225A610D4800F07E
:1009100037FF0346002B01D000F084FB0A233B6025
:1009200001237B600023BB603B461946054801F06C
:1009300047F80346002B01D000F074FB00BF1037CE
:10094000BD4680BDD8000020002101400100000FFD
:1009500080B500AF0E4B0F4A1A600D4B00225A6053
:100960000B4B00229A600A4B4FF46F72DA60084B0F
:1009700000221A61064B00229A61054802F0F8FF36
:100980000346002B01D000F04DFB00BF80BD00BF2F
:10099000200100200044014080B588B000AF3B1D1D
:1009A00000221A605A609A60DA601A615A619A618C
:1009B0001E4B1F4A1A601D4B00225A601B4B00221F
:1009C0009A601A4B40F2FF32DA60184B00221A612B
:1009D000164B00229A61154802F0CAFF0346002B0D
:1009E00001D000F01FFB114803F092F80346002BE2
:1009F00001D000F017FB60237B600023BB60002365
:100A0000FB6000237B613B1D00221946074803F071
:100A1000FBFA0346002B01D000F004FB034800F072
:100A2000D7FB00BF2037BD4680BD00BF6C01002052
:100A3000001C004080B500AF144B154A1A60134BE0
:100A40004FF4E1325A60114B00229A600F4B0022A2
:100A5000DA600E4B00221A610C4B0C225A610B4BD0
:100A600000229A61094B0022DA61084B00221A62C7
:100A7000064B00225A62054803F043FF0346002B51
:100A800001D000F0CFFA00BF80BD00BFB801002048
:100A90000048004080B500AF144B4FF0A0421A60F0
:100AA000124B06225A60114B0222DA600F4B0022D1
:100AB0001A610E4B02229A610C4B0122DA610B4B38
:100AC00000221A62094B00225A62084B0122DA62A4
:100AD000064B00221A63054801F0B4FC0346002BC4
:100AE00001D000F09FFA00BF80BD00BF400200208F
:100AF00080B58CB000AF07F11C0300221A605A6069
:100B00009A60DA601A614B4B1B6B4A4A43F004034C
:100B10001363484B1B6B03F00403BB61BB69454B7C
:100B20001B6B444A43F080031363424B1B6B03F07F
:100B300080037B617B693F4B1B6B3E4A43F00103A3
:100B400013633C4B1B6B03F001033B613B69394B67
:100B50001B6B384A43F002031363364B1B6B03F0E5
:100B60000203FB60FB68334B1B6B324A43F0080304
:100B70001363304B1B6B03F00803BB60BB682D4B4A
:100B80001B6B2C4A43F0400313632A4B1B6B03F08F
:100B900040037B607B68002244F28101264801F01B
:100BA00005FC00224021254801F000FC4FF40053D1
:100BB000FB614FF404133B6200237B6207F11C03CB
:100BC00019461F4801F02EFA44F28103FB6101230C
:100BD0003B6200237B620023BB6207F11C031946C2
:100BE000154801F01FFA4023FB6101233B620023FB
:100BF0007B620023BB6207F11C0319460F4801F01A
:100C000011FA8023FB6100233B6200237B6207F122
:100C10001C031946094801F005FA00220521282085
:100C200001F0D6F9282001F0EFF900BF3037BD46BA
:100C300080BD00BF0038024000040240001802409E
:100C40000008024080B500AF034B00221A60034841
:100C500002F0E6FE00BF80BD3C1F00202001002006
:100C600080B400AF034B1B681846BD465DF8047B9B
:100C7000704700BF3C1F002080B586B000AFF86011
:100C8000B9607A6000237B6109E0BB685A1CBA60D6
:100C90001B781846FFF75EFC7B6901337B617A693C
:100CA0007B689A42F1DB7B6818461837BD4680BDE9
:100CB00080B582B000AF0346FB80FB88B3F5005FD0
:100CC0000AD14FF48041064801F089FB054B1B68AF
:100CD0005121184604F08CFF00BF0837BD4680BD87
:100CE00000040240441F002080B483B000AF0346DC
:100CF000FB80FB88054AA2FB0323DB089BB2184656
:100D00000C37BD465DF8047B704700BFCDCCCCCC22
:100D100080B582B000AF78607868FFF791FA03463B
:100D20009AB201237968034803F039FE00BF0837FF
:100D3000BD4680BDB801002080B582B000AF7860AC
:100D4000012004F0D5FEFBE780B582B000AF7860EB
:100D50008021044801F043FB4FF4FA7006F0FEFBDB
:100D6000F6E700BF0004024080B582B000AF7860B3
:100D70000121054801F033FB044808F045FC4FF41D
:100D80007A7004F0B5FEF3E700040240189E0008F4
:100D900080B5A2B000AF78600B4800F003FE0346B8
:100DA000A7F88630B7F88630A7F88430074B186864
:100DB00007F10C014FF0FF33002205F06DF86420BD
:100DC00004F096FEE8E700BF900000202417002002
:100DD000B0B5A2B000AF7860234800F0E3FD034651
:100DE0009BB21A4640F6E44302FB03F31F4A82FB20
:100DF00003121A44D212DB17D31AA7F88630B7F8B9
:100E000086301846FFF770FF0346A7F88430B7F81E
:100E1000843007F108010A22184608F0D7FA07F1D2
:100E200008031846FFF70CFA03461A4607F10803B1
:100E300013440F4A1D4614460FCC28606960AA600F
:100E4000EB6003CC2861696123882B83094B186808
:100E500007F108014FF0FF33002205F01DF8642070
:100E600004F046FEB8E700BFD800002081000880EB
:100E7000249E000824170020B0B5A2B000AF78600F
:100E80001D4B186807F10C014FF0FF33002205F0ED
:100E900077F8B7F88420194B1B685A63B7F8843089
:100EA000184607F10C030A22194608F08FFA07F1D9
:100EB0000C031846FFF7C4F903461A4607F10C0362
:100EC00013440F4A1D4614460FCC28606960AA607F
:100ED000EB6003CC2861696123882B83064B18687B
:100EE00007F10C014FF0FF33002204F0D5FF64201E
:100EF00004F0FEFDC4E700BF241700206C010020B1
:100F0000409E000880B5A2B000AF7860084B18681A
:100F100007F10C014FF0FF33002205F031F807F123
:100F20000C031846FFF7F4FE012004F0E1FDEDE7A5
:100F30002417002080B5A4B000AF78602A4BC7F812
:100F40008C302A4BC7F88830294BC7F88430294B9E
:100F500018684FF0FF330122512104F0A1FE4FF435
:100F60008041254801F00AFA034687F8833097F854
:100F70008330002B12D0012B21D107F10803D7F8C1
:100F80008C10184608F005FC1C4B186807F1080186
:100F90004FF0FF33002204F07FFF21E007F1080348
:100FA000D7F88810184608F0F4FB144B186807F1BE
:100FB00008014FF0FF33002204F06EFF10E007F14C
:100FC0000803D7F88410184608F0E3FB0B4B1868A9
:100FD00007F108014FF0FF33002204F05DFF00BF6E
:100FE0000A2004F085FDB2E75C9E0008809E0008A0
:100FF000A49E0008441F0020000402402417002083
:1010000080B582B000AF78607B681B68044A934269
:1010100001D100F071FB00BF0837BD4680BD00BFA5
:101020000010004080B400AF72B600BFFEE70000C1
:1010300080B582B000AF114B1B6C104A43F0805357
:1010400013640E4B1B6C03F080537B607B680B4B6F
:101050005B6C0A4A43F480435364084B5B6C03F4B3
:1010600080433B603B6800220F216FF0010000F0DD
:10107000AFFF00BF0837BD4680BD00BF003802404B
:1010800080B58CB000AF786007F11C0300221A60B5
:101090005A609A60DA601A617B681B682A4A934238
:1010A00024D12A4B5B6C294A43F480735364274B49
:1010B0005B6C03F48073BB61BB69244B1B6B234ADD
:1010C00043F001031363214B1B6B03F001037B61AE
:1010D0007B690823FB6103233B6200237B6207F1EA
:1010E0001C0319461A4800F09DFF28E07B681B6826
:1010F000184A934223D1154B5B6C144A43F4007396
:101100005364124B5B6C03F400733B613B690F4B00
:101110001B6B0E4A43F0040313630C4B1B6B03F071
:101120000403FB60FB680123FB6103233B62002394
:101130007B6207F11C031946074800F073FF00BFEC
:101140003037BD4680BD00BF00200140003802405E
:1011500000000240002101400008024080B584B038
:1011600000AF78607B681B68164A934214D1164B17
:101170005B6C154A43F400335364134B5B6C03F40C
:101180000033FB60FB6800220521192000F020FFDE
:10119000192000F039FF10E07B681B680B4A93426E
:1011A0000BD1094B1B6C084A43F080031364064BB8
:1011B0001B6C03F08003BB60BB6800BF1037BD46EB
:1011C00080BD00BF0044014000380240001C0040C8
:1011D00080B588B000AF786007F10C0300221A6078
:1011E0005A609A60DA601A617B681B68114A934200
:1011F0001BD1114B1B6B104A43F0010313630E4BC1
:101200001B6B03F00103BB60BB684023FB60022340
:101210003B6100237B610023BB610923FB6107F174
:101220000C031946054800F0FDFE00BF2037BD46FF
:1012300080BD00BF001C004000380240000002409A
:1012400080B5AEB000AF786007F1A40300221A6049
:101250005A609A60DA601A6107F114039022002143
:10126000184608F0C6F87B681B68224A93423CD1B6
:101270004FF480737B6120233B6607F1140318460B
:1012800001F04EFF0346002B01D0FFF7CBFE1A4BB7
:101290001B6C194A43F480231364174B1B6C03F433
:1012A00080233B613B69144B1B6B134A43F00803DB
:1012B0001363114B1B6B03F00803FB60FB684FF4D7
:1012C0004073C7F8A4300223C7F8A8300023C7F83A
:1012D000AC300323C7F8B0300723C7F8B43007F1A8
:1012E000A4031946054800F09DFE00BFB837BD466F
:1012F00080BD00BF0048004000380240000C0240A2
:1013000080B5AEB000AF786007F1A40300221A6088
:101310005A609A60DA601A6107F114039022002182
:10132000184608F066F87B681B68B3F1A04F59D1E6
:101330004FF400137B610023C7F8903007F11403CA
:10134000184601F0EDFE0346002B01D0FFF76AFEC0
:10135000264B1B6B254A43F001031363234B1B6B86
:1013600003F001033B613B694FF4C853C7F8A43055
:101370000223C7F8A8300023C7F8AC300323C7F80E
:10138000B0300A23C7F8B43007F1A403194618484F
:1013900000F048FE4FF40073C7F8A4300023C7F8EC
:1013A000A8300023C7F8AC3007F1A4031946104851
:1013B00000F038FE0D4B5B6B0C4A43F08003536327
:1013C0000A4B5B6B03F08003FB60FB68074B5B6CB5
:1013D000064A43F480435364044B5B6C03F480433C
:1013E000BB60BB6800BFB837BD4680BD0038024057
:1013F0000000024080B58EB000AF78600023FB6231
:101400000023BB62334B1B6C324A43F0100313645E
:10141000304B1B6C03F01003FB60FB6807F11002FC
:1014200007F114031146184601F048FE3B6AFB62BF
:10143000FB6A002B03D101F019FE786304E001F090
:1014400015FE03465B007B637B6B234AA2FB0323F1
:101450009B0C013BBB62214B214A1A601F4B40F29F
:10146000E732DA601D4ABB6A53601C4B00221A61E6
:101470001A4B00229A60194B00229A61174802F019
:1014800077FA034687F8333097F83330002B1BD1B7
:10149000124802F0C5FA034687F8333097F8333024
:1014A000002B11D1362000F0AFFD7B680F2B08D840
:1014B00000227968362000F08BFD0A4A7B681360B1
:1014C00002E0012387F8333097F833301846383775
:1014D000BD4680BD0038024083DE1B43481F00200C
:1014E000001000400400002080B400AFFEE780B48C
:1014F00000AFFEE780B400AFFEE780B400AFFEE7C8
:1015000080B400AFFEE780B400AF00BFBD465DF819
:10151000047B704780B500AF044B1B680133034A5E
:101520001360034802F050FC00BF80BD3C1F002048
:101530002001002080B500AF4FF4005000F06AFF9A
:1015400000BF80BD80B500AF024802F03DFC00BF87
:1015500080BD00BF481F002080B586B000AFF86096
:10156000B9607A6000237B610AE0AFF30080014636
:10157000BB685A1CBA60CAB21A707B6901337B61BE
:101580007A697B689A42F0DB7B6818461837BD465B
:1015900080BD80B483B000AF78604FF0FF33184651
:1015A0000C37BD465DF8047B704780B483B000AF54
:1015B000786039603B684FF400525A600023184647
:1015C0000C37BD465DF8047B704780B483B000AF34
:1015D0007860012318460C37BD465DF8047B7047E0
:1015E00080B485B000AFF860B9607A600023184617
:1015F0001437BD465DF8047B7047000080B586B0A7
:1016000000AF7860144A154BD31A7B617B693B614C
:10161000134B1B68002B02D1114B124A1A60104B5E
:101620001A687B6813443A699A4207D207F096FD1C
:1016300003460C221A604FF0FF3309E0084B1B6889
:10164000FB60074B1A687B681344054A1360FB680C
:1016500018461837BD4680BD000008200004000071
:10166000941F0020C869002080B400AF064BD3F857
:101670008830054A43F47003C2F8883000BFBD4685
:101680005DF8047B704700BF00ED00E0DFF834D068
:101690000D480E490E4A002302E0D458C4500433CA
:1016A000C4188C42F9D30B4A0B4C002301E01360A1
:1016B0000432A242FBD3FFF7D7FF07F04BFEFEF741
:1016C00071FF704700000820000000207400002017
:1016D000E4A0000874000020C4690020FEE780B583
:1016E00000AF032000F069FC0F20FFF783FEFFF737
:1016F0009FFC0023184680BD80B400AF064B1B78CA
:101700001A46064B1B681344044A136000BFBD46CB
:101710005DF8047B704700BF08000020981F002080
:1017200080B400AF034B1B681846BD465DF8047BD0
:10173000704700BF981F002080B584B000AF78606C
:10174000FFF7EEFFB8607B68FB60FB68B3F1FF3F1B
:1017500005D00A4B1B781A46FB681344FB6000BF98
:10176000FFF7DEFF0246BB68D31AFA689A42F7D841
:1017700000BF00BF1037BD4680BD00BF080000207D
:1017800080B584B000AF78600023FB737B68002BCA
:1017900001D1012331E07B681B6C002B09D17868F3
:1017A000FFF76EFC7B6800225A647B68002283F896
:1017B0003C207B681B6C03F01003002B16D17B6868
:1017C0001A6C104B134043F002027B681A6478686D
:1017D00000F04CFA7B6800225A647B681B6C23F093
:1017E000030343F001027B681A6401E00123FB73E9
:1017F0007B68002283F83C20FB7B18461037BD46EF
:1018000080BD00BFFDEEFFFF80B485B000AF786003
:101810000023FB607B6893F83C30012B01D102234D
:10182000ADE07B68012283F83C207B681B689B68E5
:1018300003F00103012B18D07B681B689A687B6852
:101840001B6842F001029A60504B1B68504AA2FB91
:1018500003239A0C13465B001344FB6002E0FB6811
:10186000013BFB60FB68002BF9D17B681B689B6820
:1018700003F00103012B75D17B681A6C454B1340B3
:1018800043F480727B681A647B681B685B6803F4AE
:101890008063002B07D07B681B6C23F4405343F418
:1018A00080527B681A647B681B6C03F48053B3F529
:1018B000805F06D17B685B6C23F006027B685A640C
:1018C00002E07B6800225A647B68002283F83C2097
:1018D0007B681B686FF022021A602F4B5B6803F075
:1018E0001F03002B0FD17B681B689B6803F04053DC
:1018F000002B43D17B681B689A687B681B6842F0A9
:1019000080429A603AE07B681B68244A93420ED179
:101910007B681B689B6803F04053002B07D17B68F2
:101920001B689A687B681B6842F080429A601A4B79
:101930005B6803F01003002B20D17B681B68184AFA
:1019400093421BD17B681B689B6803F04053002BBC
:1019500014D17B681B689A687B681B6842F08042E0
:101960009A600BE07B681B6C43F010027B681A6482
:101970007B685B6C43F001027B685A640023184665
:101980001437BD465DF8047B704700BF000000209F
:1019900083DE1B43FEF8FFFF0023014000200140CF
:1019A0000022014080B483B000AF78607B681B6880
:1019B000DB6C18460C37BD465DF8047B70470000B1
:1019C00080B485B000AF786039600023FB607B682D
:1019D00093F83C30012B01D1022336E17B680122D0
:1019E00083F83C203B681B68092B3AD93B681B688D
:1019F000B3F1004F35D07B681B68D9683B681B6822
:101A00009BB21A4613465B0013441E3B072202FAA0
:101A100003F3DA437B681B680A40DA603B681B68A3
:101A20008D4A93420AD17B681B68D9683B689B68E2
:101A30001A067B681B680A43DA6035E07B681B681E
:101A4000D9683B689A683B681B689BB21846034696
:101A50005B0003441E3B9A407B681B680A43DA60C4
:101A600022E07B681B6819693B681B689BB21A46B9
:101A700013465B001344072202FA03F3DA437B6840
:101A80001B680A401A617B681B6819693B689A6881
:101A90003B681B689BB2184603465B0003449A40B0
:101AA0007B681B680A431A613B685B68062B24D875
:101AB0007B681B68596B3B685A6813469B0013444C
:101AC000053B1F2202FA03F3DA437B681B680A40D6
:101AD0005A637B681B68596B3B681B689BB218464E
:101AE0003B685A6813469B001344053B00FA03F217
:101AF0007B681B680A435A634CE03B685B680C2BAD
:101B000024D87B681B68196B3B685A6813469B0096
:101B10001344233B1F2202FA03F3DA437B681B685A
:101B20000A401A637B681B68196B3B681B689BB291
:101B300018463B685A6813469B001344233B00FA3F
:101B400003F27B681B680A431A6323E07B681B6807
:101B5000D96A3B685A6813469B001344413B1F22D5
:101B600002FA03F3DA437B681B680A40DA627B6897
:101B70001B68D96A3B681B689BB218463B685A6869
:101B800013469B001344413B00FA03F27B681B6839
:101B90000A43DA627B681B68304A93420AD13B6889
:101BA0001B68B3F1004F05D12D4B5B682C4A23F421
:101BB000400353607B681B68284A93420FD13B68FF
:101BC0001B68122B0BD1264B5B68254A23F40003BC
:101BD0005360234B5B68224A43F4800353607B6865
:101BE0001B681E4A93422BD13B681B681A4A9342DA
:101BF00003D03B681B68112B22D1194B5B68184A34
:101C000023F480035360164B5B68154A43F40003CA
:101C100053603B681B68104A934211D1114B1B68FB
:101C2000114AA2FB03239A0C13469B0013445B004A
:101C3000FB6002E0FB68013BFB60FB68002BF9D115
:101C40007B68002283F83C20002318461437BD46E9
:101C50005DF8047B704700BF1200001000200140B7
:101C6000002301400000002083DE1B4380B483B0CA
:101C700000AF7860784B5B68774A23F44033536059
:101C8000754B5A687B685B68734913434B607B688C
:101C90001B685A687B681B6822F480725A607B68F4
:101CA0001B6859687B681B691A027B681B680A43BA
:101CB0005A607B681B685A687B681B6822F0407218
:101CC0005A607B681B6859687B689A687B681B68E8
:101CD0000A435A607B681B689A687B681B6822F419
:101CE00000629A607B681B6899687B68DA687B6829
:101CF0001B680A439A607B689B6A584A934222D0C9
:101D00007B681B689A687B681B6822F070629A6027
:101D10007B681B6899687B689A6A7B681B680A43C2
:101D20009A607B681B689A687B681B6822F0405247
:101D30009A607B681B6899687B68DA6A7B681B68B5
:101D40000A439A600FE07B681B689A687B681B688F
:101D500022F070629A607B681B689A687B681B68D7
:101D600022F040529A607B681B689A687B681B6807
:101D700022F002029A607B681B6899687B689B6905
:101D80005A007B681B680A439A607B6893F820308E
:101D9000002B1BD07B681B685A687B681B6842F469
:101DA00000625A607B681B685A687B681B6822F473
:101DB00060425A607B681B6859687B685B6A013BBC
:101DC0005A037B681B680A435A6007E07B681B68FC
:101DD0005A687B681B6822F400625A607B681B6843
:101DE000DA6A7B681B6822F47002DA627B681B681F
:101DF000D96A7B68DB69013B1A057B681B680A436B
:101E0000DA627B681B689A687B681B6822F4007240
:101E10009A607B681B6899687B6893F830305A0237
:101E20007B681B680A439A607B681B689A687B68BA
:101E30001B6822F480629A607B681B6899687B68E3
:101E40005B699A027B681B680A439A6000BF0C3783
:101E5000BD465DF8047B7047002301400100000F80
:101E600080B485B000AF78607B6803F00703FB6047
:101E70000B4BDB68BB60BA684FF6FF031340BB60D7
:101E8000FB681A02BB681A43064B1343BB60044A43
:101E9000BB68D36000BF1437BD465DF8047B704754
:101EA00000ED00E00000FA0580B400AF044BDB68F1
:101EB0001B0A03F007031846BD465DF8047B704714
:101EC00000ED00E080B483B000AF0346FB7197F9EA
:101ED0000730002B0BDBFB7903F01F02074997F952
:101EE00007305B09012000FA02F241F8232000BF0D
:101EF0000C37BD465DF8047B704700BF00E100E091
:101F000080B483B000AF03463960FB7197F90730A6
:101F1000002B0ADB3B68DAB20C4997F90730120153
:101F2000D2B20B4483F800230AE03B68DAB20849D6
:101F3000FB7903F00F03043B1201D2B20B441A7673
:101F400000BF0C37BD465DF8047B704700E100E040
:101F500000ED00E080B489B000AFF860B9607A604D
:101F6000FB6803F00703FB61FB69C3F10703042B64
:101F700028BF0423BB61FB690433062B02D9FB692C
:101F8000033B00E000237B614FF0FF32BB6902FAA4
:101F900003F3DA43BB681A407B699A404FF0FF3184
:101FA0007B6901FA03F3D9437B680B40134318465E
:101FB0002437BD465DF8047B704780B582B000AF22
:101FC00078607868FFF74CFF00BF0837BD4680BDDA
:101FD00080B586B000AF0346B9607A60FB7300231A
:101FE0007B61FFF761FF78617A68B9687869FFF70C
:101FF000B1FF024697F90F3011461846FFF780FFF0
:1020000000BF1837BD4680BD80B582B000AF034623
:10201000FB7197F907301846FFF754FF00BF0837E8
:10202000BD4680BD80B489B000AF786039600023C0
:10203000FB6100237B6100233B610023BB61002324
:10204000FB6175E10122FB6902FA03F37B613B68E6
:102050001B687A6913403B613A697B699A4240F098
:1020600064813B685B6803F00303012B05D03B6888
:102070005B6803F00303022B30D17B689B68BB6174
:10208000FB695B00032202FA03F3DB43BA691340E6
:10209000BB613B68DA68FB695B0002FA03F3BA696B
:1020A0001343BB617B68BA699A607B685B68BB61FC
:1020B0000122FB6902FA03F3DB43BA691340BB61F7
:1020C0003B685B681B0903F00102FB6902FA03F33A
:1020D000BA691343BB617B68BA695A603B685B6845
:1020E00003F00303032B17D07B68DB68BB61FB693C
:1020F0005B00032202FA03F3DB43BA691340BB61BE
:102100003B689A68FB695B0002FA03F3BA69134300
:10211000BB617B68BA69DA603B685B6803F0030304
:10212000022B23D1FB69DA087B68083253F822308E
:10213000BB61FB6903F007039B000F2202FA03F364
:10214000DB43BA691340BB613B681A69FB6903F062
:1021500007039B0002FA03F3BA691343BB61FB69EF
:10216000DA087B680832B96943F822107B681B687B
:10217000BB61FB695B00032202FA03F3DB43BA692C
:102180001340BB613B685B6803F00302FB695B00C3
:1021900002FA03F3BA691343BB617B68BA691A6038
:1021A0003B685B6803F44033002B00F0BE80664B55
:1021B0005B6C654A43F480435364634B5B6C03F48C
:1021C0008043FB60FB68614AFB699B08023352F85D
:1021D0002330BB61FB6903F003039B000F2202FA6B
:1021E00003F3DB43BA691340BB617B68584A9342EF
:1021F00037D07B68574A934231D07B68564A934226
:102200002BD07B68554A934225D07B68544A934231
:102210001FD07B68534A934219D07B68524A93423D
:1022200013D07B68514A93420DD07B68504A934249
:1022300007D07B684F4A934201D1092312E00A2359
:1022400010E008230EE007230CE006230AE0052334
:1022500008E0042306E0032304E0022302E0012354
:1022600000E00023FA6902F0030292009340BA6989
:102270001343BB613549FB699B080233BA6941F8D6
:1022800023203D4B9B68BB613B69DB43BA6913402C
:10229000BB613B685B6803F48013002B03D0BA6911
:1022A0003B691343BB61344ABB699360324BDB68C3
:1022B000BB613B69DB43BA691340BB613B685B6848
:1022C00003F40013002B03D0BA693B691343BB61CD
:1022D000294ABB69D360284B5B68BB613B69DB4320
:1022E000BA691340BB613B685B6803F40033002BA1
:1022F00003D0BA693B691343BB611F4ABB69536092
:102300001D4B1B68BB613B69DB43BA691340BB6172
:102310003B685B6803F48033002B03D0BA693B69E8
:102320001343BB61144ABB691360FB690133FB6152
:10233000FB690F2B7FF686AE00BF00BF2437BD467A
:102340005DF8047B704700BF003802400038014050
:10235000000002400004024000080240000C02405D
:10236000001002400014024000180240001C02400D
:102370000020024000240240003C014080B485B0AF
:1023800000AF78600B467B807B681A697B881340BE
:10239000002B02D00123FB7301E00023FB73FB7BC6
:1023A00018461437BD465DF8047B704780B483B08F
:1023B00000AF78600B467B8013467B707B78002BE8
:1023C00003D07A887B689A6103E07B881A047B6873
:1023D0009A6100BF0C37BD465DF8047B704780B43E
:1023E00085B000AF78600B467B807B685B69FB60E3
:1023F0007A88FB6813401A04FB68D9437B880B403A
:102400001A437B689A6100BF1437BD465DF8047BB0
:102410007047000080B582B000AF0346FB80084BD8
:102420005A69FB881340002B06D0054AFB8853618C
:10243000FB881846FEF73CFC00BF0837BD4680BD50
:10244000003C0140F0B58FB00AAF78607B68002B8C
:1024500001D1012316E17B681B68BB607B6893F8A0
:10246000BD34DBB2002B06D17B68002283F8BC248C
:102470007868FEF745FF7B68032283F8BD24BB68BC
:10248000DB6B03F48073002B02D17B6800221A619E
:102490007B681B68184602F077FF7B681B683B600F
:1024A0007E686D4606F110040FCC0FC50FCC0FC52A
:1024B00094E8030085E80300331D0ECB386802F072
:1024C0000BFF0346002B05D07B68022283F8BD2456
:1024D0000123D7E07B681B680021184602F065FFE6
:1024E0000023FB734AE0FA7B79681346DB00134450
:1024F0009B000B443D3301221A70FA7B7968134626
:10250000DB0013449B000B443C33FA7B1A70FA7BCC
:10251000FB7B98B279681346DB0013449B000B44A5
:10252000443302461A80FA7B79681346DB00134471
:102530009B000B44403300221A70FA7B79681346E3
:10254000DB0013449B000B44483300221A60FA7BE3
:1025500079681346DB0013449B000B444C33002284
:102560001A60FA7B79681346DB0013449B000B4426
:10257000543300221A60FB7B0133FB73FA7B7B68C8
:102580005B689A42AFD30023FB7344E0FA7B79681F
:102590001346DB0013449B000B4403F27D2300220F
:1025A0001A70FA7B79681346DB0013449B000B44D6
:1025B00003F51F73FA7B1A70FA7B79681346DB0008
:1025C00013449B000B4403F5207300221A70FA7B1E
:1025D00079681346DB0013449B000B4403F5227318
:1025E00000221A60FA7B79681346DB0013449B00D3
:1025F0000B4403F5237300221A60FA7B79681346B3
:10260000DB0013449B000B4403F5257300221A6082
:10261000FB7B0133FB73FA7B7B685B689A42B5D323
:102620007B681B683B607E686D4606F110040FCC2A
:102630000FC50FCC0FC594E8030085E80300331DD8
:102640000ECB386802F0FEFE0346002B05D07B68F7
:10265000022283F8BD24012314E07B68002283F862
:1026600038207B68012283F8BD247B685B6A012BDC
:1026700002D1786800F00AF87B681B68184603F0FE
:10268000BCF8002318461437BD46F0BD80B485B0B1
:1026900000AF78607B681B68FB607B680122C3F831
:1026A00000257B68002283F8F424FB689B6943F0D3
:1026B0000062FB689A61FB685A6D054B1343FA6828
:1026C0005365002318461437BD465DF8047B7047F8
:1026D0000300001080B400AF054B1B68044A43F4AC
:1026E0008073136000BFBD465DF8047B704700BF78
:1026F0000070004080B582B000AF00237B60234BA8
:102700001B6C224A43F080531364204B1B6C03F074
:1027100080533B603B681E4B1B681D4A43F480336B
:102720001360FEF7FDFF786009E0FEF7F9FF02464F
:102730007B68D31AB3F57A7F01D9032322E0144BC7
:102740005B6803F48033B3F5803FEED1104B1B6818
:102750000F4A43F400331360FEF7E2FF786009E0AC
:10276000FEF7DEFF02467B68D31AB3F57A7F01D904
:10277000032307E0064B5B6803F40033B3F5003F27
:10278000EED1002318460837BD4680BD0038024010
:102790000070004080B586B000AF78600023FB7504
:1027A0007B68002B01D101239BE27B681B6803F04F
:1027B0000103002B00F08780964B9B6803F00C030D
:1027C000042B0CD0934B9B6803F00C03082B12D105
:1027D000904B5B6803F48003B3F5800F0BD18D4BF6
:1027E0001B6803F40033002B6CD07B685B68002B04
:1027F00068D1012375E27B685B68B3F5803F06D141
:10280000844B1B68834A43F4803313602EE07B685B
:102810005B68002B0CD17F4B1B687E4A23F480330E
:1028200013607C4B1B687B4A23F4802313601DE0FC
:102830007B685B68B3F5A02F0CD1764B1B68754A9B
:1028400043F480231360734B1B68724A43F4803354
:1028500013600BE06F4B1B686E4A23F480331360E8
:102860006C4B1B686B4A23F4802313607B685B68A6
:10287000002B13D0FEF754FF386108E0FEF750FF3D
:1028800002463B69D31A642B01D9032329E2614B29
:102890001B6803F40033002BF0D014E0FEF740FF78
:1028A000386108E0FEF73CFF02463B69D31A642B0F
:1028B00001D9032315E2574B1B6803F40033002BA7
:1028C000F0D100E000BF7B681B6803F00203002B1F
:1028D00069D0504B9B6803F00C03002B0BD04D4B81
:1028E0009B6803F00C03082B1CD14A4B5B6803F474
:1028F0008003002B16D1474B1B6803F00203002B0B
:1029000005D07B68DB68012B01D00123E9E1414B55
:102910001B6823F0F8027B681B69DB003D49134309
:102920000B6040E07B68DB68002B23D0394B1B68D1
:10293000384A43F001031360FEF7F2FE386108E005
:10294000FEF7EEFE02463B69D31A022B01D90323A0
:10295000C7E1304B1B6803F00203002BF0D02D4B76
:102960001B6823F0F8027B681B69DB0029491343CD
:102970000B6018E0274B1B68264A23F00103136005
:10298000FEF7CEFE386108E0FEF7CAFE02463B695C
:10299000D31A022B01D90323A3E11E4B1B6803F0BA
:1029A0000203002BF0D17B681B6803F00803002BA7
:1029B00038D07B685B69002B19D0164B5B6F154ACA
:1029C00043F001035367FEF7ABFE386108E0FEF702
:1029D000A7FE02463B69D31A022B01D9032380E1EB
:1029E0000C4B5B6F03F00203002BF0D01AE0094B95
:1029F0005B6F084A23F001035367FEF791FE3861CD
:102A00000AE0FEF78DFE02463B69D31A022B03D97A
:102A1000032366E100380240924B5B6F03F0020330
:102A2000002BEED17B681B6803F00403002B00F041
:102A3000A4808C4B1B6C03F08053002B0DD1894B71
:102A40001B6C884A43F080531364864B1B6C03F065
:102A50008053BB60BB680123FB75834B1B6803F489
:102A60008073002B18D1804B1B687F4A43F480731E
:102A70001360FEF755FE386108E0FEF751FE02468E
:102A80003B69D31A642B01D903232AE1764B1B68D7
:102A900003F48073002BF0D07B689B68012B06D178
:102AA000704B1B6F6F4A43F0010313672DE07B6887
:102AB0009B68002B0CD16B4B1B6F6A4A23F0010300
:102AC0001367684B1B6F674A23F0040313671CE00E
:102AD0007B689B68052B0CD1624B1B6F614A43F0EE
:102AE000040313675F4B1B6F5E4A43F001031367D8
:102AF0000BE05C4B1B6F5B4A23F001031367594BE0
:102B00001B6F584A23F0040313677B689B68002BF4
:102B100015D0FEF705FE38610AE0FEF701FE024619
:102B20003B69D31A41F28832934201D90323D8E09A
:102B30004C4B1B6F03F00203002BEED014E0FEF7AA
:102B4000EFFD38610AE0FEF7EBFD02463B69D31A60
:102B500041F28832934201D90323C2E0414B1B6FFB
:102B600003F00203002BEED1FB7D012B05D13D4B81
:102B70001B6C3C4A23F0805313647B689B69002BD9
:102B800000F0AE80374B9B6803F00C03082B6DD030
:102B90007B689B69022B4BD1324B1B68314A23F077
:102BA00080731360FEF7BCFD386108E0FEF7B8FDE6
:102BB00002463B69D31A022B01D9032391E0294B2A
:102BC0001B6803F00073002BF0D17B68DA697B6827
:102BD0001B6A1A437B685B6A9B011A437B689B6A8A
:102BE0005B08013B1B041A437B68DB6A1B061A4324
:102BF0007B681B6B1B071B4913434B60194B1B68FE
:102C0000184A43F080731360FEF78AFD386108E0CC
:102C1000FEF786FD02463B69D31A022B01D9032336
:102C20005FE0104B1B6803F00073002BF0D057E0FF
:102C30000C4B1B680B4A23F080731360FEF770FD8A
:102C4000386108E0FEF76CFD02463B69D31A022B9F
:102C500001D9032345E0034B1B6803F00073002BED
:102C6000F0D13DE000380240007000401F4B5B682F
:102C7000FB607B689B69012B30D0FB6803F480020A
:102C80007B68DB699A4229D1FB6803F03F027B68CD
:102C90001B6A9A4222D1FA6847F6C07313407A68D9
:102CA000526A9201934219D1FB6803F440327B6867
:102CB0009B6A5B08013B1B049A420FD1FB6803F03F
:102CC00070627B68DB6A1B069A4207D1FB6803F0DF
:102CD000E0427B681B6B1B079A4201D0012300E096
:102CE000002318461837BD4680BD00BF003802409B
:102CF00080B584B000AF786039600023FB607B68EA
:102D0000002B01D10123D0E06A4B1B6803F00F03B5
:102D10003A689A4210D9674B1B6823F00F02654945
:102D20003B6813430B60634B1B6803F00F033A6867
:102D30009A4201D00123B8E07B681B6803F00203CC
:102D4000002B20D07B681B6803F00403002B05D008
:102D5000594B9B68584A43F4E05393607B681B6867
:102D600003F00803002B05D0534B9B68524A43F4F1
:102D700060439360504B9B6823F0F0027B689B6834
:102D80004D4913438B607B681B6803F00103002BE4
:102D900040D07B685B68012B07D1474B1B6803F46D
:102DA0000033002B15D101237FE07B685B68022B89
:102DB00007D1414B1B6803F00073002B09D101239D
:102DC00073E03D4B1B6803F00203002B01D101238C
:102DD0006BE0394B9B6823F003027B685B683649E4
:102DE00013438B60FEF79CFCF8600AE0FEF798FC4A
:102DF0000246FB68D31A41F28832934201D9032379
:102E000053E02D4B9B6803F00C027B685B689B00D2
:102E10009A42EBD1274B1B6803F00F033A689A42A2
:102E200010D2244B1B6823F00F0222493B68134346
:102E30000B60204B1B6803F00F033A689A4201D0E5
:102E4000012332E07B681B6803F00403002B08D0E9
:102E5000194B9B6823F4E0527B68DB6816491343E7
:102E60008B607B681B6803F00803002B09D0124BB2
:102E70009B6823F460427B681B69DB000E491343A7
:102E80008B6000F021F802460B4B9B681B0903F096
:102E90000F030A49CB5C22FA03F3094A1360094B7A
:102EA0001B681846FEF7A6FA002318461037BD46E1
:102EB00080BD00BF003C02400038024030A0000846
:102EC00000000020040000202DE9B04F90B000AFBA
:102ED00000237B630023FB6300233B630023BB636E
:102EE000594B9B6803F00C03082B0DD0082B00F204
:102EF000A180002B02D0042B03D09BE0534BBB637B
:102F00009BE0534BBB6398E04F4B5B6803F03F0380
:102F10007B634D4B5B6803F48003002B28D04A4B46
:102F20005B689B0900223B627A623B6AC3F308003C
:102F30000021474B03FB01F2002300FB03F3134482
:102F4000434AA0FB0212FA620A46BA62FA6A1344C2
:102F5000FB627B6B0022BB61FA61D7E90623D7E9EC
:102F60000A01FDF775F902460B461346FB6353E071
:102F7000354B5B689B0900223B617A613B69C3F377
:102F8000080A4FF0000B52465B464FF000004FF02E
:102F90000001590141EAD261500102460B46B2EBF1
:102FA0000A0863EB0B094FF000024FF000034FEAF1
:102FB000891343EA98634FEA8812B2EB080463EB83
:102FC00009054FF000024FF00003EB0043EA547391
:102FD000E20014461D4614EB0A033B6045EB0B036D
:102FE0007B604FF000024FF00003D7E9004529460F
:102FF0008B02214643EA915321468A021046194624
:103000007B6B0022BB60FA60D7E90223FDF720F951
:1030100002460B461346FB630B4B5B681B0C03F02D
:10302000030301335B003B63FA6B3B6BB2FBF3F3CF
:10303000BB6302E0054BBB6300BFBB6B1846403768
:10304000BD46BDE8B08F00BF003802400024F40048
:1030500040787D0180B400AF034B1B681846BD4625
:103060005DF8047B704700BF0000002080B500AF12
:10307000FFF7F0FF0246054B9B689B0A03F007032E
:103080000349CB5C22FA03F3184680BD00380240A6
:1030900040A0000880B500AFFFF7DCFF0246054BFB
:1030A0009B685B0B03F007030349CB5C22FA03F335
:1030B000184680BD0038024040A0000880B483B0AC
:1030C00000AF786039607B680F221A60124B9B68F2
:1030D00003F003027B685A600F4B9B6803F0F00219
:1030E0007B689A600C4B9B6803F4E0527B68DA6063
:1030F000094B9B68DB0803F4E0527B681A61074BBD
:103100001B6803F00F023B681A6000BF0C37BD4616
:103110005DF8047B704700BF00380240003C02406D
:1031200080B588B000AF786000237B6100233B61ED
:103130000023FB600023FB610023BB617B681B68ED
:1031400003F00103002B12D0694B9B68684A23F4FB
:1031500000039360664B9A687B685B6B644913431A
:103160008B607B685B6B002B01D10123FB617B686B
:103170001B6803F40023002B17D05D4BD3F88C3071
:1031800023F440127B68DB6B59491343C1F88C3040
:103190007B68DB6BB3F5801F01D10123FB617B688A
:1031A000DB6B002B01D10123BB617B681B6803F43F
:1031B0008013002B17D04E4BD3F88C3023F44002F1
:1031C0007B681B6C4A491343C1F88C307B681B6CCD
:1031D000B3F5800F01D10123FB617B681B6C002BD1
:1031E00001D10123BB617B681B6803F08073002B56
:1031F00001D00123FB617B681B6803F02003002BD7
:1032000000F08B803A4B1B6C394A43F080531364B7
:10321000374B1B6C03F08053BB60BB68354B1B689E
:10322000344A43F480731360FEF77AFA786108E059
:10323000FEF776FA02467B69D31A642B01D9032381
:103240008FE32C4B1B6803F48073002BF0D0284BCA
:103250001B6F03F440733B613B69002B35D07B68E7
:103260001B6B03F440733A699A422ED0204B1B6FBC
:1032700023F440733B611E4B1B6F1D4A43F48033A4
:1032800013671B4B1B6F1A4A23F480331367184ACA
:103290003B691367164B1B6F03F00103012B14D11D
:1032A000FEF73EFA78610AE0FEF73AFA02467B69D9
:1032B000D31A41F28832934201D9032351E30C4BD4
:1032C0001B6F03F00203002BEED07B681B6B03F433
:1032D0004073B3F5407F11D1054B9B6823F4F8127E
:1032E0007B68196B044B0B40014913438B600BE067
:1032F0000038024000700040FFFCFF0FAC4B9B68A1
:10330000AB4A23F4F8139360A94B1A6F7B681B6BCD
:10331000C3F30B03A64913430B677B681B6803F0D9
:103320001003002B10D0A24BD3F88C30A04A23F00E
:103330008073C2F88C309E4BD3F88C207B689B6BDB
:103340009B491343C1F88C307B681B6803F48043AE
:10335000002B0AD0964BD3F8903023F440327B6890
:103360005B6E93491343C1F890307B681B6803F48C
:103370000043002B0AD08E4BD3F8903023F4402228
:103380007B689B6E8A491343C1F890307B681B6849
:1033900003F48033002B0AD0854BD3F8903023F40C
:1033A00040127B68DB6E82491343C1F890307B6822
:1033B0001B6803F40033002B0AD07D4BD3F8903008
:1033C00023F440027B681B6F79491343C1F89030A6
:1033D0007B681B6803F04003002B0AD0744BD3F8C2
:1033E000903023F003027B685B6C71491343C1F892
:1033F00090307B681B6803F08003002B0AD06C4B75
:10340000D3F8903023F00C027B689B6C684913431F
:10341000C1F890307B681B6803F48073002B0AD0DE
:10342000634BD3F8903023F030027B68DB6C60494B
:103430001343C1F890307B681B6803F40073002BC2
:103440000AD05B4BD3F8903023F0C0027B681B6D31
:1034500057491343C1F890307B681B6803F48063BD
:10346000002B0AD0524BD3F8903023F440727B6883
:103470005B6D4F491343C1F890307B681B6803F4C0
:103480000063002B0AD04A4BD3F8903023F44062FB
:103490007B689B6D46491343C1F890307B681B687D
:1034A00003F48053002B0AD0414BD3F8903023F41F
:1034B00040527B68DB6D3E491343C1F890307B6816
:1034C0001B6803F40053002B0AD0394BD3F890301B
:1034D00023F440427B681B6E35491343C1F890309A
:1034E0007B681B6803F48003002B0AD0304BD3F8B1
:1034F000903023F080627B689B6F2D491343C1F8A5
:1035000090307B681B6803F40013002B11D0284B0C
:10351000D3F8903023F000627B68DB6F24491343BB
:10352000C1F890307B68DB6FB3F1006F01D10123EC
:10353000BB617B681B6803F00803002B01D00123EB
:10354000BB617B681B6803F48023002B0AD0184BF7
:10355000D3F8903023F040727B685B6F14491343BB
:10356000C1F890307B681B6803F40003002B0BD07C
:103570000F4BD3F8903023F080527B68D3F8803023
:103580000B491343C1F890307B681B6803F08063DC
:10359000002B0FD0064BD3F8903023F000527B68FD
:1035A000D3F8843002491343C1F8903002E000BFE1
:1035B000003802407B681B6803F00063002B0BD0CF
:1035C0008A4BD3F88C3023F000727B68D3F88830B4
:1035D00086491343C1F88C307B681B6803F0805325
:1035E000002B0BD0814BD3F88C3023F080627B68AA
:1035F000D3F88C307D491343C1F88C30FB69012B23
:1036000006D07B681B6803F00073002B00F0D680A7
:10361000764B1B68754A23F080631360FEF780F8D1
:10362000786108E0FEF77CF802467B69D31A642BC8
:1036300001D9032395E16D4B1B6803F00063002B58
:10364000F0D17B681B6803F00103002B21D07B685D
:103650005B6B002B1DD1654BD3F884301B0C03F042
:1036600003033B61614BD3F884301B0E03F00F035F
:10367000FB607B685B689A013B691B041A43FB682B
:103680001B061A437B689B681B0758491343C1F804
:1036900084307B681B6803F40023002B04D07B6814
:1036A000DB6BB3F5801F0AD07B681B6803F48013C3
:1036B000002B2ED07B681B6CB3F5800F29D14B4BB0
:1036C000D3F884301B0C03F003033B61474BD3F862
:1036D00084301B0F03F00703FB607B685B689A0173
:1036E0003B691B041A437B68DB681B061A43FB68B3
:1036F0001B073E491343C1F884303C4BD3F88C3050
:1037000023F01F027B685B6A013B38491343C1F811
:103710008C307B681B6803F08073002B1DD0334B0B
:10372000D3F884301B0E03F00F033B612F4BD3F80B
:1037300084301B0F03F00703FB607B685B689A0112
:103740007B681B691B041A433B691B061A43FB6811
:103750001B0726491343C1F884307B681B6803F0BC
:103760000073002B11D07B685B689A017B681B6932
:103770001B041A437B68DB681B061A437B689B6843
:103780001B071A491343C1F88430184B1B68174AAA
:1037900043F080631360FDF7C3FF786108E0FDF735
:1037A000BFFF02467B69D31A642B01D90323D8E0FB
:1037B0000E4B1B6803F00063002BF0D0BB69012B9C
:1037C00040F0CE80094B1B68084A23F080531360F9
:1037D000FDF7A6FF78610BE0FDF7A2FF02467B69CB
:1037E000D31A642B04D90323BBE000BF0038024086
:1037F0005E4B1B6803F00053B3F1005FECD07B68B5
:103800001B6803F40023002B03D07B68DB6B002BC9
:1038100009D07B681B6803F48013002B2ED07B68D3
:103820001B6C002B2AD1514BD3F888301B0C03F0B2
:1038300003033B614D4BD3F888301B0F03F00703A4
:10384000FB607B685B699A013B691B041A437B68D8
:103850009B691B061A43FB681B0744491343C1F8C5
:103860008830424BD3F88C3023F4F8527B689B6A43
:10387000013B1B023D491343C1F88C307B681B6838
:1038800003F40013002B22D07B68DB6FB3F1006FD1
:103890001DD1364BD3F888301B0E03F00F033B616C
:1038A000324BD3F888301B0F03F00703FB607B68B3
:1038B0005B699A017B681B6A1B041A433B691B0600
:1038C0001A43FB681B0729491343C1F888307B68FA
:1038D0001B6803F00803002B28D0244BD3F8883052
:1038E0001B0E03F00F033B61204BD3F888301B0CF9
:1038F00003F00303FB607B685B699A01FB681B04B0
:103900001A433B691B061A437B68DB691B0717498F
:103910001343C1F88830154BD3F88C3023F4403270
:103920007B68DB6A11491343C1F88C300F4B1B686D
:103930000E4A43F080531360FDF7F2FE786108E011
:10394000FDF7EEFE02467B69D31A642B01D90323EF
:1039500007E0064B1B6803F00053B3F1005FEFD1A3
:10396000002318462037BD4680BD00BF0038024006
:1039700080B582B000AF78607B68002B01D1012355
:1039800049E07B6893F83D30DBB2002B06D17B68C1
:10399000002283F83C207868FDF7E0FB7B68022278
:1039A00083F83D207B681A687B680433194610460B
:1039B00000F066FC7B68012283F848207B680122C6
:1039C00083F83E207B68012283F83F207B68012238
:1039D00083F840207B68012283F841207B68012224
:1039E00083F842207B68012283F843207B68012210
:1039F00083F844207B68012283F845207B680122FC
:103A000083F846207B68012283F847207B680122E7
:103A100083F83D20002318460837BD4680BD0000CE
:103A200080B485B000AF78607B6893F83D30DBB23E
:103A3000012B01D0012354E07B68022283F83D2052
:103A40007B681B68DA687B681B6842F00102DA60F9
:103A50007B681B68264A934222D07B681B68B3F1BF
:103A6000804F1DD07B681B68224A934218D07B6828
:103A70001B68214A934213D07B681B681F4A9342FC
:103A80000ED07B681B681E4A934209D07B681B6876
:103A90001C4A934204D07B681B681B4A934215D191
:103AA0007B681B689A68194B1340FB60FB68062B08
:103AB00015D0FB68B3F5803F11D07B681B681A688E
:103AC0007B681B6842F001021A6008E07B681B6893
:103AD0001A687B681B6842F001021A6000E000BFB0
:103AE000002318461437BD465DF8047B704700BFBD
:103AF000000001400004004000080040000C0040AD
:103B0000000401400040014000180040070001008F
:103B100080B582B000AF78607B68002B01D10123B3
:103B200049E07B6893F83D30DBB2002B06D17B681F
:103B3000002283F83C20786800F041F87B6802227C
:103B400083F83D207B681A687B6804331946104669
:103B500000F096FB7B68012283F848207B680122F5
:103B600083F83E207B68012283F83F207B68012296
:103B700083F840207B68012283F841207B68012282
:103B800083F842207B68012283F843207B6801226E
:103B900083F844207B68012283F845207B6801225A
:103BA00083F846207B68012283F847207B68012246
:103BB00083F83D20002318460837BD4680BD80B4F9
:103BC00083B000AF786000BF0C37BD465DF8047B62
:103BD0007047000080B584B000AF786039603B6802
:103BE000002B09D17B6893F83E30DBB2012B14BF68
:103BF00001230023DBB23CE03B68042B09D17B6846
:103C000093F83F30DBB2012B14BF01230023DBB25A
:103C10002FE03B68082B09D17B6893F84030DBB27A
:103C2000012B14BF01230023DBB222E03B680C2BE5
:103C300009D17B6893F84130DBB2012B14BF01231B
:103C40000023DBB215E03B68102B09D17B6893F8A9
:103C50004230DBB2012B14BF01230023DBB208E0AA
:103C60007B6893F84330DBB2012B14BF01230023A0
:103C7000DBB2002B01D0012392E03B68002B04D182
:103C80007B68022283F83E2023E03B68042B04D1AA
:103C90007B68022283F83F201BE03B68082B04D19D
:103CA0007B68022283F8402013E03B680C2B04D190
:103CB0007B68022283F841200BE03B68102B04D183
:103CC0007B68022283F8422003E07B68022283F8AB
:103CD00043207B681B6801223968184600F0CEFD3E
:103CE0007B681B68304A934204D07B681B682F4A6C
:103CF000934201D1012300E00023002B07D07B6811
:103D00001B685A6C7B681B6842F400425A647B68EB
:103D10001B68254A934222D07B681B68B3F1804F11
:103D20001DD07B681B68224A934218D07B681B68B1
:103D3000204A934213D07B681B681F4A93420ED0DF
:103D40007B681B68194A934209D07B681B681B4A31
:103D5000934204D07B681B68194A934215D17B6853
:103D60001B689A68174B1340FB60FB68062B15D045
:103D7000FB68B3F5803F11D07B681B681A687B68CD
:103D80001B6842F001021A6008E07B681B681A6831
:103D90007B681B6842F001021A6000E000BF00234C
:103DA00018461037BD4680BD0000014000040140A8
:103DB0000004004000080040000C004000400140AA
:103DC000001800400700010080B582B000AF7860A5
:103DD0007B681B681B6903F00203022B22D17B68FE
:103DE0001B68DB6803F00203022B1BD17B681B6896
:103DF0006FF002021A617B6801221A777B681B68E8
:103E00009B6903F00303002B03D0786800F01AFAD3
:103E100005E0786800F00CFA786800F01DFA7B681D
:103E200000221A777B681B681B6903F00403042BCC
:103E300022D17B681B68DB6803F00403042B1BD1D1
:103E40007B681B686FF004021A617B6802221A7794
:103E50007B681B689B6903F44073002B03D0786870
:103E600000F0F0F905E0786800F0E2F9786800F019
:103E7000F3F97B6800221A777B681B681B6903F0E3
:103E80000803082B22D17B681B68DB6803F008035A
:103E9000082B1BD17B681B686FF008021A617B68D6
:103EA00004221A777B681B68DB6903F00303002B8D
:103EB00003D0786800F0C6F905E0786800F0B8F93A
:103EC000786800F0C9F97B6800221A777B681B6864
:103ED0001B6903F01003102B22D17B681B68DB6881
:103EE00003F01003102B1BD17B681B686FF01002CE
:103EF0001A617B6808221A777B681B68DB6903F408
:103F00004073002B03D0786800F09CF905E07868D6
:103F100000F08EF9786800F09FF97B6800221A772C
:103F20007B681B681B6903F00103012B0ED17B68C2
:103F30001B68DB6803F00103012B07D17B681B685A
:103F40006FF001021A617868FDF75AF87B681B6808
:103F50001B6903F08003802B0ED17B681B68DB6834
:103F600003F08003802B07D17B681B686FF0800211
:103F70001A61786800F0B1FC7B681B681B6903F468
:103F80008073B3F5807F0ED17B681B68DB6803F01C
:103F90008003802B07D17B681B686FF480721A61E5
:103FA000786800F0A4FC7B681B681B6903F0400381
:103FB000402B0ED17B681B68DB6803F04003402B6D
:103FC00007D17B681B686FF040021A61786800F0C7
:103FD0004DF97B681B681B6903F02003202B0ED171
:103FE0007B681B68DB6803F02003202B07D17B680C
:103FF0001B686FF020021A61786800F064FC00BF53
:104000000837BD4680BD000080B586B000AFF860BF
:10401000B9607A600023FB75FB6893F83C30012B94
:1040200001D10223FFE0FB68012283F83C207B687A
:10403000142B00F2F08001A252F823F09140000806
:10404000174200081742000817420008D140000834
:1040500017420008174200081742000813410008E1
:104060001742000817420008174200085341000891
:10407000174200081742000817420008954100083F
:10408000174200081742000817420008D5410008EF
:10409000FB681B68B968184600F092F9FB681B685A
:1040A0009A69FB681B6842F008029A61FB681B680A
:1040B0009A69FB681B6822F004029A61FB681B681E
:1040C0009969BB681A69FB681B680A439A61A5E095
:1040D000FB681B68B968184600F0E4F9FB681B68C8
:1040E0009A69FB681B6842F400629A61FB681B686E
:1040F0009A69FB681B6822F480629A61FB681B68FE
:104100009969BB681B691A02FB681B680A439A61BC
:1041100084E0FB681B68B968184600F03BFAFB684E
:104120001B68DA69FB681B6842F00802DA61FB6809
:104130001B68DA69FB681B6822F00402DA61FB681D
:104140001B68D969BB681A69FB681B680A43DA6196
:1041500064E0FB681B68B968184600F091FAFB68D8
:104160001B68DA69FB681B6842F40062DA61FB686D
:104170001B68DA69FB681B6822F48062DA61FB68FD
:104180001B68D969BB681B691A02FB681B680A4374
:10419000DA6143E0FB681B68B968184600F0C8FAAA
:1041A000FB681B685A6DFB681B6842F008025A6581
:1041B000FB681B685A6DFB681B6822F004025A6595
:1041C000FB681B68596DBB681A69FB681B680A436A
:1041D0005A6523E0FB681B68B968184600F0FAFAD4
:1041E000FB681B685A6DFB681B6842F400625A65E5
:1041F000FB681B685A6DFB681B6822F480625A6575
:10420000FB681B68596DBB681B691A02FB681B6859
:104210000A435A6502E00123FB7500BFFB680022D8
:1042200083F83C20FB7D18461837BD4680BD00BF93
:1042300080B483B000AF786000BF0C37BD465DF836
:10424000047B704780B483B000AF786000BF0C3748
:10425000BD465DF8047B704780B483B000AF7860E2
:1042600000BF0C37BD465DF8047B704780B483B057
:1042700000AF786000BF0C37BD465DF8047B704727
:1042800080B485B000AF786039607B681B68FB60E4
:104290007B68404A934213D07B68B3F1804F0FD0C4
:1042A0007B683D4A93420BD07B683C4A934207D0DF
:1042B0007B683B4A934203D07B683A4A934208D1D9
:1042C000FB6823F07003FB603B685B68FA6813438C
:1042D000FB607B682F4A93422BD07B68B3F1804F01
:1042E00027D07B682C4A934223D07B682B4A934289
:1042F0001FD07B682A4A93421BD07B68294A93428D
:1043000017D07B68284A934213D07B68274A934290
:104310000FD07B68264A93420BD07B68254A934294
:1043200007D07B68244A934203D07B68234A934298
:1043300008D1FB6823F44073FB603B68DB68FA68D4
:104340001343FB60FB6823F080023B685B69134307
:10435000FB607B68FA681A603B689A687B68DA627F
:104360003B681A687B689A627B680A4A934203D06A
:104370007B680C4A934203D13B681A697B681A63D5
:104380007B6801225A6100BF1437BD465DF8047B8B
:10439000704700BF000001400004004000080040DA
:1043A000000C004000040140004001400044014076
:1043B0000048014000180040001C00400020004060
:1043C00080B487B000AF786039607B681B6A23F0E7
:1043D00001027B681A627B681B6A7B617B685B6891
:1043E0003B617B689B69FB60FA682B4B1340FB6069
:1043F000FB6823F00303FB603B681B68FA68134308
:10440000FB607B6923F002037B613B689B687A69F0
:1044100013437B617B68214A934203D07B68204A27
:1044200093420CD17B6923F008037B613B68DB6816
:104430007A6913437B617B6923F004037B617B68AA
:10444000164A934203D07B68154A934211D13B69C7
:1044500023F480733B613B6923F400733B613B6849
:104460005B693A6913433B613B689B693A69134353
:104470003B617B683A695A607B68FA689A613B687D
:104480005A687B685A637B687A691A6200BF1C3776
:10449000BD465DF8047B70478FFFFEFF00000140C2
:1044A0000004014080B487B000AF786039607B6859
:1044B0001B6A23F010027B681A627B681B6A7B61AF
:1044C0007B685B683B617B689B69FB60FA682E4B8D
:1044D0001340FB60FB6823F44073FB603B681B6880
:1044E0001B02FA681343FB607B6923F020037B61A6
:1044F0003B689B681B017A6913437B617B68234A95
:10450000934203D07B68224A93420DD17B6923F00A
:1045100080037B613B68DB681B017A6913437B6125
:104520007B6923F040037B617B68184A934203D088
:104530007B68174A934213D13B6923F480633B6144
:104540003B6923F400633B613B685B699B003A690C
:1045500013433B613B689B699B003A6913433B6192
:104560007B683A695A607B68FA689A613B685A6866
:104570007B689A637B687A691A6200BF1C37BD4604
:104580005DF8047B704700BFFF8FFFFE0000014015
:104590000004014080B487B000AF786039607B6868
:1045A0001B6A23F480727B681A627B681B6A7B61DA
:1045B0007B685B683B617B68DB69FB60FA682D4B5D
:1045C0001340FB60FB6823F00303FB603B681B6840
:1045D000FA681343FB607B6923F400737B613B68DB
:1045E0009B681B027A6913437B617B68224A934272
:1045F00003D07B68214A93420DD17B6923F4006389
:104600007B613B68DB681B027A6913437B617B69D2
:1046100023F480637B617B68174A934203D07B68F5
:10462000164A934213D13B6923F480533B613B69A3
:1046300023F400533B613B685B691B013A691343F8
:104640003B613B689B691B013A6913433B617B6893
:104650003A695A607B68FA68DA613B685A687B6835
:10466000DA637B687A691A6200BF1C37BD465DF861
:10467000047B70478FFFFEFF0000014000040140F3
:1046800080B487B000AF786039607B681B6A23F420
:1046900080527B681A627B681B6A3B617B685B683F
:1046A0007B617B68DB69FB60FA681E4B1340FB6033
:1046B000FB6823F44073FB603B681B681B02FA68CD
:1046C0001343FB603B6923F400533B613B689B68E9
:1046D0001B033A6913433B617B68134A934203D03F
:1046E0007B68124A934209D17B6923F480437B6142
:1046F0003B685B699B017A6913437B617B687A69DC
:104700005A607B68FA68DA613B685A687B681A64A9
:104710007B683A691A6200BF1C37BD465DF8047BAE
:10472000704700BFFF8FFFFE000001400004014002
:1047300080B487B000AF786039607B681B6A23F46F
:1047400080327B681A627B681B6A3B617B685B68AE
:104750007B617B685B6DFB60FA681B4B1340FB6001
:104760003B681B68FA681343FB603B6923F4003322
:104770003B613B689B681B043A6913433B617B6860
:10478000124A934203D07B68114A934209D17B6954
:1047900023F480337B613B685B691B027A691343B6
:1047A0007B617B687A695A607B68FA685A653B6806
:1047B0005A687B689A657B683A691A6200BF1C3741
:1047C000BD465DF8047B70478FFFFEFF000001408F
:1047D0000004014080B487B000AF786039607B6826
:1047E0001B6A23F480127B681A627B681B6A3B6138
:1047F0007B685B687B617B685B6DFB60FA681C4B68
:104800001340FB603B681B681B02FA681343FB60A4
:104810003B6923F400133B613B689B681B053A69C5
:1048200013433B617B68134A934203D07B68124A6F
:10483000934209D17B6923F480237B613B685B69E8
:104840009B027A6913437B617B687A695A607B6853
:10485000FA685A653B685A687B68DA657B683A692A
:104860001A6200BF1C37BD465DF8047B704700BF6D
:10487000FF8FFFFE000001400004014080B487B0BC
:1048800000AFF860B9607A60BB6803F01F030122D3
:1048900002FA03F37B61FB681A6A7B69DB431A4007
:1048A000FB681A62FB681A6ABB6803F01F03796829
:1048B00001FA03F31A43FB681A6200BF1C37BD46B6
:1048C0005DF8047B704780B483B000AF786000BFB0
:1048D0000C37BD465DF8047B704780B483B000AFF1
:1048E000786000BF0C37BD465DF8047B704780B42C
:1048F00083B000AF786000BF0C37BD465DF8047B25
:10490000704780B582B000AF78607B68002B01D122
:10491000012340E07B68DB6F002B06D17B6800221F
:1049200083F878207868FCF78BFC7B682422DA67B0
:104930007B681B681A687B681B6822F001021A609A
:10494000786800F0AFF80346012B01D1012322E083
:104950007B685B6A002B02D0786800F007FB7B68FD
:104960001B685A687B681B6822F490425A607B6817
:104970001B689A687B681B6822F02A029A607B6831
:104980001B681A687B681B6842F001021A6078682D
:1049900000F08EFB034618460837BD4680BD80B543
:1049A0008AB002AFF860B9603B601346FB80FB68D9
:1049B000DB6F202B71D1BB68002B02D0FB88002B52
:1049C00001D101236AE0FB680022C3F88420FB6860
:1049D0002122DA67FCF7A4FE7861FB68FA88A3F865
:1049E0005020FB68FA88A3F85220FB689B68B3F557
:1049F000805F08D1FB681B69002B04D10023FB6199
:104A0000BB68BB6103E0BB68FB610023BB612CE0BA
:104A10003B6800937B6900228021F86800F095FBD9
:104A20000346002B01D0032338E0FB69002B0BD198
:104A3000BB691B881A46FB681B68C2F308029A62AE
:104A4000BB690233BB6107E0FB691A78FB681B682E
:104A50009A62FB690133FB61FB68B3F852309BB289
:104A6000013B9AB2FB68A3F85220FB68B3F85230BE
:104A70009BB2002BCCD13B6800937B690022402184
:104A8000F86800F062FB0346002B01D0032305E029
:104A9000FB682022DA67002300E002231846203753
:104AA000BD4680BD80B588B000AF78600023BB777D
:104AB0007B689A687B681B691A437B685B691A4349
:104AC0007B68DB6913437B617B681B681A68A64BB4
:104AD00013407A68126879690B4313607B681B681E
:104AE0005B6823F440517B68DA687B681B680A4383
:104AF0005A607B689B697B617B681B6A7A69134398
:104B00007B617B681B689B6823F430617B681B6852
:104B10007A690A439A607B681B68944A934220D161
:104B2000934BD3F8903003F00303032B16D801A264
:104B300052F823F0454B0008514B00084B4B00083E
:104B4000574B00080123FB7750E10223FB774DE12F
:104B50000423FB774AE10823FB7747E11023FB7727
:104B600044E17B681B68834A934232D1804BD3F87F
:104B7000903003F00C030C2B28D801A252F823F03C
:104B8000B54B0008CD4B0008CD4B0008CD4B0008BD
:104B9000C14B0008CD4B0008CD4B0008CD4B0008A1
:104BA000BB4B0008CD4B0008CD4B0008CD4B000897
:104BB000C74B00080023FB7718E10223FB7715E1C0
:104BC0000423FB7712E10823FB770FE11023FB7727
:104BD0000CE17B681B68684A934220D1644BD3F890
:104BE000903003F03003302B13D0302B14D8202B0F
:104BF00009D0202B10D8002B02D0102B06D00BE0B0
:104C00000023FB77F2E00223FB77EFE00423FB773E
:104C1000ECE00823FB77E9E01023FB77E6E07B6814
:104C20001B68564A934220D1514BD3F8903003F081
:104C3000C003C02B13D0C02B14D8802B09D0802BDD
:104C400010D8002B02D0402B06D00BE00023FB77BE
:104C5000CCE00223FB77C9E00423FB77C6E00823FE
:104C6000FB77C3E01023FB77C0E07B681B68444AF6
:104C7000934225D13E4BD3F8903003F44073B3F503
:104C8000407F17D0B3F5407F17D8B3F5007F0BD026
:104C9000B3F5007F11D8002B03D0B3F5807F06D089
:104CA0000BE00023FB77A1E00223FB779EE00423C7
:104CB000FB779BE00823FB7798E01023FB7795E0D8
:104CC0007B681B682F4A934225D1294BD3F890303B
:104CD00003F44063B3F5406F17D0B3F5406F17D8B6
:104CE000B3F5006F0BD0B3F5006F11D8002B03D0D4
:104CF000B3F5806F06D00BE00123FB7776E002234B
:104D0000FB7773E00423FB7770E00823FB776DE00B
:104D10001023FB776AE07B681B681B4A934238D1FB
:104D2000134BD3F8903003F44053B3F5405F17D0E2
:104D3000B3F5405F2AD8B3F5005F0BD0B3F5005F41
:104D400024D8002B03D0B3F5805F06D01EE00023EB
:104D5000FB774BE00223FB7748E00423FB7745E039
:104D60000823FB7742E000BFF369FFEF001001402A
:104D7000003802400044004000480040004C004021
:104D80000050004000140140007800401023FB77E1
:104D90002CE07B681B68724A934225D1714BD3F893
:104DA000903003F44043B3F5404F17D0B3F5404F74
:104DB00017D8B3F5004F0BD0B3F5004F11D8002B27
:104DC00003D0B3F5804F06D00BE00023FB770DE056
:104DD0000223FB770AE00423FB7707E00823FB7735
:104DE00004E01023FB7701E01023FB777B68DB698D
:104DF000B3F5004F5BD1FB7F082B28D801A252F8F6
:104E000023F000BF294E0008314E0008394E00083B
:104E10004F4E00083F4E00084F4E00084F4E00080E
:104E20004F4E0008474E0008FEF720F9B86113E026
:104E3000FEF730F9B8610FE04B4BBB610CE0FEF7B9
:104E400043F8B86108E04FF40043BB6104E000237D
:104E5000BB610123BB7700BFBB69002B74D0BB696A
:104E60005A007B685B685B081A447B685B68B2FB2E
:104E7000F3F33B613B690F2B16D93B69B3F5803FD8
:104E800012D23B699BB223F00F03FB813B695B08A5
:104E90009BB203F007039AB2FB891343FB817B6843
:104EA0001B68FA89DA604FE00123BB774CE0FB7F97
:104EB000082B28D801A252F823F000BFE14E0008C9
:104EC000E94E0008F14E0008074F0008F74E0008B1
:104ED000074F0008074F0008074F0008FF4E000863
:104EE000FEF7C4F8B86113E0FEF7D4F8B8610FE03C
:104EF0001D4BBB610CE0FDF7E7FFB86108E04FF424
:104F00000043BB6104E00023BB610123BB7700BF0A
:104F1000BB69002B18D07B685B685A08BB691A44D0
:104F20007B685B68B2FBF3F33B613B690F2B09D9EC
:104F30003B69B3F5803F05D23B699AB27B681B6839
:104F4000DA6001E00123BB777B6800229A667B6808
:104F50000022DA66BB7F18462037BD4680BD00BF01
:104F6000007C0040003802400024F40080B483B08C
:104F700000AF78607B685B6A03F00103002B0AD006
:104F80007B681B685B6823F400317B689A6A7B68E6
:104F90001B680A435A607B685B6A03F00203002BBC
:104FA0000AD07B681B685B6823F480317B68DA6A0F
:104FB0007B681B680A435A607B685B6A03F00403E2
:104FC000002B0AD07B681B685B6823F480217B6818
:104FD0001A6B7B681B680A435A607B685B6A03F044
:104FE0000803002B0AD07B681B685B6823F4004130
:104FF0007B685A6B7B681B680A435A607B685B6AF4
:1050000003F01003002B0AD07B681B689B6823F415
:1050100080517B689A6B7B681B680A439A607B6847
:105020005B6A03F02003002B0AD07B681B689B6837
:1050300023F400517B68DA6B7B681B680A439A6033
:105040007B685B6A03F04003002B1AD07B681B6807
:105050005B6823F480117B681A6C7B681B680A43C9
:105060005A607B681B6CB3F5801F0AD17B681B6894
:105070005B6823F4C0017B685A6C7B681B680A4339
:105080005A607B685B6A03F08003002B0AD07B6860
:105090001B685B6823F400217B689A6C7B681B6843
:1050A0000A435A6000BF0C37BD465DF8047B704769
:1050B00080B586B002AF78607B680022C3F8842098
:1050C000FCF72EFBF8607B681B681B6803F0080385
:1050D000082B0ED16FF07E430093FB6800224FF443
:1050E0000011786800F031F80346002B01D003234B
:1050F00027E07B681B681B6803F00403042B0ED1B8
:105100006FF07E430093FB6800224FF480017868C3
:1051100000F01BF80346002B01D0032311E07B684D
:105120002022DA677B682022C3F880207B68002277
:105130001A667B6800225A667B68002283F8782012
:10514000002318461037BD4680BD80B59CB000AF27
:10515000F860B9603B601346FB71A7E0BB6FB3F129
:10516000FF3F00F0A380FCF7DBFA02463B68D31A4E
:10517000BA6F9A4202D3BB6F002B3FD1FB681B680A
:105180003B653B6D53E8003FFB64FB6C23F4D0733D
:105190007B66FB681B681A467B6EFB65BA65B96D5A
:1051A000FA6D41E800237B657B6D002BE6D1FB683F
:1051B0001B680833FB63FB6B53E8003FBB63BB6BAF
:1051C00023F001033B66FB681B6808333A6EBA6440
:1051D0007B64796CBA6C41E800233B643B6C002B28
:1051E000E5D1FB682022DA67FB682022C3F8802023
:1051F000FB68002283F87820032368E0FB681B68C3
:105200001B6803F00403002B50D0FB681B68DB69AC
:1052100003F40063B3F5006F48D1FB681B684FF4DB
:1052200000621A62FB681B68BB62BB6A53E8003FFE
:105230007B627B6A23F4D073FB66FB681B681A46AB
:10524000FB6E7B633A63396B7A6B41E80023FB6248
:10525000FB6A002BE6D1FB681B6808337B617B6926
:1052600053E8003F3B613B6923F00103BB66FB68E9
:105270001B680833BA6E3A62FB61F9693A6A41E821
:105280000023BB61BB69002BE5D1FB682022DA67F4
:10529000FB682022C3F88020FB682022C3F884200A
:1052A000FB68002283F87820032310E0FB681B686A
:1052B000DA69BB681340BA689A420CBF0123002325
:1052C000DBB21A46FB799A423FF448AF00231846F6
:1052D0007037BD4680BD000084B080B584B000AF9B
:1052E000786007F11C0080E80E003B6B012B20D199
:1052F0007B689B6B23F480327B689A637B68DA68F7
:10530000204B13407A68D3607B68DB6823F440123B
:105310007B68DA60FB6C012B05D17B68DB6843F4AA
:1053200080127B68DA60786800F096FA0346FB73B7
:1053300010E07B68DB6843F040027B68DA607868E5
:1053400000F08AFA0346FB737B689B6B43F4803260
:105350007B689A63BB6A012B0BD17B689B6843F027
:1053600006027B689A607B689B6843F020027B683A
:105370009A60FB7B18461037BD46BDE8804004B0FC
:10538000704700BFBFFFBDFF80B483B000AF78603F
:105390007B689B6823F001027B689A6000231846B3
:1053A0000C37BD465DF8047B704780B584B000AF14
:1053B00078600B46FB700023FB607B68DB6823F0A2
:1053C000C0427B68DA60FB78012B15D17B68DB6813
:1053D00043F000527B68DA600120FCF7ADF9FB680E
:1053E0000133FB60786800F029FA0346012B1ED0D8
:1053F000FB68312BF0D91AE0FB78002B15D17B68C4
:10540000DB6843F080427B68DA600120FCF794F9A6
:10541000FB680133FB60786800F010FA0346002B4C
:1054200005D0FB68312BF0D901E0012305E0FB68D2
:10543000322B01D1012300E0002318461037BD466E
:1054400080BD000084B080B586B000AF786007F101
:10545000240080E80E000023FB757B68FB600023BE
:105460003B6109E07A683B6940339B0013440022AA
:105470005A603B6901333B613B690E2BF2D9FB6CEF
:10548000002B1CD1FB6803F500635B68FA6802F52A
:10549000006243F0020353607B689B6B23F40012AD
:1054A0007B689A637B681B6843F040027B681A60E4
:1054B0007B681B6843F080027B681A6005E07B68AC
:1054C0009B6B43F400127B689A63FB6803F560638F
:1054D0001A4600231360FB6803F500631946FB6856
:1054E00003F500631A460B681360BB6B012B0CD1EC
:1054F000FB6A002B04D10021786800F065F908E010
:105500000121786800F060F903E00321786800F079
:105510005BF91021786800F0F3F80346002B01D006
:105520000123FB75786800F01FF90346002B01D0BA
:105530000123FB75FB6803F500631A460023136122
:10554000FB6803F500631A4600235361FB6803F50B
:1055500000631A460023D36100233B6143E03B69AB
:105560005A01FB68134403F510631B6803F0004302
:10557000B3F1004F18D13B69002B0AD13B695A01A6
:10558000FB68134403F510631A464FF00063136081
:1055900013E03B695A01FB68134403F510631A4694
:1055A0004FF09043136008E03B695A01FB681344D5
:1055B00003F510631A46002313603B695A01FB6828
:1055C000134403F510631A46002313613B695A0123
:1055D000FB68134403F510631A464FF67F3393605C
:1055E0003B6901333B617B6A3A699A42B7D3002336
:1055F0003B6143E03B695A01FB68134403F53063A8
:105600001B6803F00043B3F1004F18D13B69002B36
:105610000AD13B695A01FB68134403F530631A460B
:105620004FF00063136013E03B695A01FB681344B9
:1056300003F530631A464FF09043136008E03B696E
:105640005A01FB68134403F530631A4600231360C4
:105650003B695A01FB68134403F530631A46002383
:1056600013613B695A01FB68134403F530631A4622
:105670004FF67F3393603B6901333B617B6A3A6944
:105680009A42B7D3FB6803F500631B69FA6802F519
:10569000006223F4807313617B6800229A617B6847
:1056A0006FF080425A613B6B002B05D17B689B6990
:1056B00043F010027B689A617B689A690E4B134332
:1056C0007A689361FB6B002B05D07B689B6943F084
:1056D00008027B689A61FB6C012B05D17B689A6993
:1056E000064B13437A689361FB7D18461837BD4615
:1056F000BDE8804004B0704700383C8004000040A2
:1057000080B485B000AF786039600023FB60FB682F
:105710000133FB60FB68134A934201D903231BE06A
:105720007B681B69002BF2DA0023FB603B689B015E
:1057300043F020027B681A61FB680133FB60FB6861
:10574000084A934201D9032306E07B681B6903F0F2
:105750002003202BF0D0002318461437BD465DF8F7
:10576000047B7047400D030080B485B000AF7860C3
:105770000023FB60FB680133FB60FB68114A934226
:1057800001D9032318E07B681B69002BF2DA0023A0
:10579000FB607B6810221A61FB680133FB60FB68C9
:1057A000084A934201D9032306E07B681B6903F092
:1057B0001003102BF0D0002318461437BD465DF8B7
:1057C000047B7047400D030080B485B000AF786063
:1057D0000B46FB707B68FB60FB6803F500631A688F
:1057E000FB78F96801F5006113430B60002318464C
:1057F0001437BD465DF8047B704780B485B000AFB8
:1058000078607B68FB60FB6803F560631B68FA687F
:1058100002F5606223F003031360FB6803F5006385
:105820005B68FA6802F5006243F0020353600023EC
:1058300018461437BD465DF8047B704780B483B0CA
:1058400000AF78607B685B6903F0010318460C3792
:10585000BD465DF8047B704780B485B000AF7860CA
:105860000023FB60FB680133FB60FB68134A934233
:1058700001D903231BE07B681B69002BF2DA0023AC
:10588000FB607B681B6943F001027B681A61FB685F
:105890000133FB60FB68094A934201D9032306E008
:1058A0007B681B6903F00103012BF0D0002318462D
:1058B0001437BD465DF8047B704700BF400D030000
:1058C00080B400AF00BFBD465DF8047B70470000A8
:1058D00080B485B000AFEFF30583BB60BB68002BDD
:1058E0000FD1EFF310837B607B68002B05D1EFF3C2
:1058F00011833B603B68002B07D00E4B1B68022BCB
:1059000003D16FF00503FB600CE00A4B1B68002B12
:1059100005D1084B01221A600023FB6002E04FF022
:10592000FF33FB60FB6818461437BD465DF8047B07
:10593000704700BF9C1F002080B584B000AFEFF31C
:105940000583BB60BB68002B0FD1EFF310837B6036
:105950007B68002B05D1EFF311833B603B68002B84
:1059600007D00F4B1B68022B03D16FF00503FB60C0
:1059700010E00B4B1B68012B09D1FFF7A1FF084B6F
:1059800002221A6001F020FE0023FB6002E04FF0CB
:10599000FF33FB60FB6818461037BD4680BD00BF73
:1059A0009C1F002080B590B004AFF860B9607A60A9
:1059B00000233B61EFF30583FB61FB69002B40F0A3
:1059C0008F80EFF31083BB61BB69002B05D1EFF330
:1059D00011837B617B69002B03D0444B1B68022B36
:1059E0007ED0FB68002B7BD08023BB6218237B62B8
:1059F0000023FB624FF0FF333B627B68002B45D0F6
:105A00007B681B68002B02D07B681B68FB627B688D
:105A10009B69002B02D07B689B697B627B6A002BB1
:105A200008D07B6A382B05D87B685B6803F00103DC
:105A3000002B01D0002354E07B685B69002B03D06E
:105A40007B685B699B08BB627B689B68002B0ED000
:105A50007B68DB68BF2B0AD97B681B69002B06D0EB
:105A60007B685B69002B02D001233B6210E07B68FE
:105A70009B68002B0CD17B68DB68002B08D17B680E
:105A80001B69002B04D100233B6201E000233B6231
:105A90003B6A012B10D17B681B697A68926802927D
:105AA00001937B6A0093BB68BA6AF96AF86801F0EF
:105AB00091FB03463B6113E03B6A002B10D1BB6AAC
:105AC0009AB207F1100301937B6A0093BB68F96AED
:105AD000F86801F0E2FB0346012B01D000233B6193
