:020000040800F2
:1000000000000820150D0008B10C0008B70C00080E
:10001000BD0C0008C30C0008C90C0008000000005B
:10002000000000000000000000000000F162000875
:10003000CF0C000800000000016500086965000899
:10004000650D0008650D0008650D0008650D0008C8
:10005000650D0008650D0008650D0008650D0008B8
:10006000650D0008650D0008650D0008650D0008A8
:10007000650D0008650D0008650D0008650D000898
:10008000650D0008650D0008650D0008650D000888
:10009000650D0008650D0008650D0008650D000878
:1000A000650D0008650D0008650D0008650D000868
:1000B000650D0008DD0C0008650D0008650D0008E1
:1000C000650D0008650D0008650D0008650D000848
:1000D000650D0008650D0008650D0008650D000838
:1000E000650D0008650D0008650D0008650D000828
:1000F000650D0008650D0008650D0008650D000818
:10010000650D0008650D0008650D0008650D000807
:10011000650D0008650D0008650D0008650D0008F7
:10012000650D0008650D0008650D0008650D0008E7
:10013000650D0008650D0008650D0008650D0008D7
:10014000650D0008650D0008650D0008650D0008C7
:10015000650D0008650D0008650D0008650D0008B7
:10016000650D0008650D0008650D0008650D0008A7
:10017000650D0008650D0008650D00080000000011
:10018000650D0008650D0008650D0008650D000887
:10019000650D0008650D0008650D0008650D000877
:1001A000650D0008650D0008650D0008650D000867
:1001B000650D0008650D0008650D0008650D000857
:1001C000650D0008650D000800000000650D0008C1
:1001D000650D0008650D0008650D0008650D000837
:1001E000650D0008650D0008650D0008650D000827
:0801F000650D0008650D000813
:1002000010B5054C237833B9044B13B10448AFF350
:1002100000800123237010BD740000200000000046
:10022000586C000808B5034B1BB103490348AFF3F2
:10023000008008BD0000000078000020586C000815
:10024000034613F8012B002AFBD1181A0138704716
:1002500053B94AB9002908BF00281CBF4FF0FF312D
:100260004FF0FF3000F074B9ADF1080C6DE904CE29
:1002700000F006F8DDF804E0DDE9022304B0704781
:100280002DE9F047089D04468E46002B4DD18A4249
:10029000944669D9B2FA82F252B101FA02F3C2F17C
:1002A000200120FA01F10CFA02FC41EA030E94400D
:1002B0004FEA1C48210CBEFBF8F61FFA8CF708FB2E
:1002C00016E341EA034306FB07F199420AD91CEB06
:1002D000030306F1FF3080F01F81994240F21C8138
:1002E000023E63445B1AA4B2B3FBF8F008FB103380
:1002F00044EA034400FB07F7A7420AD91CEB0404B5
:1003000000F1FF3380F00A81A74240F20781644484
:10031000023840EA0640E41B00261DB1D440002309
:10032000C5E900433146BDE8F0878B4209D9002D6D
:1003300000F0EF800026C5E9000130463146BDE8F7
:10034000F087B3FA83F6002E4AD18B4202D3824261
:1003500000F2F980841A61EB030301209E46002D10
:10036000E0D0C5E9004EDDE702B9FFDEB2FA82F265
:10037000002A40F09280A1EB0C014FEA1C471FFAC3
:100380008CFE0126200CB1FBF7F307FB131140EAAA
:1003900001410EFB03F0884208D91CEB010103F177
:1003A000FF3802D2884200F2CB804346091AA4B239
:1003B000B1FBF7F007FB101144EA01440EFB00FE0D
:1003C000A64508D91CEB040400F1FF3102D2A64572
:1003D00000F2BB800846A4EB0E0440EA03409CE711
:1003E000C6F12007B34022FA07FC4CEA030C20FABE
:1003F00007F401FA06F31C43F9404FEA1C4900FADE
:1004000006F3B1FBF9F8200C1FFA8CFE09FB18115A
:1004100040EA014108FB0EF0884202FA06F20BD9CD
:100420001CEB010108F1FF3A80F08880884240F21D
:100430008580A8F102086144091AA4B2B1FBF9F061
:1004400009FB101144EA014100FB0EFE8E4508D95C
:100450001CEB010100F1FF346CD28E456AD90238E1
:10046000614440EA0840A0FB0294A1EB0E01A142C6
:10047000C846A64656D353D05DB1B3EB080261EB34
:100480000E0101FA07F722FA06F3F1401F43C5E90E
:10049000007100263146BDE8F087C2F12003D84044
:1004A0000CFA02FC21FA03F3914001434FEA1C4786
:1004B0001FFA8CFEB3FBF7F007FB10360B0C43EA78
:1004C000064300FB0EF69E4204FA02F408D91CEB28
:1004D000030300F1FF382FD29E422DD90238634426
:1004E0009B1B89B2B3FBF7F607FB163341EA0341C6
:1004F00006FB0EF38B4208D91CEB010106F1FF3815
:1005000016D28B4214D9023E6144C91A46EA00460B
:1005100038E72E46284605E70646E3E61846F8E69D
:100520004B45A9D2B9EB020864EB0C0E0138A3E7E6
:100530004646EAE7204694E74046D1E7D0467BE7C7
:10054000023B614432E7304609E76444023842E73F
:10055000704700BFB0B500AF00F005FC00F04AF8EE
:1005600000F038F900F0D8F800F006F900F0B0F823
:10057000164802F0A9F9164A164B14461D460FCD2F
:100580000FC495E80F0084E80F001148FFF758FEEC
:1005900003469AB24FF0FF330D490F4802F0D0FCEA
:1005A00003F068FC0D4A00210D4803F0CDFC034622
:1005B0000C4A13600C4A00210C4803F0C5FC0346AA
:1005C0000B4A136003F08AFCFEE700BF9000002096
:1005D00074060020886C0008DC000020C46C000851
:1005E000190900086C060020E86C000829090008B9
:1005F0007006002080B594B000AF07F11C033422D0
:100600000021184606F05EFA07F1080300221A607E
:100610005A609A60DA601A6101F000F82A4B1B6C8C
:10062000294A43F080531364274B1B6C03F080531B
:100630007B607B68254B1B6823F44043234A43F4CB
:1006400080431360214B1B6803F440433B603B68CD
:100650000323FB614FF4A0233B620123BB62102301
:10066000FB6202237B634FF48003BB631923FB63AC
:100670004FF4D8733B6402237B640923BB640223D9
:10068000FB6407F11C03184600F0D8FF0346002B5B
:1006900001D000F06BF90F23BB600023FB60002347
:1006A0003B6100237B610023BB6107F1080300214C
:1006B000184601F071FA0346002B01D000F056F9FC
:1006C00000BF5037BD4680BD00380240007000407A
:1006D00080B500AF0E4B0F4A1A600D4B42F21072FC
:1006E0005A600B4B00229A60094B4FF6FF72DA609A
:1006F000074B00221A61064B00229A61044802F05F
:100700008BF80346002B01D000F030F900BF80BD0C
:10071000900000200044014080B500AF144B154A02
:100720001A60134B4FF4E1325A60114B00229A6069
:100730000F4B0022DA600E4B00221A610C4B0C2288
:100740005A610B4B00229A61094B0022DA61084B77
:1007500000221A62064B00225A62054802F0A2FBF0
:100760000346002B01D000F001F900BF80BD00BF9F
:10077000DC0000200048004080B500AF144B4FF073
:10078000A0421A60124B06225A60114B0222DA6014
:100790000F4B00221A610E4B02229A610C4B012270
:1007A000DA610B4B00221A62094B00225A62084B95
:1007B0000122DA62064B00221A63054800F0E5FDCB
:1007C0000346002B01D000F0D1F800BF80BD00BF70
:1007D0006401002080B58CB000AF07F11C0300223B
:1007E0001A605A609A60DA601A61474B1B6B464A7E
:1007F00043F004031363444B1B6B03F00403BB611E
:10080000BB69414B1B6B404A43F0800313633E4B73
:100810001B6B03F080037B617B693B4B1B6B3A4A8C
:1008200043F002031363384B1B6B03F002033B617D
:100830003B69354B1B6B344A43F008031363324B5F
:100840001B6B03F00803FB60FB682F4B1B6B2E4AEE
:1008500043F0400313632C4B1B6B03F04003BB605E
:10086000BB68294B1B6B284A43F001031363264BDB
:100870001B6B03F001037B607B68002244F2810163
:10088000224800F04FFD00224021214800F04AFD9F
:100890004FF40053FB614FF488133B6200237B62EB
:1008A00007F11C0319461B4800F090FB44F281033A
:1008B000FB6101233B6200237B620023BB6207F1E3
:1008C0001C031946114800F081FB4023FB61012302
:1008D0003B6200237B620023BB6207F11C031946C5
:1008E0000B4800F073FB8023FB6100233B62002375
:1008F0007B6207F11C031946054800F067FB00BF47
:100900003037BD4680BD00BF0038024000040240C1
:10091000001802400008024080B582B000AF786045
:10092000012003F0B7FBFBE780B582B000AF786031
:100930000121044800F00FFD4FF47A7003F0AAFB88
:10094000F6E700BF0004024080B582B000AF7860D7
:100950007B681B68044A934201D100F011FA00BF82
:100960000837BD4680BD00BF0004004080B400AF22
:1009700072B600BFFEE7000080B582B000AF114B39
:100980001B6C104A43F0805313640E4B1B6C03F036
:1009900080537B607B680B4B5B6C0A4A43F480435B
:1009A0005364084B5B6C03F480433B603B6800225C
:1009B0000F216FF0010000F0DFFA00BF0837BD46DD
:1009C00080BD00BF0038024080B485B000AF7860C1
:1009D0007B681B680A4A93420BD10A4B5B6C094A3D
:1009E00043F400335364074B5B6C03F40033FB6048
:1009F000FB6800BF1437BD465DF8047B704700BF3D
:100A0000004401400038024080B5AEB000AF7860CD
:100A100007F1A40300221A605A609A60DA601A6132
:100A200007F1140390220021184606F04BF87B686A
:100A30001B68224A93423CD14FF480737B610023B0
:100A40003B6607F11403184601F0BEFA0346002B7B
:100A500001D0FFF78BFF1A4B1B6C194A43F480231C
:100A60001364174B1B6C03F480233B613B69144BED
:100A70001B6B134A43F008031363114B1B6B03F00A
:100A80000803FB60FB684FF44073C7F8A4300223EF
:100A9000C7F8A8300023C7F8AC300323C7F8B0303C
:100AA0000723C7F8B43007F1A4031946054800F03E
:100AB0008DFA00BFB837BD4680BD00BF004800407A
:100AC00000380240000C024080B5AEB000AF786044
:100AD00007F1A40300221A605A609A60DA601A6172
:100AE00007F1140390220021184605F0EBFF7B6804
:100AF0001B68B3F1A04F59D14FF400137B61002361
:100B0000C7F8903007F11403184601F05DFA034668
:100B1000002B01D0FFF72AFF264B1B6B254A43F021
:100B200001031363234B1B6B03F001033B613B6920
:100B30004FF4C853C7F8A4300223C7F8A8300023E5
:100B4000C7F8AC300323C7F8B0300A23C7F8B43075
:100B500007F1A4031946184800F038FA4FF400735F
:100B6000C7F8A4300023C7F8A8300023C7F8AC307A
:100B700007F1A4031946104800F028FA0D4B5B6BEF
:100B80000C4A43F0800353630A4B5B6B03F0800312
:100B9000FB60FB68074B5B6C064A43F4804353647D
:100BA000044B5B6C03F48043BB60BB6800BFB83789
:100BB000BD4680BD003802400000024080B58EB0C6
:100BC00000AF78600023FB620023BB62334B1B6CD9
:100BD000324A43F002031364304B1B6C03F00203F0
:100BE000FB60FB6807F1100207F114031146184679
:100BF00001F0B8F93B6AFB62FB6A002B03D101F0FC
:100C000089F9786304E001F085F903465B007B63B2
:100C10007B6B234AA2FB03239B0C013BBB62214B52
:100C2000214A1A601F4B40F2E732DA601D4ABB6A64
:100C300053601C4B00221A611A4B00229A60194B18
:100C400000229A61174801F0E7FD034687F8333028
:100C500097F83330002B1BD1124801F0A5FE034654
:100C600087F8333097F83330002B11D11D2000F076
:100C70009FF97B680F2B08D8002279681D2000F0AF
:100C80007BF90A4A7B68136002E0012387F833305E
:100C900097F8333018463837BD4680BD00380240DB
:100CA00083DE1B43F4060020000400400400002003
:100CB00080B400AFFEE780B400AFFEE780B400AFC1
:100CC000FEE780B400AFFEE780B400AFFEE780B47B
:100CD00000AF00BFBD465DF8047B704780B500AF34
:100CE000024801F0D9FE00BF80BD00BFF40600201D
:100CF00080B400AF064BD3F88830054A43F4700344
:100D0000C2F8883000BFBD465DF8047B704700BF65
:100D100000ED00E0DFF834D00D480E490E4A002304
:100D200002E0D458C4500433C4188C42F9D30B4A9F
:100D30000B4C002301E013600432A242FBD3FFF707
:100D4000D7FF05F08BFEFFF705FC70470000082079
:100D50000000002074000020946D00087400002042
:100D600054510020FEE780B500AF032000F0F9F8F1
:100D70000F20FFF723FFFFF7FFFD0023184680BD7C
:100D800080B400AF064B1B781A46064B1B68134411
:100D9000044A136000BFBD465DF8047B704700BF86
:100DA000080000204007002080B400AF034B1B6800
:100DB0001846BD465DF8047B704700BF4007002021
:100DC00080B584B000AF7860FFF7EEFFB8607B6855
:100DD000FB60FB68B3F1FF3F05D00A4B1B781A4656
:100DE000FB681344FB6000BFFFF7DEFF0246BB68F1
:100DF000D31AFA689A42F7D800BF00BF1037BD4631
:100E000080BD00BF0800002080B485B000AF7860CE
:100E10007B6803F00703FB600B4BDB68BB60BA68C1
:100E20004FF6FF031340BB60FB681A02BB681A430E
:100E3000064B1343BB60044ABB68D36000BF143742
:100E4000BD465DF8047B704700ED00E00000FA0548
:100E500080B400AF044BDB681B0A03F0070318469D
:100E6000BD465DF8047B704700ED00E080B483B0C0
:100E700000AF0346FB7197F90730002B0BDBFB79C2
:100E800003F01F02074997F907305B09012000FAB8
:100E900002F241F8232000BF0C37BD465DF8047B09
:100EA000704700BF00E100E080B483B000AF0346AC
:100EB0003960FB7197F90730002B0ADB3B68DAB227
:100EC0000C4997F907301201D2B20B4483F8002382
:100ED0000AE03B68DAB20849FB7903F00F03043BF0
:100EE0001201D2B20B441A7600BF0C37BD465DF832
:100EF000047B704700E100E000ED00E080B489B0C1
:100F000000AFF860B9607A60FB6803F00703FB612B
:100F1000FB69C3F10703042B28BF0423BB61FB69F2
:100F20000433062B02D9FB69033B00E000237B61FD
:100F30004FF0FF32BB6902FA03F3DA43BB681A4091
:100F40007B699A404FF0FF317B6901FA03F3D94383
:100F50007B680B40134318462437BD465DF8047B7D
:100F6000704780B582B000AF78607868FFF74CFFBB
:100F700000BF0837BD4680BD80B586B000AF0346D0
:100F8000B9607A60FB7300237B61FFF761FF7861D2
:100F90007A68B9687869FFF7B1FF024697F90F30B0
:100FA00011461846FFF780FF00BF1837BD4680BDC9
:100FB00080B582B000AF0346FB7197F90730184641
:100FC000FFF754FF00BF0837BD4680BD80B489B02D
:100FD00000AF786039600023FB6100237B61002350
:100FE0003B610023BB610023FB6175E10122FB69CA
:100FF00002FA03F37B613B681B687A6913403B612B
:101000003A697B699A4240F064813B685B6803F00F
:101010000303012B05D03B685B6803F00303022B3D
:1010200030D17B689B68BB61FB695B00032202FADD
:1010300003F3DB43BA691340BB613B68DA68FB69C1
:101040005B0002FA03F3BA691343BB617B68BA69B8
:101050009A607B685B68BB610122FB6902FA03F35B
:10106000DB43BA691340BB613B685B681B0903F053
:101070000102FB6902FA03F3BA691343BB617B689F
:10108000BA695A603B685B6803F00303032B17D00F
:101090007B68DB68BB61FB695B00032202FA03F338
:1010A000DB43BA691340BB613B689A68FB695B002C
:1010B00002FA03F3BA691343BB617B68BA69DA6069
:1010C0003B685B6803F00303022B23D1FB69DA085A
:1010D0007B68083253F82230BB61FB6903F00703D9
:1010E0009B000F2202FA03F3DB43BA691340BB6192
:1010F0003B681A69FB6903F007039B0002FA03F3DC
:10110000BA691343BB61FB69DA087B680832B969C5
:1011100043F822107B681B68BB61FB695B000322FC
:1011200002FA03F3DB43BA691340BB613B685B68B7
:1011300003F00302FB695B0002FA03F3BA6913438D
:10114000BB617B68BA691A603B685B6803F4403333
:10115000002B00F0BE80664B5B6C654A43F4804315
:101160005364634B5B6C03F48043FB60FB68614A30
:10117000FB699B08023352F82330BB61FB6903F023
:1011800003039B000F2202FA03F3DB43BA69134007
:10119000BB617B68584A934237D07B68574A934279
:1011A00031D07B68564A93422BD07B68554A934294
:1011B00025D07B68544A93421FD07B68534A9342A0
:1011C00019D07B68524A934213D07B68514A9342AC
:1011D0000DD07B68504A934207D07B684F4A9342B8
:1011E00001D1092312E00A2310E008230EE00723AF
:1011F0000CE006230AE0052308E0042306E00323AD
:1012000004E0022302E0012300E00023FA6902F077
:10121000030292009340BA691343BB613549FB69ED
:101220009B080233BA6941F823203D4B9B68BB61A0
:101230003B69DB43BA691340BB613B685B6803F4FD
:101240008013002B03D0BA693B691343BB61344A56
:10125000BB699360324BDB68BB613B69DB43BA69B6
:101260001340BB613B685B6803F40013002B03D0A1
:10127000BA693B691343BB61294ABB69D360284BF8
:101280005B68BB613B69DB43BA691340BB613B6888
:101290005B6803F40033002B03D0BA693B69134346
:1012A000BB611F4ABB6953601D4B1B68BB613B6937
:1012B000DB43BA691340BB613B685B6803F480336E
:1012C000002B03D0BA693B691343BB61144ABB6965
:1012D0001360FB690133FB61FB690F2B7FF686AE60
:1012E00000BF00BF2437BD465DF8047B704700BFD8
:1012F0000038024000380140000002400004024073
:1013000000080240000C024000100240001402409D
:1013100000180240001C024000200240002402404D
:10132000003C014080B483B000AF78600B467B8006
:1013300013467B707B78002B03D07A887B689A6198
:1013400003E07B881A047B689A6100BF0C37BD46B6
:101350005DF8047B704780B485B000AF78600B46C1
:101360007B807B685B69FB607A88FB6813401A04AA
:10137000FB68D9437B880B401A437B689A6100BFA6
:101380001437BD465DF8047B7047F0B58FB00AAFE7
:1013900078607B68002B01D1012316E17B681B6814
:1013A000BB607B6893F8BD34DBB2002B06D17B6851
:1013B000002283F8BC247868FFF786FB7B68032251
:1013C00083F8BD24BB68DB6B03F48073002B02D170
:1013D0007B6800221A617B681B68184602F0A6FA37
:1013E0007B681B683B607E686D4606F110040FCC7D
:1013F0000FC50FCC0FC594E8030085E80300331D2B
:101400000ECB386802F03AFA0346002B05D07B6811
:10141000022283F8BD240123D7E07B681B680021EA
:10142000184602F094FA0023FB734AE0FA7B7968CD
:101430001346DB0013449B000B443D3301221A701A
:10144000FA7B79681346DB0013449B000B443C3362
:10145000FA7B1A70FA7BFB7B98B279681346DB0043
:1014600013449B000B44443302461A80FA7B79688C
:101470001346DB0013449B000B44403300221A70D8
:10148000FA7B79681346DB0013449B000B44483316
:1014900000221A60FA7B79681346DB0013449B0034
:1014A0000B444C3300221A60FA7B79681346DB0048
:1014B00013449B000B44543300221A60FB7B01331E
:1014C000FB73FA7B7B685B689A42AFD30023FB73A4
:1014D00044E0FA7B79681346DB0013449B000B441D
:1014E00003F27D2300221A70FA7B79681346DB0031
:1014F00013449B000B4403F51F73FA7B1A70FA7BAD
:1015000079681346DB0013449B000B4403F52073FA
:1015100000221A70FA7B79681346DB0013449B00A3
:101520000B4403F5227300221A60FA7B7968134694
:10153000DB0013449B000B4403F5237300221A6065
:10154000FA7B79681346DB0013449B000B4403F5D8
:10155000257300221A60FB7B0133FB73FA7B7B68E7
:101560005B689A42B5D37B681B683B607E686D46BA
:1015700006F110040FCC0FC50FCC0FC594E8030083
:1015800085E80300331D0ECB386802F02DFA0346C0
:10159000002B05D07B68022283F8BD24012314E0D0
:1015A0007B68002283F838207B68012283F8BD2401
:1015B0007B685B6A012B02D1786800F00BF87B68CE
:1015C0001B68184602F0EBFB002318461437BD4693
:1015D000F0BD000080B485B000AF78607B681B6808
:1015E000FB607B680122C3F800257B68002283F83A
:1015F000F424FB689B6943F00062FB689A61FB6816
:101600005A6D054B1343FA68536500231846143787
:10161000BD465DF8047B70470300001080B400AF46
:10162000054B1B68044A43F48073136000BFBD463A
:101630005DF8047B704700BF0070004080B586B045
:1016400000AF78600023FB757B68002B01D101237C
:101650009BE27B681B6803F00103002B00F087808E
:10166000964B9B6803F00C03042B0CD0934B9B68A8
:1016700003F00C03082B12D1904B5B6803F480033A
:10168000B3F5800F0BD18D4B1B6803F40033002B97
:101690006CD07B685B68002B68D1012375E27B68A6
:1016A0005B68B3F5803F06D1844B1B68834A43F4E3
:1016B000803313602EE07B685B68002B0CD17F4B7E
:1016C0001B687E4A23F4803313607C4B1B687B4A83
:1016D00023F4802313601DE07B685B68B3F5A02FC3
:1016E0000CD1764B1B68754A43F480231360734B0F
:1016F0001B68724A43F4803313600BE06F4B1B6826
:101700006E4A23F4803313606C4B1B686B4A23F4DE
:10171000802313607B685B68002B13D0FFF744FBCA
:10172000386108E0FFF740FB02463B69D31A642B9F
:1017300001D9032329E2614B1B6803F40033002B1A
:10174000F0D014E0FFF730FB386108E0FFF72CFB26
:1017500002463B69D31A642B01D9032315E2574B88
:101760001B6803F40033002BF0D100E000BF7B685E
:101770001B6803F00203002B69D0504B9B6803F0F9
:101780000C03002B0BD04D4B9B6803F00C03082B74
:101790001CD14A4B5B6803F48003002B16D1474BE6
:1017A0001B6803F00203002B05D07B68DB68012B6C
:1017B00001D00123E9E1414B1B6823F0F8027B686B
:1017C0001B69DB003D4913430B6040E07B68DB682D
:1017D000002B23D0394B1B68384A43F001031360B8
:1017E000FFF7E2FA386108E0FFF7DEFA02463B69EC
:1017F000D31A022B01D90323C7E1304B1B6803F036
:101800000203002BF0D02D4B1B6823F0F8027B68FD
:101810001B69DB00294913430B6018E0274B1B6849
:10182000264A23F001031360FFF7BEFA386108E08F
:10183000FFF7BAFA02463B69D31A022B01D90323F8
:10184000A3E11E4B1B6803F00203002BF0D17B6861
:101850001B6803F00803002B38D07B685B69002B02
:1018600019D0164B5B6F154A43F001035367FFF71E
:101870009BFA386108E0FFF797FA02463B69D31AF2
:10188000022B01D9032380E10C4B5B6F03F00203B1
:10189000002BF0D01AE0094B5B6F084A23F00103DC
:1018A0005367FFF781FA38610AE0FFF77DFA0246D5
:1018B0003B69D31A022B03D9032366E100380240A7
:1018C000924B5B6F03F00203002BEED17B681B6829
:1018D00003F00403002B00F0A4808C4B1B6C03F07E
:1018E0008053002B0DD1894B1B6C884A43F08053E9
:1018F0001364864B1B6C03F08053BB60BB680123F1
:10190000FB75834B1B6803F48073002B18D1804B4D
:101910001B687F4A43F480731360FFF745FA386110
:1019200008E0FFF741FA02463B69D31A642B01D95C
:1019300003232AE1764B1B6803F48073002BF0D05D
:101940007B689B68012B06D1704B1B6F6F4A43F07D
:10195000010313672DE07B689B68002B0CD16B4B58
:101960001B6F6A4A23F001031367684B1B6F674ABA
:1019700023F0040313671CE07B689B68052B0CD1E4
:10198000624B1B6F614A43F0040313675F4B1B6F8D
:101990005E4A43F0010313670BE05C4B1B6F5B4A2D
:1019A00023F001031367594B1B6F584A23F00403BC
:1019B00013677B689B68002B15D0FFF7F5F938613A
:1019C0000AE0FFF7F1F902463B69D31A41F2883287
:1019D000934201D90323D8E04C4B1B6F03F0020361
:1019E000002BEED014E0FFF7DFF938610AE0FFF7D3
:1019F000DBF902463B69D31A41F28832934201D99E
:101A00000323C2E0414B1B6F03F00203002BEED116
:101A1000FB7D012B05D13D4B1B6C3C4A23F08053D1
:101A200013647B689B69002B00F0AE80374B9B688A
:101A300003F00C03082B6DD07B689B69022B4BD104
:101A4000324B1B68314A23F080731360FFF7ACF907
:101A5000386108E0FFF7A8F902463B69D31A022B68
:101A600001D9032391E0294B1B6803F00073002B7D
:101A7000F0D17B68DA697B681B6A1A437B685B6A12
:101A80009B011A437B689B6A5B08013B1B041A435A
:101A90007B68DB6A1B061A437B681B6B1B071B49B1
:101AA00013434B60194B1B68184A43F08073136053
:101AB000FFF77AF9386108E0FFF776F902463B69EB
:101AC000D31A022B01D903235FE0104B1B6803F0EC
:101AD0000073002BF0D057E00C4B1B680B4A23F02F
:101AE00080731360FFF760F9386108E0FFF75CF975
:101AF00002463B69D31A022B01D9032345E0034B6D
:101B00001B6803F00073002BF0D13DE00038024069
:101B1000007000401F4B5B68FB607B689B69012B7A
:101B200030D0FB6803F480027B68DB699A4229D1DC
:101B3000FB6803F03F027B681B6A9A4222D1FA6875
:101B400047F6C07313407A68526A9201934219D1E2
:101B5000FB6803F440327B689B6A5B08013B1B0413
:101B60009A420FD1FB6803F070627B68DB6A1B0648
:101B70009A4207D1FB6803F0E0427B681B6B1B07AE
:101B80009A4201D0012300E0002318461837BD46D1
:101B900080BD00BF0038024080B584B000AF7860DF
:101BA00039600023FB607B68002B01D10123D0E06A
:101BB0006A4B1B6803F00F033A689A4210D9674BCF
:101BC0001B6823F00F0265493B6813430B60634BAE
:101BD0001B6803F00F033A689A4201D00123B8E072
:101BE0007B681B6803F00203002B20D07B681B6816
:101BF00003F00403002B05D0594B9B68584A43F46B
:101C0000E05393607B681B6803F00803002B05D04A
:101C1000534B9B68524A43F460439360504B9B681C
:101C200023F0F0027B689B684D4913438B607B680F
:101C30001B6803F00103002B40D07B685B68012B1D
:101C400007D1474B1B6803F40033002B15D1012348
:101C50007FE07B685B68022B07D1414B1B6803F078
:101C60000073002B09D1012373E03D4B1B6803F087
:101C70000203002B01D101236BE0394B9B6823F059
:101C800003027B685B68364913438B60FFF78CF86F
:101C9000F8600AE0FFF788F80246FB68D31A41F2C1
:101CA0008832934201D9032353E02D4B9B6803F004
:101CB0000C027B685B689B009A42EBD1274B1B6848
:101CC00003F00F033A689A4210D2244B1B6823F0AA
:101CD0000F0222493B6813430B60204B1B6803F043
:101CE0000F033A689A4201D0012332E07B681B68F7
:101CF00003F00403002B08D0194B9B6823F4E05237
:101D00007B68DB68164913438B607B681B6803F0B4
:101D10000803002B09D0124B9B6823F460427B68B8
:101D20001B69DB000E4913438B6000F021F802466B
:101D30000B4B9B681B0903F00F030A49CB5C22FA8B
:101D400003F3094A1360094B1B681846FEF736FF78
:101D5000002318461037BD4680BD00BF003C02403E
:101D6000003802400C6D0008000000200400002034
:101D70002DE9B04F90B000AF00237B630023FB63DD
:101D800000233B630023BB63594B9B6803F00C03A8
:101D9000082B0DD0082B00F2A180002B02D0042BC1
:101DA00003D09BE0534BBB639BE0534BBB6398E07A
:101DB0004F4B5B6803F03F037B634D4B5B6803F461
:101DC0008003002B28D04A4B5B689B0900223B62B2
:101DD0007A623B6AC3F308000021474B03FB01F220
:101DE000002300FB03F31344434AA0FB0212FA62F0
:101DF0000A46BA62FA6A1344FB627B6B0022BB613B
:101E0000FA61D7E90623D7E90A01FEF721FA02466B
:101E10000B461346FB6353E0354B5B689B0900227E
:101E20003B617A613B69C3F3080A4FF0000B5246ED
:101E30005B464FF000004FF00001590141EAD261CA
:101E4000500102460B46B2EB0A0863EB0B094FF058
:101E500000024FF000034FEA891343EA98634FEA08
:101E60008812B2EB080463EB09054FF000024FF053
:101E70000003EB0043EA5473E20014461D4614EBE2
:101E80000A033B6045EB0B037B604FF000024FF011
:101E90000003D7E9004529468B02214643EA9153C6
:101EA00021468A02104619467B6B0022BB60FA600D
:101EB000D7E90223FEF7CCF902460B461346FB6333
:101EC0000B4B5B681B0C03F0030301335B003B63AC
:101ED000FA6B3B6BB2FBF3F3BB6302E0054BBB63F6
:101EE00000BFBB6B18464037BD46BDE8B08F00BF92
:101EF000003802400024F40040787D0180B400AF37
:101F0000034B1B681846BD465DF8047B704700BF55
:101F10000000002080B500AFFFF7F0FF0246054B40
:101F20009B689B0A03F007030349CB5C22FA03F387
:101F3000184680BD003802401C6D000880B500AF17
:101F4000FFF7DCFF0246054B9B685B0B03F00703C2
:101F50000349CB5C22FA03F3184680BD00380240E7
:101F60001C6D000880B483B000AF786039607B6876
:101F70000F221A60124B9B6803F003027B685A60C1
:101F80000F4B9B6803F0F0027B689A600C4B9B68D8
:101F900003F4E0527B68DA60094B9B68DB0803F4CA
:101FA000E0527B681A61074B1B6803F00F023B6825
:101FB0001A6000BF0C37BD465DF8047B704700BF58
:101FC00000380240003C024080B588B000AF786025
:101FD00000237B6100233B610023FB600023FB6146
:101FE0000023BB617B681B6803F00103002B12D048
:101FF000694B9B68684A23F400039360664B9A68B8
:102000007B685B6B644913438B607B685B6B002B65
:1020100001D10123FB617B681B6803F40023002BC3
:1020200017D05D4BD3F88C3023F440127B68DB6B08
:1020300059491343C1F88C307B68DB6BB3F5801FC3
:1020400001D10123FB617B68DB6B002B01D10123F4
:10205000BB617B681B6803F48013002B17D04E4BC9
:10206000D3F88C3023F440027B681B6C4A4913433D
:10207000C1F88C307B681B6CB3F5800F01D1012354
:10208000FB617B681B6C002B01D10123BB617B686A
:102090001B6803F08073002B01D00123FB617B6878
:1020A0001B6803F02003002B00F08B803A4B1B6C65
:1020B000394A43F080531364374B1B6C03F0805351
:1020C000BB60BB68354B1B68344A43F480731360B4
:1020D000FEF76AFE786108E0FEF766FE02467B695D
:1020E000D31A642B01D903238FE32C4B1B6803F411
:1020F0008073002BF0D0284B1B6F03F440733B61BF
:102100003B69002B35D07B681B6B03F440733A6945
:102110009A422ED0204B1B6F23F440733B611E4B21
:102120001B6F1D4A43F4803313671B4B1B6F1A4A06
:1021300023F480331367184A3B691367164B1B6FF0
:1021400003F00103012B14D1FEF72EFE78610AE0A3
:10215000FEF72AFE02467B69D31A41F28832934287
:1021600001D9032351E30C4B1B6F03F00203002B37
:10217000EED07B681B6B03F44073B3F5407F11D145
:10218000054B9B6823F4F8127B68196B044B0B40DA
:10219000014913438B600BE000380240007000409F
:1021A000FFFCFF0FAC4B9B68AB4A23F4F813936022
:1021B000A94B1A6F7B681B6BC3F30B03A649134330
:1021C0000B677B681B6803F01003002B10D0A24B39
:1021D000D3F88C30A04A23F08073C2F88C309E4B29
:1021E000D3F88C207B689B6B9B491343C1F88C30E0
:1021F0007B681B6803F48043002B0AD0964BD3F80E
:10220000903023F440327B685B6E93491343C1F8EE
:1022100090307B681B6803F40043002B0AD08E4B80
:10222000D3F8903023F440227B689B6E8A49134395
:10223000C1F890307B681B6803F48033002B0AD010
:10224000854BD3F8903023F440127B68DB6E8249D3
:102250001343C1F890307B681B6803F40033002BF4
:102260000AD07D4BD3F8903023F440027B681B6F7B
:1022700079491343C1F890307B681B6803F0400331
:10228000002B0AD0744BD3F8903023F003027B6804
:102290005B6C71491343C1F890307B681B6803F095
:1022A0008003002B0AD06C4BD3F8903023F00C0243
:1022B0007B689B6C68491343C1F890307B681B684E
:1022C00003F48073002B0AD0634BD3F8903023F0D3
:1022D00030027B68DB6C60491343C1F890307B6847
:1022E0001B6803F40073002B0AD05B4BD3F89030CB
:1022F00023F0C0027B681B6D57491343C1F890302F
:102300007B681B6803F48063002B0AD0524BD3F820
:10231000903023F440727B685B6D4F491343C1F8E2
:1023200090307B681B6803F40063002B0AD04A4B93
:10233000D3F8903023F440627B689B6D4649134389
:10234000C1F890307B681B6803F48053002B0AD0DF
:10235000414BD3F8903023F440527B68DB6D3E490B
:102360001343C1F890307B681B6803F40053002BC3
:102370000AD0394BD3F8903023F440427B681B6E6F
:1023800035491343C1F890307B681B6803F4800320
:10239000002B0AD0304BD3F8903023F080627B685A
:1023A0009B6F2D491343C1F890307B681B6803F481
:1023B0000013002B11D0284BD3F8903023F000628B
:1023C0007B68DB6F24491343C1F890307B68DB6F77
:1023D000B3F1006F01D10123BB617B681B6803F07F
:1023E0000803002B01D00123BB617B681B6803F449
:1023F0008023002B0AD0184BD3F8903023F0407282
:102400007B685B6F14491343C1F890307B681B688D
:1024100003F40003002B0BD00F4BD3F8903023F0C4
:1024200080527B68D3F880300B491343C1F8903059
:102430007B681B6803F08063002B0FD0064BD3F83A
:10244000903023F000527B68D3F884300249134364
:10245000C1F8903002E000BF003802407B681B6882
:1024600003F00063002B0BD08A4BD3F88C3023F0A1
:1024700000727B68D3F8883086491343C1F88C30EA
:102480007B681B6803F08053002B0BD0814BD3F883
:102490008C3023F080627B68D3F88C307D49134305
:1024A000C1F88C30FB69012B06D07B681B6803F0F8
:1024B0000073002B00F0D680764B1B68754A23F022
:1024C00080631360FEF770FC786108E0FEF76CFC37
:1024D00002467B69D31A642B01D9032395E16D4B26
:1024E0001B6803F00063002BF0D17B681B6803F0CE
:1024F0000103002B21D07B685B6B002B1DD1654B4A
:10250000D3F884301B0C03F003033B61614BD3F819
:1025100084301B0E03F00F03FB607B685B689A013D
:102520003B691B041A43FB681B061A437B689B68C4
:102530001B0758491343C1F884307B681B6803F4B8
:102540000023002B04D07B68DB6BB3F5801F0AD01F
:102550007B681B6803F48013002B2ED07B681B6CF8
:10256000B3F5800F29D14B4BD3F884301B0C03F00B
:1025700003033B61474BD3F884301B0F03F0070381
:10258000FB607B685B689A013B691B041A437B68AC
:10259000DB681B061A43FB681B073E491343C1F85F
:1025A00084303C4BD3F88C3023F01F027B685B6A8D
:1025B000013B38491343C1F88C307B681B6803F03A
:1025C0008073002B1DD0334BD3F884301B0E03F0E7
:1025D0000F033B612F4BD3F884301B0F03F007032D
:1025E000FB607B685B689A017B681B691B041A436C
:1025F0003B691B061A43FB681B0726491343C1F8B6
:1026000084307B681B6803F00073002B11D07B685B
:102610005B689A017B681B691B041A437B68DB6853
:102620001B061A437B689B681B071A491343C1F8B2
:102630008430184B1B68174A43F080631360FEF721
:10264000B3FB786108E0FEF7AFFB02467B69D31A63
:10265000642B01D90323D8E00E4B1B6803F0006301
:10266000002BF0D0BB69012B40F0CE80094B1B68DA
:10267000084A23F080531360FEF796FB78610BE065
:10268000FEF792FB02467B69D31A642B04D903231D
:10269000BBE000BF003802405E4B1B6803F00053F4
:1026A000B3F1005FECD07B681B6803F40023002BC0
:1026B00003D07B68DB6B002B09D07B681B6803F4BD
:1026C0008013002B2ED07B681B6C002B2AD1514B22
:1026D000D3F888301B0C03F003033B614D4BD3F858
:1026E00088301B0F03F00703FB607B685B699A016E
:1026F0003B691B041A437B689B691B061A43FB68F2
:102700001B0744491343C1F88830424BD3F88C303F
:1027100023F4F8527B689B6A013B1B023D4913433B
:10272000C1F88C307B681B6803F40013002B22D0A7
:102730007B68DB6FB3F1006F1DD1364BD3F8883067
:102740001B0E03F00F033B61324BD3F888301B0F95
:1027500003F00703FB607B685B699A017B681B6A77
:102760001B041A433B691B061A43FB681B072949D4
:102770001343C1F888307B681B6803F00803002B03
:1027800028D0244BD3F888301B0E03F00F033B6195
:10279000204BD3F888301B0C03F00303FB607B68ED
:1027A0005B699A01FB681B041A433B691B061A43C9
:1027B0007B68DB691B0717491343C1F88830154B49
:1027C000D3F88C3023F440327B68DB6A1149134321
:1027D000C1F88C300F4B1B680E4A43F080531360D6
:1027E000FEF7E2FA786108E0FEF7DEFA02467B695E
:1027F000D31A642B01D9032307E0064B1B6803F0AF
:102800000053B3F1005FEFD1002318462037BD46D7
:1028100080BD00BF0038024080B582B000AF786054
:102820007B68002B01D1012349E07B6893F83D30A0
:10283000DBB2002B06D17B68002283F83C2078684D
:10284000FEF7C2F87B68022283F83D207B681A6895
:102850007B6804331946104600F066FA7B68012253
:1028600083F848207B68012283F83E207B680122A0
:1028700083F83F207B68012283F840207B68012297
:1028800083F841207B68012283F842207B68012283
:1028900083F843207B68012283F844207B6801226F
:1028A00083F845207B68012283F846207B6801225B
:1028B00083F847207B68012283F83D2000231846D7
:1028C0000837BD4680BD000080B485B000AF786099
:1028D0007B6893F83D30DBB2012B01D001234CE043
:1028E0007B68022283F83D207B681B68264A93425E
:1028F00022D07B681B68B3F1804F1DD07B681B68BA
:10290000224A934218D07B681B68214A934213D015
:102910007B681B681F4A93420ED07B681B681E4A67
:10292000934209D07B681B681C4A934204D07B68A1
:102930001B681B4A934215D17B681B689A68194B28
:102940001340FB60FB68062B15D0FB68B3F5803F96
:1029500011D07B681B681A687B681B6842F0010213
:102960001A6008E07B681B681A687B681B6842F085
:1029700001021A6000E000BF002318461437BD466C
:102980005DF8047B704700BF000001400004004078
:1029900000080040000C00400004014000400140DD
:1029A000001800400700010080B485B000AF7860D7
:1029B0007B6893F83D30DBB2012B01D0012354E05A
:1029C0007B68022283F83D207B681B68DA687B689D
:1029D0001B6842F00102DA607B681B68264A93425A
:1029E00022D07B681B68B3F1804F1DD07B681B68C9
:1029F000224A934218D07B681B68214A934213D025
:102A00007B681B681F4A93420ED07B681B681E4A76
:102A1000934209D07B681B681C4A934204D07B68B0
:102A20001B681B4A934215D17B681B689A68194B37
:102A30001340FB60FB68062B15D0FB68B3F5803FA5
:102A400011D07B681B681A687B681B6842F0010222
:102A50001A6008E07B681B681A687B681B6842F094
:102A600001021A6000E000BF002318461437BD467B
:102A70005DF8047B704700BF000001400004004087
:102A800000080040000C00400004014000400140EC
:102A9000001800400700010080B582B000AF7860E8
:102AA0007B681B681B6903F00203022B22D17B6841
:102AB0001B68DB6803F00203022B1BD17B681B68D9
:102AC0006FF002021A617B6801221A777B681B682B
:102AD0009B6903F00303002B03D0786800F005F92D
:102AE00005E0786800F0F7F8786800F008F97B688E
:102AF00000221A777B681B681B6903F00403042B10
:102B000022D17B681B68DB6803F00403042B1BD114
:102B10007B681B686FF004021A617B6802221A77D7
:102B20007B681B689B6903F44073002B03D07868B3
:102B300000F0DBF805E0786800F0CDF8786800F088
:102B4000DEF87B6800221A777B681B681B6903F03C
:102B50000803082B22D17B681B68DB6803F008039D
:102B6000082B1BD17B681B686FF008021A617B6819
:102B700004221A777B681B68DB6903F00303002BD0
:102B800003D0786800F0B1F805E0786800F0A3F8A9
:102B9000786800F0B4F87B6800221A777B681B68BD
:102BA0001B6903F01003102B22D17B681B68DB68C4
:102BB00003F01003102B1BD17B681B686FF0100211
:102BC0001A617B6808221A777B681B68DB6903F44B
:102BD0004073002B03D0786800F087F805E0786830
:102BE00000F079F8786800F08AF87B6800221A779C
:102BF0007B681B681B6903F00103012B0ED17B6806
:102C00001B68DB6803F00103012B07D17B681B689D
:102C10006FF001021A617868FDF796FE7B681B6809
:102C20001B6903F08003802B0ED17B681B68DB6877
:102C300003F08003802B07D17B681B686FF0800254
:102C40001A61786800F01AF97B681B681B6903F445
:102C50008073B3F5807F0ED17B681B68DB6803F05F
:102C60008003802B07D17B681B686FF480721A6128
:102C7000786800F00DF97B681B681B6903F040035E
:102C8000402B0ED17B681B68DB6803F04003402BB0
:102C900007D17B681B686FF040021A61786800F00A
:102CA00038F87B681B681B6903F02003202B0ED1CA
:102CB0007B681B68DB6803F02003202B07D17B684F
:102CC0001B686FF020021A61786800F0CDF800BF31
:102CD0000837BD4680BD80B483B000AF786000BFC8
:102CE0000C37BD465DF8047B704780B483B000AFFD
:102CF000786000BF0C37BD465DF8047B704780B438
:102D000083B000AF786000BF0C37BD465DF8047B30
:102D1000704780B483B000AF786000BF0C37BD4609
:102D20005DF8047B7047000080B485B000AF786028
:102D300039607B681B68FB607B68404A934213D014
:102D40007B68B3F1804F0FD07B683D4A93420BD034
:102D50007B683C4A934207D07B683B4A934203D04E
:102D60007B683A4A934208D1FB6823F07003FB600A
:102D70003B685B68FA681343FB607B682F4A9342A9
:102D80002BD07B68B3F1804F27D07B682C4A9342CD
:102D900023D07B682B4A93421FD07B682A4A9342F8
:102DA0001BD07B68294A934217D07B68284A9342FC
:102DB00013D07B68274A93420FD07B68264A934200
:102DC0000BD07B68254A934207D07B68244A934204
:102DD00003D07B68234A934208D1FB6823F44073F5
:102DE000FB603B68DB68FA681343FB60FB6823F019
:102DF00080023B685B691343FB607B68FA681A607A
:102E00003B689A687B68DA623B681A687B689A62FA
:102E10007B680A4A934203D07B680C4A934203D1F1
:102E20003B681A697B681A637B6801225A6100BF9C
:102E30001437BD465DF8047B704700BF00000140B9
:102E40000004004000080040000C00400004014065
:102E5000004001400044014000480140001800408B
:102E6000001C00400020004080B483B000AF7860B8
:102E700000BF0C37BD465DF8047B704780B483B05B
:102E800000AF786000BF0C37BD465DF8047B70472B
:102E900080B483B000AF786000BF0C37BD465DF8EA
:102EA000047B704780B582B000AF78607B68002BF0
:102EB00001D1012340E07B68DB6F002B06D17B68EA
:102EC000002283F878207868FDF79EFD7B68242235
:102ED000DA677B681B681A687B681B6822F001024E
:102EE0001A60786800F0B0F80346012B01D1012385
:102EF00022E07B685B6A002B02D0786800F008FB58
:102F00007B681B685A687B681B6822F490425A6091
:102F10007B681B689A687B681B6822F02A029A60AB
:102F20007B681B681A687B681B6842F001021A60A4
:102F3000786800F08FFB034618460837BD4680BD11
:102F400080B58AB002AFF860B9603B601346FB8081
:102F5000FB68DB6F202B71D1BB68002B02D0FB8894
:102F6000002B01D101236AE0FB680022C3F8842012
:102F7000FB682122DA67FDF717FF7861FB68FA88A2
:102F8000A3F85020FB68FA88A3F85220FB689B68DE
:102F9000B3F5805F08D1FB681B69002B04D10023C7
:102FA000FB61BB68BB6103E0BB68FB610023BB61E5
:102FB0002CE03B6800937B6900228021F86800F0D8
:102FC00096FB0346002B01D0032338E0FB69002B5E
:102FD0000BD1BB691B881A46FB681B68C2F3080249
:102FE0009A62BB690233BB6107E0FB691A78FB6830
:102FF0001B689A62FB690133FB61FB68B3F85230CE
:103000009BB2013B9AB2FB68A3F85220FB68B3F86D
:1030100052309BB2002BCCD13B6800937B690022DD
:103020004021F86800F063FB0346002B01D0032326
:1030300005E0FB682022DA67002300E0022318463F
:103040002037BD4680BD000080B588B000AF7860F5
:103050000023BB777B689A687B681B691A437B688F
:103060005B691A437B68DB6913437B617B681B6880
:103070001A68A64B13407A68126879690B4313608B
:103080007B681B685B6823F440517B68DA687B6867
:103090001B680A435A607B689B697B617B681B6A7B
:1030A0007A6913437B617B681B689B6823F43061FA
:1030B0007B681B687A690A439A607B681B68944A3C
:1030C000934220D1934BD3F8903003F00303032BAA
:1030D00016D801A252F823F0E9300008F5300008B4
:1030E000EF300008FB3000080123FB7750E102239A
:1030F000FB774DE10423FB774AE10823FB7747E1A7
:103100001023FB7744E17B681B68834A934232D1EA
:10311000804BD3F8903003F00C030C2B28D801A27D
:1031200052F823F05931000871310008713100085C
:1031300071310008653100087131000871310008F3
:10314000713100085F3100087131000871310008E9
:10315000713100086B3100080023FB7718E102236E
:10316000FB7715E10423FB7712E10823FB770FE1DE
:103170001023FB770CE17B681B68684A934220D1DF
:10318000644BD3F8903003F03003302B13D0302B46
:1031900014D8202B09D0202B10D8002B02D0102BB4
:1031A00006D00BE00023FB77F2E00223FB77EFE091
:1031B0000423FB77ECE00823FB77E9E01023FB779F
:1031C000E6E07B681B68564A934220D1514BD3F806
:1031D000903003F0C003C02B13D0C02B14D8802B29
:1031E00009D0802B10D8002B02D0402B06D00BE04A
:1031F0000023FB77CCE00223FB77C9E00423FB77B5
:10320000C6E00823FB77C3E01023FB77C0E07B68B0
:103210001B68444A934225D13E4BD3F8903003F4C7
:103220004073B3F5407F17D0B3F5407F17D8B3F59F
:10323000007F0BD0B3F5007F11D8002B03D0B3F57E
:10324000807F06D00BE00023FB77A1E00223FB7711
:103250009EE00423FB779BE00823FB7798E0102394
:10326000FB7795E07B681B682F4A934225D1294B59
:10327000D3F8903003F44063B3F5406F17D0B3F543
:10328000406F17D8B3F5006F0BD0B3F5006F11D8AE
:10329000002B03D0B3F5806F06D00BE00123FB7742
:1032A00076E00223FB7773E00423FB7770E00823CA
:1032B000FB776DE01023FB776AE07B681B681B4A95
:1032C000934238D1134BD3F8903003F44053B3F505
:1032D000405F17D0B3F5405F2AD8B3F5005F0BD03D
:1032E000B3F5005F24D8002B03D0B3F5805F06D080
:1032F0001EE00023FB774BE00223FB7748E004232A
:10330000FB7745E00823FB7742E000BFF369FFEF5E
:1033100000100140003802400044004000480040D6
:10332000004C004000500040001401400078004074
:103330001023FB772CE07B681B68724A934225D1EF
:10334000714BD3F8903003F44043B3F5404F17D09E
:10335000B3F5404F17D8B3F5004F0BD0B3F5004F7E
:1033600011D8002B03D0B3F5804F06D00BE000231B
:10337000FB770DE00223FB770AE00423FB7707E0ED
:103380000823FB7704E01023FB7701E01023FB7791
:103390007B68DB69B3F5004F5BD1FB7F082B28D836
:1033A00001A252F823F000BFCD330008D533000846
:1033B000DD330008F3330008E3330008F33300087B
:1033C000F3330008F3330008EB330008FEF7A2FDE7
:1033D000B86113E0FEF7B2FDB8610FE04B4BBB6183
:1033E0000CE0FEF7C5FCB86108E04FF40043BB6198
:1033F00004E00023BB610123BB7700BFBB69002B46
:1034000074D0BB695A007B685B685B081A447B68B0
:103410005B68B2FBF3F33B613B690F2B16D93B6949
:10342000B3F5803F12D23B699BB223F00F03FB81BF
:103430003B695B089BB203F007039AB2FB89134315
:10344000FB817B681B68FA89DA604FE00123BB7758
:103450004CE0FB7F082B28D801A252F823F000BFD4
:10346000853400088D34000895340008AB3400081A
:103470009B340008AB340008AB340008AB340008C0
:10348000A3340008FEF746FDB86113E0FEF756FDD1
:10349000B8610FE01D4BBB610CE0FEF769FCB86141
:1034A00008E04FF40043BB6104E00023BB6101234B
:1034B000BB7700BFBB69002B18D07B685B685A08DC
:1034C000BB691A447B685B68B2FBF3F33B613B6901
:1034D0000F2B09D93B69B3F5803F05D23B699AB2FE
:1034E0007B681B68DA6001E00123BB777B68002200
:1034F0009A667B680022DA66BB7F18462037BD4695
:1035000080BD00BF007C0040003802400024F40071
:1035100080B483B000AF78607B685B6A03F001031E
:10352000002B0AD07B681B685B6823F400317B6842
:103530009A6A7B681B680A435A607B685B6A03F07F
:103540000203002B0AD07B681B685B6823F4803180
:103550007B68DA6A7B681B680A435A607B685B6A2F
:1035600003F00403002B0AD07B681B685B6823F41C
:1035700080217B681A6B7B681B680A435A607B68F2
:103580005B6A03F00803002B0AD07B681B685B684A
:1035900023F400417B685A6B7B681B680A435A60BE
:1035A0007B685B6A03F01003002B0AD07B681B6802
:1035B0009B6823F480517B689A6B7B681B680A4385
:1035C0009A607B685B6A03F02003002B0AD07B685B
:1035D0001B689B6823F400517B68DA6B7B681B686F
:1035E0000A439A607B685B6A03F04003002B1AD0A1
:1035F0007B681B685B6823F480117B681A6C7B68AE
:103600001B680A435A607B681B6CB3F5801F0AD1A4
:103610007B681B685B6823F4C0017B685A6C7B681D
:103620001B680A435A607B685B6A03F08003002BC7
:103630000AD07B681B685B6823F400217B689A6C66
:103640007B681B680A435A6000BF0C37BD465DF8B3
:10365000047B704780B586B002AF78607B6800223B
:10366000C3F88420FDF7A0FBF8607B681B681B682B
:1036700003F00803082B0ED16FF07E430093FB6824
:1036800000224FF40011786800F031F80346002B57
:1036900001D0032327E07B681B681B6803F0040349
:1036A000042B0ED16FF07E430093FB6800224FF491
:1036B0008001786800F01BF80346002B01D003233B
:1036C00011E07B682022DA677B682022C3F8802023
:1036D0007B6800221A667B6800225A667B6800229B
:1036E00083F87820002318461037BD4680BD80B58A
:1036F0009CB000AFF860B9603B601346FB71A7E077
:10370000BB6FB3F1FF3F00F0A380FDF74DFB024616
:103710003B68D31ABA6F9A4202D3BB6F002B3FD1DA
:10372000FB681B683B653B6D53E8003FFB64FB6C2B
:1037300023F4D0737B66FB681B681A467B6EFB65BF
:10374000BA65B96DFA6D41E800237B657B6D002B8E
:10375000E6D1FB681B680833FB63FB6B53E8003F53
:10376000BB63BB6B23F001033B66FB681B6808333C
:103770003A6EBA647B64796CBA6C41E800233B64AE
:103780003B6C002BE5D1FB682022DA67FB68202226
:10379000C3F88020FB68002283F87820032368E0C8
:1037A000FB681B681B6803F00403002B50D0FB6808
:1037B0001B68DB6903F40063B3F5006F48D1FB6855
:1037C0001B684FF400621A62FB681B68BB62BB6A2D
:1037D00053E8003F7B627B6A23F4D073FB66FB688F
:1037E0001B681A46FB6E7B633A63396B7A6B41E860
:1037F0000023FB62FB6A002BE6D1FB681B680833E1
:103800007B617B6953E8003F3B613B6923F0010327
:10381000BB66FB681B680833BA6E3A62FB61F969E4
:103820003A6A41E80023BB61BB69002BE5D1FB6824
:103830002022DA67FB682022C3F88020FB68202260
:10384000C3F88420FB68002283F87820032310E06B
:10385000FB681B68DA69BB681340BA689A420CBF00
:1038600001230023DBB21A46FB799A423FF448AFAA
:10387000002318467037BD4680BD000084B080B577
:1038800084B000AF786007F11C0080E80E003B6B4D
:10389000012B20D17B689B6B23F480327B689A6379
:1038A0007B68DA68204B13407A68D3607B68DB68FA
:1038B00023F440127B68DA60FB6C012B05D17B6836
:1038C000DB6843F480127B68DA60786800F096FA6F
:1038D0000346FB7310E07B68DB6843F040027B68C3
:1038E000DA60786800F08AFA0346FB737B689B6BAA
:1038F00043F480327B689A63BB6A012B0BD17B68EF
:103900009B6843F006027B689A607B689B6843F083
:1039100020027B689A60FB7B18461037BD46BDE8E5
:10392000804004B0704700BFBFFFBDFF80B483B0CC
:1039300000AF78607B689B6823F001027B689A6027
:10394000002318460C37BD465DF8047B704780B5F0
:1039500084B000AF78600B46FB700023FB607B688F
:10396000DB6823F0C0427B68DA60FB78012B15D15D
:103970007B68DB6843F000527B68DA600120FDF76A
:103980001FFAFB680133FB60786800F029FA0346F0
:10399000012B1ED0FB68312BF0D91AE0FB78002BED
:1039A00015D17B68DB6843F080427B68DA600120D8
:1039B000FDF706FAFB680133FB60786800F010FA47
:1039C0000346002B05D0FB68312BF0D901E0012321
:1039D00005E0FB68322B01D1012300E000231846EB
:1039E0001037BD4680BD000084B080B586B000AF02
:1039F000786007F1240080E80E000023FB757B68E7
:103A0000FB6000233B6109E07A683B6940339B001F
:103A1000134400225A603B6901333B613B690E2B22
:103A2000F2D9FB6C002B1CD1FB6803F500635B68CB
:103A3000FA6802F5006243F0020353607B689B6BF7
:103A400023F400127B689A637B681B6843F0400292
:103A50007B681A607B681B6843F080027B681A6091
:103A600005E07B689B6B43F400127B689A63FB68FC
:103A700003F560631A4600231360FB6803F50063D7
:103A80001946FB6803F500631A460B681360BB6BAD
:103A9000012B0CD1FB6A002B04D10021786800F0C7
:103AA00065F908E00121786800F060F903E003217E
:103AB000786800F05BF91021786800F0F3F80346AD
:103AC000002B01D00123FB75786800F01FF9034635
:103AD000002B01D00123FB75FB6803F500631A4638
:103AE00000231361FB6803F500631A46002353614A
:103AF000FB6803F500631A460023D36100233B6192
:103B000043E03B695A01FB68134403F510631B68EB
:103B100003F00043B3F1004F18D13B69002B0AD1E9
:103B20003B695A01FB68134403F510631A464FF0D2
:103B30000063136013E03B695A01FB68134403F50B
:103B400010631A464FF09043136008E03B695A0136
:103B5000FB68134403F510631A46002313603B69A6
:103B60005A01FB68134403F510631A4600231361DE
:103B70003B695A01FB68134403F510631A464FF67C
:103B80007F3393603B6901333B617B6A3A699A42B8
:103B9000B7D300233B6143E03B695A01FB68134400
:103BA00003F530631B6803F00043B3F1004F18D1F5
:103BB0003B69002B0AD13B695A01FB68134403F5AA
:103BC00030631A464FF00063136013E03B695A01FB
:103BD000FB68134403F530631A464FF090431360BB
:103BE00008E03B695A01FB68134403F530631A4649
:103BF000002313603B695A01FB68134403F53063EB
:103C00001A46002313613B695A01FB68134403F50C
:103C100030631A464FF67F3393603B6901333B6153
:103C20007B6A3A699A42B7D3FB6803F500631B6964
:103C3000FA6802F5006223F4807313617B68002246
:103C40009A617B686FF080425A613B6B002B05D113
:103C50007B689B6943F010027B689A617B689A6974
:103C60000E4B13437A689361FB6B002B05D07B6886
:103C70009B6943F008027B689A61FB6C012B05D1BC
:103C80007B689A69064B13437A689361FB7D1846FB
:103C90001837BD46BDE8804004B0704700383C800E
:103CA0000400004080B485B000AF78603960002324
:103CB000FB60FB680133FB60FB68134A934201D948
:103CC00003231BE07B681B69002BF2DA0023FB60F7
:103CD0003B689B0143F020027B681A61FB6801335B
:103CE000FB60FB68084A934201D9032306E07B6826
:103CF0001B6903F02003202BF0D000231846143753
:103D0000BD465DF8047B7047400D030080B485B06C
:103D100000AF78600023FB60FB680133FB60FB6849
:103D2000114A934201D9032318E07B681B69002BD9
:103D3000F2DA0023FB607B6810221A61FB68013312
:103D4000FB60FB68084A934201D9032306E07B68C5
:103D50001B6903F01003102BF0D000231846143712
:103D6000BD465DF8047B7047400D030080B485B00C
:103D700000AF78600B46FB707B68FB60FB6803F567
:103D800000631A68FB78F96801F5006113430B6062
:103D9000002318461437BD465DF8047B704780B495
:103DA00085B000AF78607B68FB60FB6803F56063FB
:103DB0001B68FA6802F5606223F003031360FB6876
:103DC00003F500635B68FA6802F5006243F00203E2
:103DD0005360002318461437BD465DF8047B7047D6
:103DE00080B483B000AF78607B685B6903F0010347
:103DF00018460C37BD465DF8047B704780B485B02B
:103E000000AF78600023FB60FB680133FB60FB6858
:103E1000134A934201D903231BE07B681B69002BE3
:103E2000F2DA0023FB607B681B6943F001027B68C8
:103E30001A61FB680133FB60FB68094A934201D9B0
:103E4000032306E07B681B6903F00103012BF0D01C
:103E5000002318461437BD465DF8047B704700BF49
:103E6000400D030080B400AF00BFBD465DF8047B89
:103E70007047000080B485B000AFEFF30583BB60EE
:103E8000BB68002B0FD1EFF310837B607B68002BA6
:103E900005D1EFF311833B603B68002B07D00E4B3D
:103EA0001B68022B03D16FF00503FB600CE00A4B8B
:103EB0001B68002B05D1084B01221A600023FB6010
:103EC00002E04FF0FF33FB60FB6818461437BD4635
:103ED0005DF8047B704700BF4407002080B584B0C4
:103EE00000AFEFF30583BB60BB68002B0FD1EFF38E
:103EF00010837B607B68002B05D1EFF311833B605F
:103F00003B68002B07D00F4B1B68022B03D16FF0CF
:103F10000503FB6010E00B4B1B68012B09D1FFF779
:103F2000A1FF084B02221A6001F0CAF80023FB60CF
:103F300002E04FF0FF33FB60FB6818461037BD46C8
:103F400080BD00BF4407002080B590B004AFF8608A
:103F5000B9607A6000233B61EFF30583FB61FB6985
:103F6000002B40F08F80EFF31083BB61BB69002B07
:103F700005D1EFF311837B617B69002B03D0444BA8
:103F80001B68022B7ED0FB68002B7BD08023BB629A
:103F900018237B620023FB624FF0FF333B627B6898
:103FA000002B45D07B681B68002B02D07B681B6808
:103FB000FB627B689B69002B02D07B689B697B62FC
:103FC0007B6A002B08D07B6A382B05D87B685B683E
:103FD00003F00103002B01D0002354E07B685B69F0
:103FE000002B03D07B685B699B08BB627B689B6886
:103FF000002B0ED07B68DB68BB2B0AD97B681B6962
:10400000002B06D07B685B69002B02D001233B624A
:1040100010E07B689B68002B0CD17B68DB68002B71
:1040200008D17B681B69002B04D100233B6201E0AF
:1040300000233B623B6A012B10D17B681B697A68C5
:104040009268029201937B6A0093BB68BA6AF96A2C
:10405000F86800F03FFE03463B6113E03B6A002B2B
:1040600010D1BB6A9AB207F1100301937B6A0093E7
:10407000BB68F96AF86800F090FE0346012B01D096
:1040800000233B613B6918463037BD4680BD00BF09
:104090004407002080B586B000AF7860EFF3058359
:1040A0003B613B69002B0FD1EFF31083FB60FB6892
:1040B000002B05D1EFF31183BB60BB68002B07D049
:1040C0000A4B1B68022B03D16FF005037B6107E0ED
:1040D00000237B617B68002B02D0786800F0BAFF78
:1040E0007B6918461837BD4680BD00BF44070020D5
:1040F00080B485B000AFF860B9607A60FB68074AA9
:104100001A60BB68064A1A607B6880221A6000BF8A
:104110001437BD465DF8047B704700BF4807002098
:104120000408002080B485B000AFF860B9607A6000
:10413000FB68074A1A60BB68064A1A607B684FF43E
:1041400080721A6000BF1437BD465DF8047B70476B
:10415000040A0020C00A002080B483B000AF786059
:104160007B6803F108027B685A607B684FF0FF327E
:104170009A607B6803F108027B68DA607B6803F170
:1041800008027B681A617B6800221A6000BF0C3746
:10419000BD465DF8047B704780B483B000AF7860A3
:1041A0007B6800221A6100BF0C37BD465DF8047BB6
:1041B000704780B485B000AF786039607B685B6819
:1041C000FB603B68FA685A60FB689A683B689A60D3
:1041D000FB689B683A685A60FB683A689A603B687B
:1041E0007A681A617B681B685A1C7B681A6000BF7A
:1041F0001437BD465DF8047B704780B485B000AFCE
:10420000786039603B681B68BB60BB68B3F1FF3FF7
:1042100003D17B681B69FB600CE07B680833FB60A3
:1042200002E0FB685B68FB60FB685B681B68BA6860
:104230009A42F6D2FB685A683B685A603B685B68F2
:104240003A689A603B68FA689A60FB683A685A6014
:104250003B687A681A617B681B685A1C7B681A6025
:1042600000BF1437BD465DF8047B704780B485B04D
:1042700000AF78607B681B69FB607B685B687A686D
:1042800092689A607B689B687A6852685A60FB689B
:104290005B687A689A4203D17B689A68FB685A60C7
:1042A0007B6800221A61FB681B685A1EFB681A6053
:1042B000FB681B6818461437BD465DF8047B7047E1
:1042C00080B584B000AF786039607B68FB60FB68C4
:1042D000002B0CD14FF0500372B683F31188BFF35B
:1042E0006F8FBFF34F8F62B6BB6000BFFEE702F077
:1042F000A5F8FB681A68FB68DB6BF968096C01FBC1
:1043000003F31A44FB689A60FB6800229A63FB6817
:104310001A68FB685A60FB681A68FB68DB6B013B34
:10432000F968096C01FB03F31A44FB68DA60FB6867
:10433000FF2283F84420FB68FF2283F845203B6876
:10434000002B14D1FB681B69002B1AD0FB681033BB
:10435000184601F05DF90346002B12D00C4B4FF0CC
:1043600080521A60BFF34F8FBFF36F8F09E0FB6875
:1043700010331846FFF7F0FEFB6824331846FFF7AA
:10438000EBFE02F08FF8012318461037BD4680BDC2
:1043900004ED00E080B58EB002AFF860B9607A60DD
:1043A0003B60FB68002B0CD14FF0500372B683F3D7
:1043B0001188BFF36F8FBFF34F8F62B6BB6200BF30
:1043C000FEE73B68002B0CD14FF0500372B683F32D
:1043D0001188BFF36F8FBFF34F8F62B67B6200BF50
:1043E000FEE77B68002B02D0BB68002B01D00123C5
:1043F00000E00023002B0CD14FF0500372B683F382
:104400001188BFF36F8FBFF34F8F62B63B6200BF5F
:10441000FEE77B68002B02D1BB68002B01D1012392
:1044200000E00023002B0CD14FF0500372B683F351
:104430001188BFF36F8FBFF34F8F62B6FB6100BF70
:10444000FEE750237B617B69502B0CD04FF050036B
:1044500072B683F31188BFF36F8FBFF34F8F62B6CD
:10446000BB6100BFFEE77B693B68FB62FB6A002B18
:104470000DD0FB6A012283F8462097F83820FB6AAA
:10448000009313467A68B968F86800F005F8FB6A8B
:1044900018463037BD4680BD80B584B000AFF860A7
:1044A000B9607A60FB70BB68002B03D1BB69BA6945
:1044B0001A6002E0BB697A681A60BB69FA68DA635D
:1044C000BB69BA681A640121B869FFF7F9FEBB69D4
:1044D000FA7883F84C2000BF1037BD4680BD00003D
:1044E00080B58EB000AFF860B9607A603B600023A1
:1044F0007B63FB683B633B6B002B0CD14FF050039D
:1045000072B683F31188BFF36F8FBFF34F8F62B61C
:10451000BB6200BFFEE7BB68002B03D13B6B1B6C8B
:10452000002B01D1012300E00023002B0CD14FF020
:10453000500372B683F31188BFF36F8FBFF34F8FB1
:1045400062B67B6200BFFEE73B68022B03D13B6B88
:10455000DB6B012B01D1012300E00023002B0CD1E8
:104560004FF0500372B683F31188BFF36F8FBFF320
:104570004F8F62B63B6200BFFEE701F013FA0346BD
:10458000002B02D17B68002B01D1012300E0002326
:10459000002B0CD14FF0500372B683F31188BFF398
:1045A0006F8FBFF34F8F62B6FB6100BFFEE701F074
:1045B00045FF3B6B9A6B3B6BDB6B9A4202D33B68CC
:1045C000022B29D13A68B968386B00F015FAF86205
:1045D0003B6B5B6A002B10D03B6B2433184601F019
:1045E00017F80346002B13D03F4B4FF080521A6050
:1045F000BFF34F8FBFF36F8F0AE0FB6A002B07D02A
:10460000394B4FF080521A60BFF34F8FBFF36F8F5B
:1046100001F048FF012363E07B68002B03D101F028
:1046200041FF00235CE07B6B002B06D107F11403F4
:10463000184601F053F801237B6301F033FF00F0CB
:10464000B3FD01F0FBFE3B6B93F844305BB2B3F17A
:10465000FF3F03D13B6B002283F844203B6B93F870
:1046600045305BB2B3F1FF3F03D13B6B002283F8CF
:10467000452001F017FF3A1D07F1140311461846B3
:1046800001F042F80346002B24D1386B00F0ACFA5D
:104690000346002B18D03B6B10337A68114618463E
:1046A00000F062FF386B00F037FA00F08BFD034634
:1046B000002B7FF47CAF0C4B4FF080521A60BFF39D
:1046C0004F8FBFF36F8F72E7386B00F025FA00F061
:1046D00079FD6CE7386B00F01FFA00F073FD0023E2
:1046E00018463837BD4680BD04ED00E080B58EB079
:1046F00000AFF860B9607A603B60FB683B633B6B7E
:10470000002B0CD14FF0500372B683F31188BFF326
:104710006F8FBFF34F8F62B67B6200BFFEE7BB684F
:10472000002B03D13B6B1B6C002B01D1012300E05C
:104730000023002B0CD14FF0500372B683F3118885
:10474000BFF36F8FBFF34F8F62B63B6200BFFEE7D0
:104750003B68022B03D13B6BDB6B012B01D10123A7
:1047600000E00023002B0CD14FF0500372B683F30E
:104770001188BFF36F8FBFF34F8F62B6FB6100BF2D
:10478000FEE701F043FFEFF311824FF0500372B6E2
:1047900083F31188BFF36F8FBFF34F8F62B6BA6197
:1047A0007B61BB69FB623B6B9A6B3B6BDB6B9A4239
:1047B00002D33B68022B2CD13B6B93F8453087F832
:1047C0002B303A68B968386B00F016F997F92B303E
:1047D000B3F1FF3F12D13B6B5B6A002B16D03B6BF2
:1047E0002433184600F014FF0346002B0ED07B68DC
:1047F000002B0BD07B6801221A6007E097F82B3062
:104800000133DBB25AB23B6B83F8452001237B6353
:1048100001E000237B63FB6A3B613B6983F3118802
:1048200000BF7B6B18463837BD4680BD80B58CB065
:1048300000AFF860B9607A600023FB62FB68BB627E
:10484000BB6A002B0CD14FF0500372B683F3118872
:10485000BFF36F8FBFF34F8F62B63B6200BFFEE7BF
:10486000BB68002B03D1BB6A1B6C002B01D1012359
:1048700000E00023002B0CD14FF0500372B683F3FD
:104880001188BFF36F8FBFF34F8F62B6FB6100BF1C
:10489000FEE701F087F80346002B02D17B68002B6E
:1048A00001D1012300E00023002B0CD14FF0500375
:1048B00072B683F31188BFF36F8FBFF34F8F62B669
:1048C000BB6100BFFEE701F0B9FDBB6A9B6B7B6279
:1048D0007B6A002B1FD0B968B86A00F0F7F87B6AD2
:1048E0005A1EBB6A9A63BB6A1B69002B0FD0BB6A56
:1048F0001033184600F08CFE0346002B07D03D4BCA
:104900004FF080521A60BFF34F8FBFF36F8F01F0EB
:10491000C9FD012369E07B68002B03D101F0C2FDD2
:10492000002362E0FB6A002B06D107F11003184652
:1049300000F0D4FE0123FB6201F0B4FD00F034FC72
:1049400001F07CFDBB6A93F844305BB2B3F1FF3FEA
:1049500003D1BB6A002283F84420BB6A93F8453038
:104960005BB2B3F1FF3F03D1BB6A002283F845205D
:1049700001F098FD3A1D07F110031146184600F0AA
:10498000C3FE0346002B23D1B86A00F017F9034693
:10499000002B17D0BB6A24337A681146184600F002
:1049A000E3FDB86A00F0B8F800F00CFC0346002BF9
:1049B00089D1104B4FF080521A60BFF34F8FBFF375
:1049C0006F8F80E7B86A00F0A7F800F0FBFB7AE78A
:1049D000B86A00F0A1F800F0F5FBB86A00F0EEF854
:1049E0000346002B3FF46FAF002318463037BD4617
:1049F00080BD00BF04ED00E080B586B000AFF86078
:104A0000B9607A6000237B61FB689B6B3B61FB684C
:104A10001B6C002B0DD1FB681B68002B4DD1FB6874
:104A20009B68184600F0DCFF7861FB6800229A6002
:104A300043E07B68002B19D1FB685868FB681B6C4E
:104A40001A46B96802F030F8FB685A68FB681B6CBC
:104A50001A44FB685A60FB685A68FB689B689A4274
:104A60002BD3FB681A68FB685A6026E0FB68D8689D
:104A7000FB681B6C1A46B96802F016F8FB68DA6826
:104A8000FB681B6C5B421A44FB68DA60FB68DA68FF
:104A9000FB681B689A4207D2FB689A68FB681B6C2C
:104AA0005B421A44FB68DA607B68022B05D13B69E4
:104AB000002B02D03B69013B3B613B695A1CFB6800
:104AC0009A637B6918461837BD4680BD80B582B0B1
:104AD00000AF786039607B681B6C002B18D07B6856
:104AE000DA687B681B6C1A447B68DA607B68DA687A
:104AF0007B689B689A4203D37B681A687B68DA609C
:104B00007B68D9687B681B6C1A46386801F0CCFF5B
:104B100000BF0837BD4680BD80B584B000AF786067
:104B200001F08CFC7B6893F84530FB7311E07B68E7
:104B30005B6A002B12D07B682433184600F068FDB6
:104B40000346002B01D000F045FEFB7B013BDBB2AE
:104B5000FB7397F90F30002BE9DC00E000BF7B68A6
:104B6000FF2283F8452001F09DFC01F067FC7B6883
:104B700093F84430BB7311E07B681B69002B12D0A3
:104B80007B681033184600F043FD0346002B01D02C
:104B900000F020FEBB7B013BDBB2BB7397F90E300C
:104BA000002BE9DC00E000BF7B68FF2283F8442093
:104BB00001F078FC00BF1037BD4680BD80B584B0E1
:104BC00000AF786001F03AFC7B689B6B002B02D150
:104BD0000123FB6001E00023FB6001F063FCFB6844
:104BE00018461037BD4680BD80B584B000AF7860F0
:104BF00001F024FC7B689A6B7B68DB6B9A4202D1E4
:104C00000123FB6001E00023FB6001F04BFCFB682B
:104C100018461037BD4680BD80B485B000AF7860BF
:104C200039600023FB6014E00F4AFB6852F8333010
:104C3000002B0BD10C49FB683A6841F833200A4A33
:104C4000FB68DB0013447A685A6006E0FB680133B6
:104C5000FB60FB68072BE7D900BF00BF1437BD46D8
:104C60005DF8047B704700BFC00E002080B586B0A1
:104C700000AFF860B9607A60FB687B6101F0DEFB31
:104C80007B6993F844305BB2B3F1FF3F03D17B699A
:104C9000002283F844207B6993F845305BB2B3F17E
:104CA000FF3F03D17B69002283F8452001F0FAFB26
:104CB0007B699B6B002B06D17B6924337A68B968CA
:104CC000184600F077FC7869FFF726FF00BF183719
:104CD000BD4680BD80B58EB004AFF860B9607A6023
:104CE0003B607B6B002B0CD14FF0500372B683F30B
:104CF0001188BFF36F8FBFF34F8F62B63B6200BF67
:104D0000FEE7BB6B002B0CD14FF0500372B683F360
:104D10001188BFF36F8FBFF34F8F62B6FB6100BF87
:104D2000FEE7BC233B613B69BC2B0CD04FF050032A
:104D300072B683F31188BFF36F8FBFF34F8F62B6E4
:104D4000BB6100BFFEE73B69BB6B002B1ED07B6BDA
:104D5000002B1BD0BB6B7B627B6A7A6B1A637B6A0E
:104D6000022283F8B920002303937B6A029307F1A0
:104D7000140301933B6B00933B687A68B968F86849
:104D800000F050F8786A00F0F5F801E000237B614C
:104D90007B6918462837BD4680BD80B58CB004AF0E
:104DA000F860B9603B601346FB80FB889B001846A7
:104DB00001F070FC78617B69002B0ED0BC2001F003
:104DC00069FCF861FB69002B03D0FB697A691A63FF
:104DD00005E0786901F028FD01E00023FB61FB6933
:104DE000002B17D0FB69002283F8B920FA88002332
:104DF0000393FB690293FB6A0193BB6A00933B68D0
:104E0000B968F86800F00EF8F86900F0B3F801230B
:104E1000BB6102E04FF0FF33BB61BB69184620372E
:104E2000BD4680BD80B588B000AFF860B9607A60DB
:104E30003B603B6B186B7B689B001A46A52101F019
:104E400041FE3B6B1A6B79686FF040430B449B004B
:104E50001344BB61BB6923F00703BB61BB6903F06B
:104E60000703002B0CD04FF0500372B683F3118868
:104E7000BFF36F8FBFF34F8F62B67B6100BFFEE75A
:104E8000BB68002B1FD00023FB6112E0BA68FB69EE
:104E9000134419783A6BFB69134434330A461A7089
:104EA000BA68FB6913441B78002B06D0FB690133F9
:104EB000FB61FB690F2BE9D900E000BF3B6B0022CF
:104EC00083F8432003E03B6B002283F83420BB6A65
:104ED000372B01D93723BB623B6BBA6ADA623B6B73
:104EE000BA6ADA643B6B00221A653B6B04331846DE
:104EF000FFF752F93B6B18331846FFF74DF93B6B40
:104F00003A6B1A61BB6AC3F138023B6B9A613B6B27
:104F10003A6B5A623B6B0022C3F8B4203B6B002211
:104F200083F8B8203B6B543360220021184601F00F
:104F3000C9FD3B6B0C4A9A653B6B0C4ADA653B6BCF
:104F40000B4A1A663A68F968B86901F06BF90246CB
:104F50003B6B1A60FB6A002B02D0FB6A3A6B1A604B
:104F600000BF2037BD4680BD446D0008646D000859
:104F7000246D000880B582B000AF786001F05EFA61
:104F80002D4B1B6801332C4A13602C4B1B68002BE4
:104F900009D12A4A7B681360274B1B68012B10D16B
:104FA00000F03CFC0DE0264B1B68002B09D1234B85
:104FB0001B68DA6A7B68DB6A9A4202D81F4A7B6800
:104FC0001360204B1B6801331E4A13601D4B1A6887
:104FD0007B685A647B68DA6A1B4B1B689A4203D968
:104FE0007B68DB6A184A13607B68DA6A13469B00A9
:104FF00013449B00154A1A447B6804331946104633
:10500000FFF7D7F801F04EFA0D4B1B68002B0ED0BE
:105010000A4B1B68DA6A7B68DB6A9A4207D20C4B40
:105020004FF080521A60BFF34F8FBFF36F8F00BFF6
:105030000837BD4680BD00BFD4130020000F0020FC
:10504000E0130020F0130020DC130020040F0020E8
:1050500004ED00E080B584B000AF78600023FB6011
:105060007B68002B19D0144B1B68002B0CD04FF021
:10507000500372B683F31188BFF36F8FBFF34F8F66
:1050800062B6BB6000BFFEE700F08EF800217868D2
:1050900000F018FD00F096F8F860FB68002B07D1CF
:1050A000064B4FF080521A60BFF34F8FBFF36F8FE4
:1050B00000BF1037BD4680BDFC13002004ED00E0AA
:1050C00080B58AB004AF0023BB6000237B603A4602
:1050D000391D07F108031846FFF70AF839687B689D
:1050E000BA68029201930023009300230A462649DE
:1050F0002648FFF7EFFD0346254A1360244B1B6843
:10510000002B02D001237B6101E000237B617B69DE
:10511000012B02D100F02AFD78617B69012B1DD1A2
:105120004FF0500372B683F31188BFF36F8FBFF354
:105130004F8F62B63B6100BF164B1B685433164A53
:105140001360164B4FF0FF321A60154B01221A60A4
:10515000144B00221A6001F0F3F810E07B69B3F100
:10516000FF3F0CD14FF0500372B683F31188BFF3A9
:105170006F8FBFF34F8F62B6FB6000BFFEE700BFCB
:105180001837BD4680BD00BFAC6C0008ED57000865
:10519000F8130020000F002010000020F41300205E
:1051A000E0130020D813002080B400AF044B1B682C
:1051B0000133034A136000BFBD465DF8047B7047AE
:1051C000FC13002080B584B000AF0023FB600023F7
:1051D000BB60434B1B68002B0CD14FF0500372B6E1
:1051E00083F31188BFF36F8FBFF34F8F62B63B60BD
:1051F00000BFFEE701F022F9394B1B68013B384A3A
:105200001360374B1B68002B62D1364B1B68002B99
:105210005ED02FE0344BDB68DB68FB60FB68183343
:105220001846FFF723F8FB6804331846FFF71EF80B
:10523000FB68DA6A2D4B1B689A4203D9FB68DB6A6C
:105240002A4A1360FB68DA6A13469B0013449B00EA
:10525000274A1A44FB68043319461046FEF7A9FF93
:10526000FB68DA6A234B1B68DB6A9A4202D3224B43
:1052700001221A601C4B1B68002BCBD1FB68002B52
:1052800001D000F06FFB1D4B1B687B607B68002B1F
:1052900010D000F047F80346002B02D0164B012235
:1052A0001A607B68013B7B607B68002BF1D1134B5C
:1052B00000221A60104B1B68002B09D00123BB6031
:1052C0000F4B4FF080521A60BFF34F8FBFF36F8FB9
:1052D00001F0E8F8BB6818461037BD4680BD00BF36
:1052E000FC130020D413002094130020DC130020B2
:1052F000040F0020000F0020E8130020E41300201A
:1053000004ED00E080B483B000AF054B1B687B6008
:105310007B6818460C37BD465DF8047B704700BFBC
:10532000D813002080B586B000AF00237B61504BBE
:105330001B68002B40F08B804E4B1B6801333B6198
:105340004C4A3B6913603B69002B22D14A4B1B68D6
:105350001B68002B0CD04FF0500372B683F31188FA
:10536000BFF36F8FBFF34F8F62B63B6000BFFEE7A6
:10537000414B1B68FB60414B1B683F4A13603F4A2F
:10538000FB6813603E4B1B6801333D4A136000F01D
:10539000E9FA3C4B1B683A699A4249D3364B1B6881
:1053A0001B68002B04D1374B4FF0FF321A603FE0EF
:1053B000314B1B68DB68DB68BB60BB685B687B608C
:1053C0003A697B689A4203D22E4A7B6813602FE0C9
:1053D000BB6804331846FEF749FFBB689B6A002B85
:1053E00004D0BB6818331846FEF740FFBB68DA6A82
:1053F000254B1B689A4203D9BB68DB6A224A1360BB
:10540000BB68DA6A13469B0013449B001F4A1A4488
:10541000BB68043319461046FEF7CBFEBB68DA6A58
:105420001B4B1B68DB6A9A42B8D301237B61B5E74B
:10543000174B1B68DA6A154913469B0013449B00FF
:105440000B441B68012B07D901237B6104E0114B3E
:105450001B6801330F4A13600F4B1B68002B01D0F0
:1054600001237B617B6918461837BD4680BD00BFAC
:10547000FC130020D81300208C1300209013002070
:10548000EC130020F4130020DC130020040F002094
:10549000000F0020E4130020E813002080B485B042
:1054A00000AF2B4B1B68002B03D02A4B01221A6044
:1054B00048E0284B00221A60274B1B68FB6012E073
:1054C000FB68002B0CD14FF0500372B683F31188A8
:1054D000BFF36F8FBFF34F8F62B67B6000BFFEE7F5
:1054E000FB68013BFB601D49FA6813469B001344AF
:1054F0009B000B441B68002BE2D0FA6813469B000C
:1055000013449B00154A1344BB60BB685B685A6830
:10551000BB685A60BB685A68BB6808339A4204D1BA
:10552000BB685B685A68BB685A60BB685B68DB68CD
:105530000B4A1360084AFB681360094B1B6854331D
:10554000084A136000BF1437BD465DF8047B7047FE
:10555000FC130020E8130020DC130020040F0020BF
:10556000000F00201000002080B584B000AF7860EC
:1055700039607B68002B0CD14FF0500372B683F377
:105580001188BFF36F8FBFF34F8F62B6FB6000BF10
:10559000FEE7074B1B68183319467868FEF72DFEA7
:1055A0000121386800F08EFA00BF1037BD4680BD7B
:1055B000000F002080B586B000AFF860B9607A6057
:1055C000FB68002B0CD14FF0500372B683F31188A7
:1055D000BFF36F8FBFF34F8F62B67B6100BFFEE7F3
:1055E0000A4B1B6818331946F868FEF7E2FD7B6822
:1055F000002B02D04FF0FF33BB607968B86800F031
:1056000061FA00BF1837BD4680BD00BF000F002003
:1056100080B586B000AF78607B68DB68DB683B6193
:105620003B69002B0CD14FF0500372B683F3118805
:10563000BFF36F8FBFF34F8F62B6FB6000BFFEE713
:105640003B6918331846FEF711FE1E4B1B68002BF2
:105650001DD13B6904331846FEF708FE3B69DA6A40
:10566000194B1B689A4203D93B69DB6A164A1360DF
:105670003B69DA6A13469B0013449B00134A1A44A1
:105680003B69043319461046FEF793FD05E03B697C
:10569000183319460E48FEF78CFD3B69DA6A0D4B4C
:1056A0001B68DB6A9A4205D901237B610A4B012200
:1056B0001A6001E000237B617B6918461837BD46FC
:1056C00080BD00BFFC130020DC130020040F00206D
:1056D00094130020000F0020E813002080B483B052
:1056E00000AF7860064B1A687B681A60054B1A6831
:1056F0007B685A6000BF0C37BD465DF8047B70477D
:10570000EC130020D813002080B588B000AF78607B
:1057100039607B68002B0CD14FF0500372B683F3D5
:105720001188BFF36F8FBFF34F8F62B63B6100BF2D
:10573000FEE73B68002B0CD14FF0500372B683F3A9
:105740001188BFF36F8FBFF34F8F62B6FB6000BF4E
:10575000FEE700F073FE1D4B1B68BB617B685B6856
:10576000BA69D31A7B613B681B68B3F1FF3F02D172
:105770000023FB6123E07B681A68154B1B689A4283
:1057800007D07B685B68BA699A4202D30123FB6148
:1057900015E03B681B687A699A420BD23B681A682D
:1057A0007B69D21A3B681A607868FFF797FF00237D
:1057B000FB6104E03B6800221A600123FB6100F0FA
:1057C00071FEFB6918462037BD4680BDD813002006
:1057D000EC13002080B400AF034B01221A6000BF1D
:1057E000BD465DF8047B7047E813002080B582B0A9
:1057F00000AF786000F052F8064B1B68012BF9D916
:10580000054B4FF080521A60BFF34F8FBFF36F8F7D
:10581000F0E700BF040F002004ED00E080B582B087
:1058200000AF00237B600CE07A6813469B001344B2
:105830009B00124A13441846FEF78EFC7B68013326
:105840007B607B68372BEFD90D48FEF785FC0D4850
:10585000FEF782FC0C48FEF77FFC0C48FEF77CFC50
:105860000B48FEF779FC0B4B054A1A600A4B054AB8
:105870001A6000BF0837BD4680BD00BF040F00207E
:10588000641300207813002094130020A813002034
:10589000C01300208C1300209013002080B582B02C
:1058A00000AF19E000F0CAFD104BDB68DB687B60DD
:1058B0007B6804331846FEF7D9FC0D4B1B68013B8F
:1058C0000B4A13600B4B1B68013B0A4A136000F044
:1058D000E9FD786800F010F8064B1B68002BE1D159
:1058E00000BF00BF0837BD4680BD00BFA813002021
:1058F000D4130020BC13002080B584B000AF7860C2
:105900007B685433184601F0F3F87B6893F8B9309C
:10591000002B08D17B681B6B184600F085FF786868
:1059200000F082FF1AE07B6893F8B930012B03D1B5
:10593000786800F079FF11E07B6893F8B930022BAA
:105940000CD04FF0500372B683F31188BFF36F8F02
:10595000BFF34F8F62B6FB6000BFFEE700BF10379A
:10596000BD4680BD80B483B000AF0C4B1B681B6884
:10597000002B04D10A4B4FF0FF321A6008E0074BAE
:105980001B68DB68DB687B607B685B68044A1360CC
:1059900000BF0C37BD465DF8047B70478C130020B8
:1059A000F413002080B483B000AF0B4B1B68002BB6
:1059B00002D101237B6008E0084B1B68002B02D159
:1059C00002237B6001E000237B607B6818460C3774
:1059D000BD465DF8047B7047E0130020FC130020F7
:1059E00080B586B000AF78607B683B6100237B6147
:1059F0007B68002B5AD0304B1B683A699A420CD016
:105A00004FF0500372B683F31188BFF36F8FBFF36B
:105A10004F8F62B6FB6000BFFEE73B691B6D002B3A
:105A20000CD14FF0500372B683F31188BFF36F8F20
:105A3000BFF34F8F62B6BB6000BFFEE73B691B6DD3
:105A40005A1E3B691A653B69DA6A3B69DB6C9A420C
:105A50002CD03B691B6D002B28D13B6904331846C1
:105A6000FEF704FC3B69DA6C3B69DA623B69DB6A8E
:105A7000C3F138023B699A613B69DA6A0F4B1B68D4
:105A80009A4203D93B69DB6A0C4A13603B69DA6AC4
:105A900013469B0013449B00094A1A443B69043394
:105AA00019461046FEF785FB01237B617B6918468A
:105AB0001837BD4680BD00BF000F0020DC1300205A
:105AC000040F002080B584B000AF78603960214BAE
:105AD0001B68FB60204B1B6804331846FEF7C6FBAF
