:020000040800F2
:1000000000000820ED1400085114000857140008DF
:100010005D14000863140008691400080000000063
:10002000000000000000000000000000F1A900082E
:100030006F1400080000000021AC000889AC000823
:100040003D1500083D1500083D1500083D15000848
:100050003D1500083D1500083D1500083D15000838
:100060003D1500083D1500083D1500083D15000828
:100070003D1500083D1500083D1500083D15000818
:100080003D1500083D1500083D1500083D15000808
:100090003D1500083D1500083D1500083D150008F8
:1000A0003D1500087D1400083D1500083D150008A9
:1000B0003D1500083D1500083D1500083D150008D8
:1000C0003D1500083D1500083D1500083D150008C8
:1000D0003D1500083D1500083D1500083D150008B8
:1000E0009D1400083D1500083D1500083D15000849
:1000F000AD1400083D1500083D1500083D15000829
:100100003D1500083D1500083D1500083D15000887
:100110003D1500083D1500083D1500083D15000877
:100120003D1500083D1500083D1500083D15000867
:100130003D1500083D1500083D1500083D15000857
:100140003D1500083D1500083D1500083D15000847
:100150003D1500083D1500083D1500083D15000837
:100160003D1500083D1500083D1500083D15000827
:100170003D1500083D1500083D1500080000000071
:100180003D1500083D1500083D1500083D15000807
:100190003D1500083D1500083D1500083D150008F7
:1001A0003D1500083D1500083D1500083D150008E7
:1001B0003D1500083D1500083D1500083D150008D7
:1001C0003D1500083D150008000000003D15000821
:1001D0003D1500083D1500083D1500083D150008B7
:1001E0003D1500083D1500083D1500083D150008A7
:0801F0003D1500083D15000853
:1002000010B5054C237833B9044B13B10448AFF350
:1002100000800123237010BD80000020000000003A
:1002200070B4000808B5034B1BB103490348AFF392
:10023000008008BD000000008400002070B40008A9
:10024000034613F8012B002AFBD1181A0138704716
:1002500053B94AB9002908BF00281CBF4FF0FF312D
:100260004FF0FF3000F074B9ADF1080C6DE904CE29
:1002700000F006F8DDF804E0DDE9022304B0704781
:100280002DE9F047089D04468E46002B4DD18A4249
:10029000944669D9B2FA82F252B101FA02F3C2F17C
:1002A000200120FA01F10CFA02FC41EA030E94400D
:1002B0004FEA1C48210CBEFBF8F61FFA8CF708FB2E
:1002C00016E341EA034306FB07F199420AD91CEB06
:1002D000030306F1FF3080F01F81994240F21C8138
:1002E000023E63445B1AA4B2B3FBF8F008FB103380
:1002F00044EA034400FB07F7A7420AD91CEB0404B5
:1003000000F1FF3380F00A81A74240F20781644484
:10031000023840EA0640E41B00261DB1D440002309
:10032000C5E900433146BDE8F0878B4209D9002D6D
:1003300000F0EF800026C5E9000130463146BDE8F7
:10034000F087B3FA83F6002E4AD18B4202D3824261
:1003500000F2F980841A61EB030301209E46002D10
:10036000E0D0C5E9004EDDE702B9FFDEB2FA82F265
:10037000002A40F09280A1EB0C014FEA1C471FFAC3
:100380008CFE0126200CB1FBF7F307FB131140EAAA
:1003900001410EFB03F0884208D91CEB010103F177
:1003A000FF3802D2884200F2CB804346091AA4B239
:1003B000B1FBF7F007FB101144EA01440EFB00FE0D
:1003C000A64508D91CEB040400F1FF3102D2A64572
:1003D00000F2BB800846A4EB0E0440EA03409CE711
:1003E000C6F12007B34022FA07FC4CEA030C20FABE
:1003F00007F401FA06F31C43F9404FEA1C4900FADE
:1004000006F3B1FBF9F8200C1FFA8CFE09FB18115A
:1004100040EA014108FB0EF0884202FA06F20BD9CD
:100420001CEB010108F1FF3A80F08880884240F21D
:100430008580A8F102086144091AA4B2B1FBF9F061
:1004400009FB101144EA014100FB0EFE8E4508D95C
:100450001CEB010100F1FF346CD28E456AD90238E1
:10046000614440EA0840A0FB0294A1EB0E01A142C6
:10047000C846A64656D353D05DB1B3EB080261EB34
:100480000E0101FA07F722FA06F3F1401F43C5E90E
:10049000007100263146BDE8F087C2F12003D84044
:1004A0000CFA02FC21FA03F3914001434FEA1C4786
:1004B0001FFA8CFEB3FBF7F007FB10360B0C43EA78
:1004C000064300FB0EF69E4204FA02F408D91CEB28
:1004D000030300F1FF382FD29E422DD90238634426
:1004E0009B1B89B2B3FBF7F607FB163341EA0341C6
:1004F00006FB0EF38B4208D91CEB010106F1FF3815
:1005000016D28B4214D9023E6144C91A46EA00460B
:1005100038E72E46284605E70646E3E61846F8E69D
:100520004B45A9D2B9EB020864EB0C0E0138A3E7E6
:100530004646EAE7204694E74046D1E7D0467BE7C7
:10054000023B614432E7304609E76444023842E73F
:10055000704700BF80B582B002AF02F0B1FB00F07F
:10056000B7F800F09BFA00F06BFA00F021F900F008
:10057000E9F900F071F900F0C1F900F031FA3448FE
:1005800002F034FC334802F031FC0021324804F020
:10059000C3FD06F03FFC012001F002FA2F4A7A2148
:1005A000102006F095FE03462D4A13602D4A0021C7
:1005B0002D4806F099FC03462C4A13602C4A002172
:1005C0002C4806F091FC03462B4A13602B4A00216D
:1005D0002B4806F089FC03462A4A13602A4A002168
:1005E0002A4806F081FC0346294A1360294A002163
:1005F000294806F079FC0346284A1360284A00215E
:10060000284806F071FC0346274A1360274A002158
:10061000274806F069FC0346264A1360002006F0CE
:1006200037FD0346244A1360244B019308230093AB
:10063000002380222249234808F0BDFC224806F00E
:1006400027FD0346214A136006F018FCFEE700BFB1
:100650009C000020E40000207801002004CB00086A
:100660003017002008CA0008AD0C0008540700200D
:100670002CCA0008D90C00085807002050CA0008EE
:10068000F90C00085C07002074CA0008390D000846
:10069000200A002098CA0008E10D0008E40C0020A0
:1006A000BCCA00086D0E0008A80F0020E0CA0008B0
:1006B0009D0E00086C120020501F00204C1F0020CF
:1006C00004B50008BD0C00081CCB0008241F002046
:1006D00080B594B000AF07F11C0334220021184606
:1006E0000AF0B2FD07F1080300221A605A609A600E
:1006F000DA601A6103F0E0FA2B4B1B6C2A4A43F0D4
:1007000080531364284B1B6C03F080537B607B6821
:10071000264B1B6823F44043244A43F48043136070
:10072000224B1B6803F440433B603B680323FB619F
:100730004FF480333B620123BB621023FB62022330
:100740007B634FF48003BB630F23FB6390233B6405
:1007500002237B640523BB640223FB6407F11C03B3
:10076000184603F0B9FA0346002B01D000F00EFC46
:100770000F23BB600223FB6000233B614FF4A053B7
:100780007B614FF48053BB6107F1080303211846D6
:1007900003F050FD0346002B01D000F0F7FB00BF33
:1007A0005037BD4680BD00BF003802400070004099
:1007B00080B584B000AF3B4600221A605A609A6050
:1007C000DA60224B224A1A60204B4FF480325A6082
:1007D0001E4B4FF080729A601C4B00221A611B4B1B
:1007E00001229A61194B002283F82020174B002226
:1007F000DA62164B174A9A62144B0022DA60134BE6
:100800000122DA61114B002283F830200F4B0022C5
:100810005A610E4802F0A6FA0346002B01D000F000
:10082000B5FB03233B6001237B600023BB603B4699
:100830001946064802F0B6FB0346002B01D000F033
:10084000A5FB00BF1037BD4680BD00BF9C00002047
:10085000002001400100000F80B584B000AF3B468E
:1008600000221A605A609A60DA60214B214A1A60AD
:100870001F4B4FF480325A601D4B00229A601C4B74
:1008800000221A611A4B01229A61194B002283F847
:100890002020174B0022DA62154B174A9A62144B3C
:1008A0000022DA60124B0122DA61114B002283F838
:1008B00030200F4B00225A610D4802F053FA0346D4
:1008C000002B01D000F062FB0A233B6001237B6018
:1008D0000023BB603B461946054802F063FB034614
:1008E000002B01D000F052FB00BF1037BD4680BD89
:1008F000E4000020002101400100000F80B500AF9E
:100900000E4B0F4A1A600D4B00225A600B4B00220F
:100910009A600A4B4FF46F72DA60084B00221A613A
:10092000064B00229A61054804F0C4FA0346002BE6
:1009300001D000F02BFB00BF80BD00BF2C010020C8
:100940000044014080B588B000AF3B1D00221A6012
:100950005A609A60DA601A615A619A611E4B1F4AA6
:100960001A601D4B00225A601B4B00229A601A4BE2
:1009700040F2FF32DA60184B00221A61164B002257
:100980009A61154804F096FA0346002B01D000F056
:10099000FDFA114804F05EFB0346002B01D000F085
:1009A000F5FA60237B600023BB600023FB6000231B
:1009B0007B613B1D00221946074804F0C7FD034632
:1009C000002B01D000F0E2FA034800F0BDFB00BFAD
:1009D0002037BD4680BD00BF78010020001C0040CC
:1009E00080B500AF144B154A1A60134B4FF4E13237
:1009F0005A60114B00229A600F4B0022DA600E4BB6
:100A000000221A610C4B0C225A610B4B00229A6196
:100A1000094B0022DA61084B00221A62064B0022C1
:100A20005A62054805F00FFA0346002B01D000F08A
:100A3000ADFA00BF80BD00BFC401002000480040E7
:100A400080B500AF144B4FF0A0421A60124B062243
:100A50005A60114B0222DA600F4B00221A610E4BD2
:100A600002229A610C4B0122DA610B4B00221A62BE
:100A7000094B00225A62084B0122DA62064B00221F
:100A80001A63054802F0D0FF0346002B01D000F0A6
:100A90007DFA00BF80BD00BF4C02002080B58CB045
:100AA00000AF07F11C0300221A605A609A60DA60F6
:100AB0001A614B4B1B6B4A4A43F004031363484BC8
:100AC0001B6B03F00403BB61BB69454B1B6B444AC2
:100AD00043F080031363424B1B6B03F080037B6185
:100AE0007B693F4B1B6B3E4A43F0010313633C4B56
:100AF0001B6B03F001033B613B69394B1B6B384AAD
:100B000043F002031363364B1B6B03F00203FB60DD
:100B1000FB68334B1B6B324A43F008031363304BC3
:100B20001B6B03F00803BB60BB682D4B1B6B2C4A8F
:100B300043F0400313632A4B1B6B03F040037B60BD
:100B40007B68002244F28101264802F021FF002246
:100B50004021254802F01CFF4FF40053FB614FF485
:100B600004133B6200237B6207F11C0319461F48F4
:100B700002F04AFD44F28103FB6101233B62002342
:100B80007B620023BB6207F11C031946154802F083
:100B90003BFD4023FB6101233B6200237B6200237A
:100BA000BB6207F11C0319460F4802F02DFD80239C
:100BB000FB6100233B6200237B6207F11C031946A3
:100BC000094802F021FD00220521282002F0F2FC54
:100BD000282002F00BFD00BF3037BD4680BD00BFAE
:100BE00000380240000402400018024000080240A1
:100BF00080B500AF034B00221A60034804F0B2F93D
:100C000000BF80BD481F00202C01002080B400AF31
:100C1000034B1B681846BD465DF8047B704700BF58
:100C2000481F002080B582B000AF0346FB80FB88E0
:100C3000B3F5005F0AD14FF48041064802F0C1FECF
:100C4000054B1B685121184606F074FA00BF08379F
:100C5000BD4680BD00040240501F002080B483B018
:100C600000AF0346FB80FB88054AA2FB0323DB0899
:100C70009BB218460C37BD465DF8047B704700BF39
:100C8000CDCCCCCC80B582B000AF78607868FFF76F
:100C9000D7FA03469AB201237968034805F021F98F
:100CA00000BF0837BD4680BDC401002080B582B0BA
:100CB00000AF7860012006F0BDF9FBE780B582B097
:100CC00000AF78608021034802F07BFE642008F0CA
:100CD00023FBF7E70004024080B582B000AF7860E4
:100CE0000121044802F06DFE4FF4FA7006F0A2F9FB
:100CF000F6E700BF0004024080B5A2B000AF786004
:100D00000B4802F041F90346A7F88630B7F8863061
:100D1000A7F88430074B186807F10C014FF0FF3338
:100D2000002206F05BFB0A2006F084F9E8E700BF2A
:100D30009C00002030170020B0B5A2B000AF786052
:100D4000234802F021F903469BB21A4640F6E443D9
:100D500002FB03F31F4A82FB03121A44D212DB1771
:100D6000D31AA7F88630B7F886301846FFF776FF13
:100D70000346A7F88430B7F8843007F108010A2247
:100D800018460AF04FFA07F108031846FFF758FA19
:100D900003461A4607F1080313440F4A1D4614463A
:100DA0000FCC28606960AA60EB6003CC28616961A0
:100DB00023882B83094B186807F108014FF0FF3394
:100DC000002206F00BFB0A2006F034F9B8E700BF5A
:100DD000E40000208100088010B5000830170020D2
:100DE000B0B5A2B000AF78601D4B186807F10C01D8
:100DF0004FF0FF33002206F065FBB7F88420194B53
:100E00001B685A63B7F88430184607F10C030A22AE
:100E100019460AF007FA07F10C031846FFF710FA13
:100E200003461A4607F10C0313440F4A1D461446A5
:100E30000FCC28606960AA60EB6003CC286169610F
:100E400023882B83064B186807F10C014FF0FF3302
:100E5000002206F0C3FA0A2006F0ECF8C4E700BF4F
:100E600030170020780100202CB5000880B5A2B012
:100E700000AF7860084B186807F10C014FF0FF33A2
:100E8000002206F01FFB07F10C031846FFF7FAFEDD
:100E9000012006F0CFF8EDE73017002080B5A4B0B0
:100EA00000AF78602A4BC7F88C302A4BC7F88830DF
:100EB000294BC7F88430294B18684FF0FF330122C3
:100EC000512106F08FF94FF48041254802F048FD8A
:100ED000034687F8833097F88330002B12D0012B1C
:100EE00021D107F10803D7F88C1018460AF01EFA32
:100EF0001C4B186807F108014FF0FF33002206F081
:100F00006DFA21E007F10803D7F8881018460AF0B7
:100F10000DFA144B186807F108014FF0FF33002257
:100F200006F05CFA10E007F10803D7F884101846C1
:100F30000AF0FCF90B4B186807F108014FF0FF337A
:100F4000002206F04BFA00BF0A2006F073F8B2E761
:100F500048B500086CB5000890B50008501F002087
:100F6000000402403017002080B582B000AF7860E6
:100F70007B681B68044A934201D101F0AFFE00BFB9
:100F80000837BD4680BD00BF0004014080B400AFFB
:100F900072B600BFFEE7000080B582B000AF114B13
:100FA0001B6C104A43F0805313640E4B1B6C03F010
:100FB00080537B607B680B4B5B6C0A4A43F4804335
:100FC0005364084B5B6C03F480433B603B68002236
:100FD0000F216FF0010002F0EDFA00BF0837BD46A7
:100FE00080BD00BF0038024080B58CB000AF786093
:100FF00007F11C0300221A605A609A60DA601A61D5
:101000007B681B682A4A934224D12A4B5B6C294A8D
:1010100043F480735364274B5B6C03F48073BB61B0
:10102000BB69244B1B6B234A43F001031363214B21
:101030001B6B03F001037B617B690823FB610323C6
:101040003B6200237B6207F11C0319461A4802F039
:10105000DBFA28E07B681B68184A934223D1154BC2
:101060005B6C144A43F400735364124B5B6C03F4DF
:1010700000733B613B690F4B1B6B0E4A43F004034B
:1010800013630C4B1B6B03F00403FB60FB68012331
:10109000FB6103233B6200237B6207F11C031946BB
:1010A000074802F0B1FA00BF3037BD4680BD00BF2F
:1010B00000200140003802400000024000210140B1
:1010C0000008024080B584B000AF78607B681B6880
:1010D0001A4A934214D11A4B5B6C194A43F40033F9
:1010E0005364174B5B6C03F40033FB60FB68002216
:1010F0000521192002F05EFA192002F077FA18E0B3
:101100007B681B680F4A934213D10D4B1B6C0C4A32
:1011100043F0800313640A4B1B6C03F08003BB6035
:10112000BB6800220F212C2002F044FA2C2002F090
:101130005DFA00BF1037BD4680BD00BF00440140CE
:1011400000380240001C004080B588B000AF7860D5
:1011500007F10C0300221A605A609A60DA601A6183
:101160007B681B68114A93421BD1114B1B6B104AC1
:1011700043F0010313630E4B1B6B03F00103BB60D1
:10118000BB684023FB6002233B6100237B6100239B
:10119000BB610923FB6107F10C031946054802F006
:1011A00033FA00BF2037BD4680BD00BF001C0040A1
:1011B000003802400000024080B5AEB000AF786059
:1011C00007F1A40300221A605A609A60DA601A617B
:1011D00007F114039022002118460AF035F87B68C5
:1011E0001B68224A93423CD14FF480737B612023D9
:1011F0003B6607F11403184603F034FA0346002B4C
:1012000001D0FFF7C3FE1A4B1B6C194A43F480232D
:101210001364174B1B6C03F480233B613B69144B35
:101220001B6B134A43F008031363114B1B6B03F052
:101230000803FB60FB684FF44073C7F8A430022337
:10124000C7F8A8300023C7F8AC300323C7F8B03084
:101250000723C7F8B43007F1A4031946054802F084
:10126000D3F900BFB837BD4680BD00BF004800407D
:1012700000380240000C024080B5AEB000AF78608C
:1012800007F1A40300221A605A609A60DA601A61BA
:1012900007F1140390220021184609F0D5FF7B685E
:1012A0001B68B3F1A04F59D14FF400137B610023A9
:1012B000C7F8903007F11403184603F0D3F903463A
:1012C000002B01D0FFF762FE264B1B6B254A43F033
:1012D00001031363234B1B6B03F001033B613B6969
:1012E0004FF4C853C7F8A4300223C7F8A83000232E
:1012F000C7F8AC300323C7F8B0300A23C7F8B430BE
:1013000007F1A4031946184802F07EF94FF4007360
:10131000C7F8A4300023C7F8A8300023C7F8AC30C2
:1013200007F1A4031946104802F06EF90D4B5B6BF0
:101330000C4A43F0800353630A4B5B6B03F080035A
:10134000FB60FB68074B5B6C064A43F480435364C5
:10135000044B5B6C03F48043BB60BB6800BFB837D1
:10136000BD4680BD003802400000024080B58CB010
:1013700000AF78600023BB6200237B622F4B5B6C65
:101380002E4A43F0020353642C4B5B6C03F00203C0
:10139000BB60BB6807F10C0207F110031146184649
:1013A00003F02EF903F018F903465B00BB62BB6A39
:1013B000234AA2FB03239B0C013B7B62214B224A65
:1013C0001A60204B40F2E732DA601E4A7B6A5360B3
:1013D0001C4B00221A611B4B00229A60194B002201
:1013E0009A61184803F066FD034687F82F3097F896
:1013F0002F30002B1BD1134803F0B4FD034687F8B0
:101400002F3097F82F30002B11D12C2002F0EEF85E
:101410007B680F2B08D8002279682C2002F0CAF8CC
:101420000A4A7B68136002E0012387F82F3097F89F
:101430002F3018463037BD4680BD00BF003802400F
:1014400083DE1B43541F00200004014010000020D5
:1014500080B400AFFEE780B400AFFEE780B400AF19
:10146000FEE780B400AFFEE780B400AFFEE780B4D3
:1014700000AF00BFBD465DF8047B704780B500AF8C
:10148000044B1B680133034A1360034803F03EFF1B
:1014900000BF80BD481F00202C01002080B500AF98
:1014A0004FF4005002F0A8FA00BF80BD80B500AF35
:1014B000034803F02BFF034803F028FF00BF80BD63
:1014C000541F00207801002080B400AF064BD3F8F1
:1014D0008830054A43F47003C2F8883000BFBD4627
:1014E0005DF8047B704700BF00ED00E0DFF834D00A
:1014F0000D480E490E4A002302E0D458C45004336C
:10150000C4188C42F9D30B4A0B4C002301E0136042
:101510000432A242FBD3FFF7D7FF09F047FEFFF7E3
:1015200019F870470000082000000020800000200B
:10153000DCCB00088000002010F10020FEE780B521
:1015400082B000AF7860786807F02CFB034618463D
:101550000837BD4680BD80B582B000AF786078683E
:1015600007F03AFB034618460837BD4680BD80B5F4
:1015700082B000AF7860786808F01AFC03469BB22E
:1015800018460837BD4680BD80B582B000AF786090
:10159000786808F00DFC03461B0C9BB21846083710
:1015A000BD4680BD80B582B000AF78600B467B80C1
:1015B000786808F0FDFB0246054B13407A88134318
:1015C0001946786808F00AFC00BF0837BD4680BDA0
:1015D0000000FFFF80B582B000AF78600B467B80D3
:1015E000786808F0E5FB03469AB27B881B04134336
:1015F0001946786808F0F2FB00BF0837BD4680BD89
:1016000080B582B000AF78607868FFF798FF034636
:101610009BB218460837BD4680BD80B582B000AF8A
:1016200078607868FFF78BFF03461B0C9BB2184667
:101630000837BD4680BD000080B582B000AF78603D
:101640000B467B807868FFF77AFF0246054B134014
:101650007A8813431946786807F0B0FA00BF083754
:10166000BD4680BD0000FFFF80B582B000AF78604E
:101670000B467B807868FFF762FF03469AB27B884F
:101680001B0413431946786807F098FA00BF08371F
:10169000BD4680BD80B500AF08F090FC03461846FB
:1016A00080BD000080B400AF644B1B680922DA657E
:1016B000624B1B680A2283F86420604B1B680A2275
:1016C00083F865205D4B1B680A2283F866205B4B1C
:1016D0001B680F2283F86720584B1B68052283F88C
:1016E0006820564B1B68052283F86920534B1B6802
:1016F000052283F86A20514B1B68052283F86B2072
:101700004E4B1B68052283F86C204C4B1B680F2244
:1017100083F87020494B1B680F2283F87120474BD8
:101720001B680F2283F87220444B1B680F2283F83A
:101730007320424B1B680F2283F874203F4B1B68B9
:101740000F2283F875203D4B1B680F2283F876200B
:101750003A4B1B680F2283F87720384B1B680F2207
:1017600083F87820354B1B68102283F87C20334B9C
:101770001B68102283F87D20304B1B68102283F8F1
:101780007E202E4B1B68132283F87F202B4B1B6877
:10179000112283F88020294B1B68102283F88120B6
:1017A000264B1B68132283F88220244B1B681322CC
:1017B00083F88320214B1B68132283F884201F4B5E
:1017C0001B680022A3F888201C4B1B68A022A3F8EA
:1017D0008A201A4B1B684FF4A072A3F88C20174B79
:1017E0001B684FF4F072A3F88E20144B1B6840F274
:1017F000FD22A3F89020114B1B6840F25232A3F84F
:1018000092200E4B1B6840F2A232A3F894200B4B9F
:101810001B6840F20142A3F89620084B1B684FF466
:101820008C62A3F89820054B1B6840F2BF421A66F1
:1018300000BFBD465DF8047B704700BFD4A6002002
:1018400080B400AF2F4B00225A822E4B5A8A2D4B68
:101850001A802C4B0A229A822A4B9A8A294B5A8048
:10186000284B1422DA82274BDA8A264B9A80254BA2
:101870001E221A83234B1A8B224BDA80214B2D22F6
:101880005A83204B5A8B1F4B1A811E4B32229A834C
:101890001C4B9A8B1B4B5A811A4B3722DA83194BFC
:1018A000DA8B184B9A81174B3C221A84154B1A8CF1
:1018B000144BDA81134B41225A84124B5A8C114B30
:1018C0001A82104B09229A840E4B1322DA840D4B94
:1018D0001D221A850B4B2C225A850A4B31229A85E0
:1018E000084B3622DA85074B3B221A86054B4022ED
:1018F0005A86044B45229A8600BFBD465DF8047B9C
:10190000704700BFC81F002080B483B000AF0346FB
:10191000FB71FB79082B27D801A252F823F000BFF6
:10192000551900084D1900085119000845190008FB
:1019300049190008591900085D19000861190008C3
:10194000651900080C4B10E00C4B0EE00C4B0CE042
:101950000C4B0AE00C4B08E00C4B06E00C4B04E08F
:101960000C4B02E00C4B00E00C4B18460C37BD460C
:101970005DF8047B704700BFB8B5000800B60008EA
:1019800048B600089CB60008E8B6000834B700085E
:1019900080B70008D4B700082CB8000888B8000841
:1019A00080B582B000AF786000F070FC7B68012BDE
:1019B00002D100F087F80CE07B68022B03D10748C6
:1019C00000F046FF05E07B68002B02D0044800F0E1
:1019D0003FFF00BF0837BD4680BD00BFB8B8000854
:1019E000F8B8000880B586B000AF0023FB75304B17
:1019F0001B68002B0AD12E4B1B68002B04D12D48ED
:101A000000F026FF00234EE000234CE0284B1B682B
:101A10001B6B012B01D1012345E0274B1B68002BD9
:101A20003ED1EFF31083BB60BB683B610123FB60D9
:101A3000FB6883F3108800BF204B1B6801331F4AEB
:101A400013601B4B1B6801221A63FFF723FE03463A
:101A50001846FFF78CFD0346FB75FB7D002B10D16C
:101A6000032000F0A5FD0346FB75FB7D144A1946D3
:101A7000032000F08FFEFB7D00221946032000F0BA
:101A8000E9FAFB7D184600F073FA0C4B1B68013B2A
:101A90000A4A13603B697B607B6883F3108800BF50
:101AA000034B1B681B6B18461837BD4680BD00BF33
:101AB000D4A600202CB90008B81F0020B01F0020B9
:101AC00070B9000880B500AFFFF78CFF00BF80BD84
:101AD00080B500AF084B1B68002B03D0064B1B687A
:101AE00000221A63054B1B68002B02D0034B1B68B6
:101AF000984700BF80BD00BFD4A60020C01F0020B3
:101B000080B58EB000AFF860B9607A60404B1B685A
:101B1000002B78D07B68002B03DA7B685B427B6309
:101B200001E07B687B63EFF31083BB61BB693B63C0
:101B30000123FB61FB6983F3108800BF354B1B68F1
:101B40000133344A1360BB68002B05D0324B1A684E
:101B50007B681344304A13602D4B1B681B6B002BB2
:101B600046D0FF2000F052FF034687F82F30796BF4
:101B70004FF6FF7000F05AF90346BB8500F09CFC5D
:101B8000B862BB6A002B33D0BB6A97F82F205A701B
:101B9000BB6A00221A70BB6ABA8D5A8000F00EFF31
:101BA000B9684FF6FF7000F041F90346FB8400234B
:101BB00087F8253000F080FC38623B6A002B17D094
:101BC0003B6AFA8C5A803B6A97F825205A70FB686A
:101BD000DBB20133DAB23B6A1A70FB68DAB2BB6A75
:101BE0001A7000F0EBFE0A4B1B680B4A12681A656C
:101BF000084B1B68013B074A13603B6B7B617B69A9
:101C000083F3108800E000BF3837BD4680BD00BFB9
:101C1000D4A60020B01F0020C41F002080B58AB0C9
:101C200000AFF8600B467A60FB72FB68FE2B03D9AD
:101C3000324800F00DFE5DE0FB7A082B03D93048F6
:101C400000F006FE56E02F4B1A68FB7A134493F817
:101C500064301A467B68934203D92B4800F0F8FDA4
:101C600048E02A4B1B68002B03D0294800F0F0FD08
:101C700040E0284B1B78002B3BD0EFF310837B61B7
:101C80007B697B620123BB61BB6983F3108800BF62
:101C90001E4B1B6801331D4A13601A4B1B681B6BDC
:101CA000002B1BD04FF6FF7000F0B0FE03467B8484
:101CB0007B6887F8213000F0FFFBF861FB69002B9F
:101CC0000CD0FB697A8C5A80FB68DAB2FB691A7017
:101CD000FB6997F821205A7000F070FE0B4B1B68CF
:101CE000013B0A4A13607B6A3B613B6983F31088BE
:101CF00000E000BF2837BD4680BD00BF50BD0008D2
:101D000088BD0008D4A60020D0BD0008B01F002068
:101D100018BE0008BC1F002080B58AB000AFF86074
:101D20007A603B600B46FB72FB68FE2B03D9384898
:101D300000F08EFD68E0FB7A082B03D9354800F0EF
:101D400087FD61E0344B1A68FB7A134493F86430E2
:101D50001A467B68934203D9304800F079FD53E07E
:101D60002F4B1B68002B03D02E4800F071FD4BE079
:101D7000EFF310837B617B697B620123BB61BB69ED
:101D800083F3108800BF264B1B680133244A13607D
:101D9000214B1B681B6B002B2BD0234B1B78002B7C
:101DA00027D0FF2000F032FE034687F82330396841
:101DB000FF2000F03BF8034687F822307B6887F865
:101DC000213000F079FBF861FB69002B11D0FB6931
:101DD00097F82320DA70FB68DAB2FB691A70FB69A6
:101DE00097F821205A70FB6997F822209A7000F02A
:101DF000E5FD0B4B1B68013B094A13607B6A3B61A5
:101E00003B6983F3108800BF2837BD4680BD00BF03
:101E100050BE000890BE0008D4A60020E0BE000816
:101E2000B01F002030BF0008BC1F002080B584B068
:101E300000AF786039607B68FF2B09D07B684FF674
:101E4000FF72934204D0164800F002FD3B6823E085
:101E50003A687B689A4201D83B681DE000F02CFB91
:101E6000F860FB68002B14D0FB6801221A707B68B5
:101E7000DA433B6813401B0ADAB2FB685A707B688E
:101E8000DA433B6813401B0C9AB2FB685A8000F09F
:101E900095FD3A687B68134018461037BD4680BDF3
:101EA00068BF000880B58AB000AF78603960002351
:101EB000FB847B68FE2B03D9284800F0C9FC49E06D
:101EC000274B1B68002B03D0264800F0C1FC41E0E3
:101ED000EFF310833B613B693B6201237B617B69CC
:101EE00083F3108800BF1E4B1B6801331C4A13602C
:101EF0001D4B1B681B6B002B21D01C4B1B78002B30
:101F00001DD0FF2000F082FD0346FB7739684FF6B5
:101F1000FF70FFF78BFF0346FB8400F0CDFAB8613A
:101F2000BB69002B0BD0BB69FA7F5A707B68DAB2B1
:101F3000BB691A70BB69FA8C5A8000F03FFD084BF0
:101F40001B68013B064A13603B6AFB60FB6883F336
:101F5000108800BF2837BD4680BD00BFA4BF000861
:101F6000B01F0020FCBF0008D4A60020BC1F00202A
:101F700080B588B000AF0346FB71FB790F2B03D906
:101F80002F4800F065FC58E0EFF31083FB60FB681E
:101F9000FB6101233B613B6983F3108800BF294B40
:101FA0001B680133274A1360274B1B78FA799A4242
:101FB00038D0264B1B681B6B002B33D0244B0022E0
:101FC0001A604FF6FF7000F021FD03467B831E4A26
:101FD000FB7913701C4B1B787B7600F06DFA7861EF
:101FE0007B69002B1ED0184B1B781946032000F08C
:101FF000E7F80346012B03D17B6907221A7002E040
:102000007B6906221A707B697A8B5A807B697A7E9B
:102010005A700D4B1B7801221946032000F094F8EA
:1020200000F0CCFC074B1B68013B064A1360FB69C0
:10203000BB60BB6883F3108800BF2037BD4680BDFE
:1020400034C00008B01F0020BC1F0020D4A6002010
:10205000A01F002090B583B000AF0346FB710B4674
:10206000BB7113467B71FB79082B03D9144800F030
:10207000EFFB22E0134B1A68FB79134493F86430AA
:10208000BA799A4203D9104800F0E2FB15E00D4BF3
:102090001C68FA79BB791146184600F031FA0346FC
:1020A0001946084B1A68FB79134493F870300B44B7
:1020B000013323447A7983F89C200C37BD4690BDC8
:1020C000C8C10008D4A6002014C2000890B583B08F
:1020D00000AF03460A46FB711346BB71FB79082B20
:1020E00004D9164800F0B4FB002322E0144B1A6810
:1020F000FB79134493F86430BA799A4204D91148B1
:1021000000F0A6FB002314E00D4B1C68FA79BB79A4
:102110001146184600F0F4F903461946084B1A68B0
:10212000FB79134493F870300B440133234493F844
:102130009C3018460C37BD4690BD00BF54C2000805
:10214000D4A60020A0C2000890B583B000AF03461B
:10215000FB710B46BB7113467B71FB79082B03D9CE
:10216000144800F075FB21E0134B1A68FB79134407
:1021700093F86430BA799A4203D9104800F068FBAA
:1021800014E00D4B1C68FA79BB791146184600F033
:10219000B7F903461946084B1A68FB79134493F8BC
:1021A00070300B4423447A7983F89C200C37BD4669
:1021B00090BD00BFE0C20008D4A6002024C30008E0
:1021C00090B583B000AF03460A46FB711346BB715E
:1021D000FB79082B04D9154800F03AFB002321E0D5
:1021E000134B1A68FB79134493F86430BA799A4216
:1021F00004D9104800F02CFB002313E00C4B1C68A2
:10220000FA79BB791146184600F07AF90346194667
:10221000074B1A68FB79134493F870300B4423443E
:1022200093F89C3018460C37BD4690BD60C300083B
:10223000D4A60020A4C3000890B583B000AF034625
:10224000FB71104B1B6893F86730FA799A4203D9F7
:102250000D4800F0FDFA11E00A4B1C68FB790321E0
:10226000184600F04DF903461A46064B1B6893F8D2
:10227000733013442344002283F89C200C37BD465E
:1022800090BD00BFD4A60020E0C3000880B500AF19
:10229000834B1B68002B03D1814B824A1A6006E0F6
:1022A0007F4B1B681B78DBB2012B00F0F6807E4B66
:1022B0001B687E4A13607A4B1B6848F278620021E3
:1022C000184608F0C1FF764B1B6841F6A1229A819F
:1022D000734B1B6805229A73714B1B680022DA73DB
:1022E0006F4B1B6848F278621A616D4B1B684FF4A4
:1022F000FA529A616A4B1B684FF0F0325A65684B8C
:102300001B6800229A65664B1B6800225A63FFF720
:10231000C9F9634B1B684FF0F132C3F85C25604B81
:102320001B684FF44872C3F860255D4B1B6801229F
:10233000C3F864255A4B1B684FF0F232C3F81029DA
:10234000574B1B6803F6141350225949184600F0E6
:10235000FBF9534B1B684FF0F332C3F86429504B21
:102360001B6803F500430A2283F86C264C4B1B685C
:1023700003F500430B2283F86D26494B1B6803F5D8
:1023800000430C2283F86E26454B1B6803F500437F
:102390000D2283F86F26424B1B6803F50043712220
:1023A00083F870263E4B1B6803F50043722283F8C6
:1023B00071263B4B1B6803F50043732283F872269A
:1023C000374B1B6803F50043742283F87326344BA4
:1023D0001B6803F50043F12283F87426304B1B6819
:1023E00003F50043F22283F875262D4B1B6803F595
:1023F0000043F32283F87626294B1B6803F500433C
:10240000F42283F87726FFF71BFA254B1B68F4228A
:10241000DA72234B1B68F3229A72214B1B68F2225B
:102420005A721F4B1B68F1221A721D4B1B687422D3
:10243000DA711B4B1B6873229A71194B1B6872224D
:102440005A71174B1B6871221A71154B1B680422B5
:10245000DA70134B1B6803229A70114B1B6802221F
:102460005A700F4B1B6801221A70124B1B68002B0D
:1024700010D00B4B1B6803F614130E4A1168502240
:10248000184600F061F9064B1B680122C3F80C29BD
:10249000FFF71EFB00F092FB00E000BF80BD00BF15
:1024A000D4A600205C200020041000E0582000206A
:1024B00028C40008B81F002080B500AF0E4B1B6871
:1024C0001B6B002B01D1002313E00B4B1B68DB6956
:1024D000B3F5FA5F04D3094800F0BAF9002308E025
:1024E000054B1A68044B1B68DB699B0003F66813F5
:1024F0001344184680BD00BFD4A600203CC4000889
:1025000080B582B000AF03460A46FB711346BB712B
:10251000BB79082B04D9224800F09AF900233AE04D
:10252000FB79002B08D01F4B1A68BB79134493F832
:102530006430FA799A4204D91B4800F089F90023E3
:1025400029E0BB79082B22D8FB79002B1FD0154B33
:102550001A68BB79134493F86430FA799A4216D812
:10256000104B1A68BB7940335B0013441A890D4B3A
:102570001968BB790B4493F87C3099B2FB79013B25
:102580009BB211FB03F39BB213449BB203E00748D9
:1025900000F05EF9002318460837BD4680BD00BF35
:1025A00064C40008D4A60020A4C40008E4C4000841
:1025B00080B588B000AF0346FB714E4B1B68002B03
:1025C00004D14D4800F044F900238FE0FB79082B3B
:1025D00004D94A4800F03CF9002387E0EFF3108368
:1025E000FB60FB68BB6101233B613B6983F310889F
:1025F00000BF434B1B680133414A1360FB79414ADA
:1026000032F813301A46404B1A603F4B1B683D4A64
:10261000134493F84830002B14D13B4B1B68DAB2BB
:10262000FB79384908335B000B445B88DBB2D31A73
:10263000DAB2354B1B680132D1B2324A13440A4632
:1026400083F84820304B1B682E4A134493F84830D7
:10265000FB77FB792B4A32F81320FB792949103399
:102660005B000B449B889A420AD9FB791846FFF716
:102670004BF90346184600F0EBF80023FB7729E0FE
:10268000FB79204A32F81320013291B21D4A22F818
:102690001310FB791B4A32F813301946FB79194A9B
:1026A00008335B0013445B88CB1A7B61FB79154AC6
:1026B00018335B001344DB881A467B69934209DDBB
:1026C0007B69DAB2FB7991B20E4A18335B0013448E
:1026D0000A46DA800A4B1B68013B094A1360BB6952
:1026E000BB60BB6883F3108800BFFB7F18462037B0
:1026F000BD4680BDD4A600207CB9000824C50008D2
:10270000B01F0020C81F0020D8A6002080B584B0CC
:1027100000AF03460A46FB711346BB71FA79BB79D9
:1027200011461846FFF7ECFE0346FB81054B1A687D
:10273000FB891344012283F89C2000BF1037BD465B
:1027400080BD00BFD4A6002080B487B000AFF86081
:10275000B9607A6000237B6110E0BA687B691A4433
:10276000F9687B690B4412781A70BA687B69134464
:102770001B78002B07D07B6901337B617A697B680A
:102780009A42EAD300E000BF00BF1C37BD465DF8A7
:10279000047B704780B582B000AF03463A60FB719E
:1027A0000B46BB713B68002B03D1234800F050F867
:1027B0003EE0FB79082B03D9204800F049F837E0C8
:1027C000BB79002B03D11E4800F042F830E01D4BCE
:1027D0001A68FB79134493F86430BA799A4208D99D
:1027E000FB791846FFF790F80346184600F030F8DA
:1027F0001EE0FA79BB7911461846FFF781FE0346C1
:102800001A46114B1A80114B1B68002B10D10D4B2F
:102810001A680D4B1B8898331344181D094B1A680E
:10282000FB79134493F870301A463968FFF78CFF30
:102830000837BD4680BD00BF28C600085CC600083A
:102840008CC60008D4A60020DCA60020B81F0020FB
:1028500080B582B000AF7860114B1B68002B01D0AF
:10286000FFF736F90F4B1B68002B15D10D4A7B681B
:1028700013600B4B1B68002B0ED0094B1B6803F633
:102880001413084A116850221846FFF75DFF044BE5
:102890001B680122C3F80C2900BF0837BD4680BD64
:1028A000D4A60020B81F002080B586B000AF034634
:1028B000FB7100237B6100233B61FB79002B72D10C
:1028C0003C48FFF7C5FF72E03B4B1B68DB697A6948
:1028D00013443B61384B1A683B699B00134493F8DF
:1028E0006839982B28D9344B1A683B699B001344EC
:1028F00093F86839A72B1FD82F4B1A683B699B00A8
:10290000134493F868396833FB73FA7B3B691A44C4
:10291000294B1B689B699A4241D2274B1A683B6935
:102920009B0003F66813D018FB7B01339B001A460B
:10293000002108F089FC32E01F4B1A683B699B00BC
:10294000134493F86839012B2AD13B695A1C1A4B5E
:102950001B689B699A420CD2174B1A683B699B0013
:1029600003F66813134408220021184608F06CFC93
:1029700016E0114B1B6803F6681304220021184669
:1029800008F062FC0C4B1A683B699B0003F6681365
:10299000134404220021184608F056FC00E000BF52
:1029A0007B6901337B61FB797A699A428CD3183752
:1029B000BD4680BDECC60008D4A6002080B500AF9F
:1029C000114B1B681B6B002B1BD00F4B1B685A69EC
:1029D00001325A610C4B1B68DA690132DA610A4B29
:1029E0001B68DB69B3F5FA5F07D3074B1B6801224D
:1029F0001A62054B1B680022DA610120FFF754FFC1
:102A000000E000BF80BD00BFD4A6002080B586B026
:102A100000AF0346FB8000237B6100233B61002362
:102A2000FB60FB88FF2B09D0FB884FF6FF729342B7
:102A300004D05A48FFF70CFF0023ABE0584B1B684B
:102A40005B6A002B16D1574B1B68002B06D0554BE9
:102A50001A68534B1B6892085A620BE0524B1A6873
:102A6000524B1B689A4205D0514B1A684C4B1B685D
:102A700092085A6207F10C03184600F0D7F8FA687A
:102A80004C4B1B68D31A3B61FB684A4A1360444BAA
:102A90001B685B6A002B43D0414B1B685B6A3A6939
:102AA0009A421DD93E4B1B68D96A3D4B1B685B6A35
:102AB0003A69B2FBF3F23A4B1B680A44DA62384BCC
:102AC0001B68996A364B1B685A6A3B69B3FBF2F084
:102AD00000FB02F29A1A324B1B680A449A6207E022
:102AE0002F4B1B68996A2E4B1B683A690A449A62FD
:102AF0002B4B1B689A6A2A4B1B685B6A9A4213D35A
:102B0000274B1B68DA6A0132DA62254B1B68996A27
:102B1000234B1B685A6A224B1B688A1A9A6203E08D
:102B20001F4B1B68FA689A62FB883A699A422CD953
:102B3000FFF7C2FC78617B69002B26D0FB884FF63B
:102B4000FF7293420BD17B69A9221A703B691B0C5F
:102B50009AB27B695A807B6900225A7013E0FB8825
:102B6000FF2B0DD17B69A8221A703B691B0A9AB210
:102B70007B695A803B691B0EDAB27B695A7002E0AE
:102B80000D48FFF765FEFFF719FF3B699AB2FB8816
:102B900013409BB218461837BD4680BD44C7000895
:102BA000D4A60020B41F0020041000E0582000200C
:102BB00000000020E0A6002084C7000880B500AF18
:102BC000134B144A1A60144B1B68134A43F080736A
:102BD0001360114B1B68002B03D11048FFF738FE20
:102BE00013E00F4B1B6803F00073002B03D00D485C
:102BF000FFF72EFE09E00C4B00221A60084B1B6801
:102C0000074A43F00103136000BF00BF80BD00BF4F
:102C1000B01F00E055CEACC5FCED00E070C9000867
:102C2000001000E09CC90008041000E080B487B0E8
:102C300000AF786000237B6100233B610023FB60D1
:102C40001A4B1B68012B07D17B68002B28D0184B2F
:102C50001A687B681A6023E0164B1B687B61164B71
:102C60001B687A69D21A154B1B6813443B613B6998
:102C70009B08FB603B6903F00303104A13600C4B95
:102C80001A68FB6813440A4A13607B68002B03D060
:102C9000074B1A687B681A60074A7B69136000E07B
:102CA00000BF1C37BD465DF8047B7047A81F00209D
:102CB000AC1F0020041000E0E4A60020E8A60020DD
:102CC00080B500AF032000F06AFC0F20FEF74EFB3A
:102CD000FEF762F90023184680BD000080B400AF03
:102CE000064B1B781A46064B1B681344044A1360B4
:102CF00000BFBD465DF8047B704700BF1400002094
:102D0000ECA6002080B400AF034B1B681846BD46FC
:102D10005DF8047B704700BFECA6002080B584B04E
:102D200000AF7860FFF7EEFFB8607B68FB60FB6880
:102D3000B3F1FF3F05D00A4B1B781A46FB681344DA
:102D4000FB6000BFFFF7DEFF0246BB68D31AFA68DC
:102D50009A42F7D800BF00BF1037BD4680BD00BF04
:102D60001400002080B584B000AF78600023FB73AE
:102D70007B68002B01D1012331E07B681B6C002BA9
:102D800009D17868FEF730F97B6800225A647B68C5
:102D9000002283F83C207B681B6C03F01003002B9F
:102DA00016D17B681A6C104B134043F002027B680B
:102DB0001A64786800F04CFA7B6800225A647B68D9
:102DC0001B6C23F0030343F001027B681A6401E0EB
:102DD0000123FB737B68002283F83C20FB7B1846B1
:102DE0001037BD4680BD00BFFDEEFFFF80B485B04B
:102DF00000AF78600023FB607B6893F83C30012BC8
:102E000001D10223ADE07B68012283F83C207B687E
:102E10001B689B6803F00103012B18D07B681B68BB
:102E20009A687B681B6842F001029A60504B1B68ED
:102E3000504AA2FB03239A0C13465B001344FB6029
:102E400002E0FB68013BFB60FB68002BF9D17B686B
:102E50001B689B6803F00103012B75D17B681A6C1A
:102E6000454B134043F480727B681A647B681B688F
:102E70005B6803F48063002B07D07B681B6C23F432
:102E8000405343F480527B681A647B681B6C03F4E4
:102E90008053B3F5805F06D17B685B6C23F006023C
:102EA0007B685A6402E07B6800225A647B680022D7
:102EB00083F83C207B681B686FF022021A602F4B5E
:102EC0005B6803F01F03002B0FD17B681B689B68B6
:102ED00003F04053002B43D17B681B689A687B68E2
:102EE0001B6842F080429A603AE07B681B68244A83
:102EF00093420ED17B681B689B6803F04053002B04
:102F000007D17B681B689A687B681B6842F0804227
:102F10009A601A4B5B6803F01003002B20D17B688A
:102F20001B68184A93421BD17B681B689B6803F09F
:102F30004053002B14D17B681B689A687B681B6820
:102F400042F080429A600BE07B681B6C43F01002F9
:102F50007B681A647B685B6C43F001027B685A648F
:102F6000002318461437BD465DF8047B704700BF48
:102F70000000002083DE1B43FEF8FFFF002301401A
:102F8000002001400022014080B483B000AF78608F
:102F90007B681B68DB6C18460C37BD465DF8047B0C
:102FA0007047000080B485B000AF786039600023BE
:102FB000FB607B6893F83C30012B01D1022336E1A2
:102FC0007B68012283F83C203B681B68092B3AD9B7
:102FD0003B681B68B3F1004F35D07B681B68D9682C
:102FE0003B681B689BB21A4613465B0013441E3BAA
:102FF000072202FA03F3DA437B681B680A40DA60AF
:103000003B681B688D4A93420AD17B681B68D9686C
:103010003B689B681A067B681B680A43DA6035E0E8
:103020007B681B68D9683B689A683B681B689BB2E1
:10303000184603465B0003441E3B9A407B681B68AE
:103040000A43DA6022E07B681B6819693B681B68E9
:103050009BB21A4613465B001344072202FA03F39D
:10306000DA437B681B680A401A617B681B68196930
:103070003B689A683B681B689BB2184603465B0036
:1030800003449A407B681B680A431A613B685B688B
:10309000062B24D87B681B68596B3B685A6813461B
:1030A0009B001344053B1F2202FA03F3DA437B68BB
:1030B0001B680A405A637B681B68596B3B681B6836
:1030C0009BB218463B685A6813469B001344053B65
:1030D00000FA03F27B681B680A435A634CE03B68C2
:1030E0005B680C2B24D87B681B68196B3B685A689B
:1030F00013469B001344233B1F2202FA03F3DA43D7
:103100007B681B680A401A637B681B68196B3B6805
:103110001B689BB218463B685A6813469B001344D1
:10312000233B00FA03F27B681B680A431A6323E01F
:103130007B681B68D96A3B685A6813469B00134436
:10314000413B1F2202FA03F3DA437B681B680A4003
:10315000DA627B681B68D96A3B681B689BB21846B9
:103160003B685A6813469B001344413B00FA03F244
:103170007B681B680A43DA627B681B68304A9342AB
:103180000AD13B681B68B3F1004F05D12D4B5B683A
:103190002C4A23F4400353607B681B68284A9342FF
:1031A0000FD13B681B68122B0BD1264B5B68254A5D
:1031B00023F400035360234B5B68224A43F48003EB
:1031C00053607B681B681E4A93422BD13B681B6887
:1031D0001A4A934203D03B681B68112B22D1194B2A
:1031E0005B68184A23F480035360164B5B68154AEA
:1031F00043F4000353603B681B68104A934211D1AB
:10320000114B1B68114AA2FB03239A0C13469B0027
:1032100013445B00FB6002E0FB68013BFB60FB6862
:10322000002BF9D17B68002283F83C20002318464C
:103230001437BD465DF8047B704700BF12000010D4
:1032400000200140002301400000002083DE1B43DA
:1032500080B483B000AF7860784B5B68774A23F422
:1032600040335360754B5A687B685B6873491343FE
:103270004B607B681B685A687B681B6822F480720D
:103280005A607B681B6859687B681B691A027B68F7
:103290001B680A435A607B681B685A687B681B6816
:1032A00022F040725A607B681B6859687B689A6894
:1032B0007B681B680A435A607B681B689A687B6856
:1032C0001B6822F400629A607B681B6899687B68BF
:1032D000DA687B681B680A439A607B689B6A584A75
:1032E000934222D07B681B689A687B681B6822F037
:1032F00070629A607B681B6899687B689A6A7B68D1
:103300001B680A439A607B681B689A687B681B6825
:1033100022F040529A607B681B6899687B68DA6A81
:103320007B681B680A439A600FE07B681B689A6899
:103330007B681B6822F070629A607B681B689A68E1
:103340007B681B6822F040529A607B681B689A6811
:103350007B681B6822F002029A607B681B68996890
:103360007B689B695A007B681B680A439A607B688C
:1033700093F82030002B1BD07B681B685A687B6851
:103380001B6842F400625A607B681B685A687B685D
:103390001B6822F460425A607B681B6859687B682E
:1033A0005B6A013B5A037B681B680A435A6007E06B
:1033B0007B681B685A687B681B6822F400625A604D
:1033C0007B681B68DA6A7B681B6822F47002DA6229
:1033D0007B681B68D96A7B68DB69013B1A057B68DF
:1033E0001B680A43DA627B681B689A687B681B6803
:1033F00022F400729A607B681B6899687B6893F876
:1034000030305A027B681B680A439A607B681B68ED
:103410009A687B681B6822F480629A607B681B68EC
:1034200099687B685B699A027B681B680A439A60AB
:1034300000BF0C37BD465DF8047B70470023014098
:103440000100000F80B485B000AF78607B6803F0A6
:103450000703FB600B4BDB68BB60BA684FF6FF03EA
:103460001340BB60FB681A02BB681A43064B134348
:10347000BB60044ABB68D36000BF1437BD465DF82B
:10348000047B704700ED00E00000FA0580B400AF57
:10349000044BDB681B0A03F007031846BD465DF8C2
:1034A000047B704700ED00E080B483B000AF0346BA
:1034B000FB7197F90730002B0BDBFB7903F01F0240
:1034C000074997F907305B09012000FA02F241F839
:1034D000232000BF0C37BD465DF8047B704700BF5A
:1034E00000E100E080B483B000AF03463960FB71B7
:1034F00097F90730002B0ADB3B68DAB20C4997F9E1
:1035000007301201D2B20B4483F800230AE03B6873
:10351000DAB20849FB7903F00F03043B1201D2B27F
:103520000B441A7600BF0C37BD465DF8047B70472C
:1035300000E100E000ED00E080B489B000AFF86089
:10354000B9607A60FB6803F00703FB61FB69C3F1B4
:103550000703042B28BF0423BB61FB690433062B3C
:1035600002D9FB69033B00E000237B614FF0FF328F
:10357000BB6902FA03F3DA43BB681A407B699A40DD
:103580004FF0FF317B6901FA03F3D9437B680B40AD
:10359000134318462437BD465DF8047B704780B559
:1035A00082B000AF78607868FFF74CFF00BF083743
:1035B000BD4680BD80B586B000AF0346B9607A6075
:1035C000FB7300237B61FFF761FF78617A68B9685C
:1035D0007869FFF7B1FF024697F90F301146184698
:1035E000FFF780FF00BF1837BD4680BD80B582B0B1
:1035F00000AF0346FB7197F907301846FFF754FFF9
:1036000000BF0837BD4680BD80B489B000AF786088
:1036100039600023FB6100237B6100233B610023B1
:10362000BB610023FB6175E10122FB6902FA03F330
:103630007B613B681B687A6913403B613A697B692F
:103640009A4240F064813B685B6803F00303012BFE
:1036500005D03B685B6803F00303022B30D17B6825
:103660009B68BB61FB695B00032202FA03F3DB4347
:10367000BA691340BB613B68DA68FB695B0002FA18
:1036800003F3BA691343BB617B68BA699A607B68CC
:103690005B68BB610122FB6902FA03F3DB43BA6991
:1036A0001340BB613B685B681B0903F00102FB69C7
:1036B00002FA03F3BA691343BB617B68BA695A60C3
:1036C0003B685B6803F00303032B17D07B68DB6860
:1036D000BB61FB695B00032202FA03F3DB43BA69B7
:1036E0001340BB613B689A68FB695B0002FA03F315
:1036F000BA691343BB617B68BA69DA603B685B688F
:1037000003F00303022B23D1FB69DA087B6808323C
:1037100053F82230BB61FB6903F007039B000F22C3
:1037200002FA03F3DB43BA691340BB613B681A69D1
:10373000FB6903F007039B0002FA03F3BA69134322
:10374000BB61FB69DA087B680832B96943F822106B
:103750007B681B68BB61FB695B00032202FA03F311
:10376000DB43BA691340BB613B685B6803F003024B
:10377000FB695B0002FA03F3BA691343BB617B6820
:10378000BA691A603B685B6803F44033002B00F0B1
:10379000BE80664B5B6C654A43F480435364634B65
:1037A0005B6C03F48043FB60FB68614AFB699B0828
:1037B000023352F82330BB61FB6903F003039B0023
:1037C0000F2202FA03F3DB43BA691340BB617B6843
:1037D000584A934237D07B68574A934231D07B682E
:1037E000564A93422BD07B68554A934225D07B683A
:1037F000544A93421FD07B68534A934219D07B6846
:10380000524A934213D07B68514A93420DD07B6851
:10381000504A934207D07B684F4A934201D1092313
:1038200012E00A2310E008230EE007230CE0062331
:103830000AE0052308E0042306E0032304E0022352
:1038400002E0012300E00023FA6902F00302920083
:103850009340BA691343BB613549FB699B08023346
:10386000BA6941F823203D4B9B68BB613B69DB4350
:10387000BA691340BB613B685B6803F48013002B9B
:1038800003D0BA693B691343BB61344ABB69936097
:10389000324BDB68BB613B69DB43BA691340BB61F8
:1038A0003B685B6803F40013002B03D0BA693B69E3
:1038B0001343BB61294ABB69D360284B5B68BB617A
:1038C0003B69DB43BA691340BB613B685B6803F447
:1038D0000033002B03D0BA693B691343BB611F4A15
:1038E000BB6953601D4B1B68BB613B69DB43BA6915
:1038F0001340BB613B685B6803F48033002B03D04B
:10390000BA693B691343BB61144ABB691360FB6925
:103910000133FB61FB690F2B7FF686AE00BF00BF52
:103920002437BD465DF8047B704700BF0038024075
:10393000003801400000024000040240000802403C
:10394000000C024000100240001402400018024027
:10395000001C02400020024000240240003C0140C4
:1039600080B485B000AF78600B467B807B681A69B5
:103970007B881340002B02D00123FB7301E000235E
:10398000FB73FB7B18461437BD465DF8047B70471C
:1039900080B483B000AF78600B467B8013467B70A9
:1039A0007B78002B03D07A887B689A6103E07B8860
:1039B0001A047B689A6100BF0C37BD465DF8047B32
:1039C000704780B485B000AF78600B467B807B6821
:1039D0005B69FB607A88FB6813401A04FB68D94373
:1039E0007B880B401A437B689A6100BF1437BD4641
:1039F0005DF8047B7047000080B582B000AF0346DD
:103A0000FB80084B5A69FB881340002B06D0054AFF
:103A1000FB885361FB881846FDF704F900BF08379F
:103A2000BD4680BD003C0140F0B58FB00AAF786064
:103A30007B68002B01D1012316E17B681B68BB600A
:103A40007B6893F8BD34DBB2002B06D17B68002283
:103A500083F8BC247868FDF70FFC7B68032283F8A9
:103A6000BD24BB68DB6B03F48073002B02D17B6841
:103A700000221A617B681B68184602F027FF7B68EA
:103A80001B683B607E686D4606F110040FCC0FC5C5
:103A90000FCC0FC594E8030085E80300331D0ECB5F
:103AA000386802F0BBFE0346002B05D07B6802227B
:103AB00083F8BD240123D7E07B681B6800211846EA
:103AC00002F015FF0023FB734AE0FA7B7968134686
:103AD000DB0013449B000B443D3301221A70FA7B38
:103AE00079681346DB0013449B000B443C33FA7B9C
:103AF0001A70FA7BFB7B98B279681346DB0013449B
:103B00009B000B44443302461A80FA7B79681346C3
:103B1000DB0013449B000B44403300221A70FA7BF5
:103B200079681346DB0013449B000B4448330022A2
:103B30001A60FA7B79681346DB0013449B000B4440
:103B40004C3300221A60FA7B79681346DB00134479
:103B50009B000B44543300221A60FB7B0133FB7340
:103B6000FA7B7B685B689A42AFD30023FB7344E027
:103B7000FA7B79681346DB0013449B000B4403F285
:103B80007D2300221A70FA7B79681346DB00134408
:103B90009B000B4403F51F73FA7B1A70FA7B79685C
:103BA0001346DB0013449B000B4403F520730022F3
:103BB0001A70FA7B79681346DB0013449B000B44B0
:103BC00003F5227300221A60FA7B79681346DB0042
:103BD00013449B000B4403F5237300221A60FA7B05
:103BE00079681346DB0013449B000B4403F52573EF
:103BF00000221A60FB7B0133FB73FA7B7B685B68F6
:103C00009A42B5D37B681B683B607E686D4606F1BF
:103C100010040FCC0FC50FCC0FC594E8030085E846
:103C20000300331D0ECB386802F0AEFE0346002BB6
:103C300005D07B68022283F8BD24012314E07B6851
:103C4000002283F838207B68012283F8BD247B683A
:103C50005B6A012B02D1786800F00AF87B681B6868
:103C6000184603F06CF8002318461437BD46F0BD23
:103C700080B485B000AF78607B681B68FB607B68B0
:103C80000122C3F800257B68002283F8F424FB6836
:103C90009B6943F00062FB689A61FB685A6D054BB3
:103CA0001343FA685365002318461437BD465DF880
:103CB000047B70470300001080B400AF054B1B6805
:103CC000044A43F48073136000BFBD465DF8047B73
:103CD000704700BF0070004080B586B000AF7860CC
:103CE0000023FB757B68002B01D101239BE27B68DD
:103CF0001B6803F00103002B00F08780964B9B6844
:103D000003F00C03042B0CD0934B9B6803F00C03C3
:103D1000082B12D1904B5B6803F48003B3F5800F3E
:103D20000BD18D4B1B6803F40033002B6CD07B68E8
:103D30005B68002B68D1012375E27B685B68B3F593
:103D4000803F06D1844B1B68834A43F48033136061
:103D50002EE07B685B68002B0CD17F4B1B687E4A92
:103D600023F4803313607C4B1B687B4A23F480234D
:103D700013601DE07B685B68B3F5A02F0CD1764B18
:103D80001B68754A43F480231360734B1B68724AA7
:103D900043F4803313600BE06F4B1B686E4A23F4CF
:103DA000803313606C4B1B686B4A23F480231360D1
:103DB0007B685B68002B13D0FEF7A4FF386108E036
:103DC000FEF7A0FF02463B69D31A642B01D90323F7
:103DD00029E2614B1B6803F40033002BF0D014E0A0
:103DE000FEF790FF386108E0FEF78CFF02463B6962
:103DF000D31A642B01D9032315E2574B1B6803F434
:103E00000033002BF0D100E000BF7B681B6803F09B
:103E10000203002B69D0504B9B6803F00C03002B6E
:103E20000BD04D4B9B6803F00C03082B1CD14A4B65
:103E30005B6803F48003002B16D1474B1B6803F02B
:103E40000203002B05D07B68DB68012B01D0012326
:103E5000E9E1414B1B6823F0F8027B681B69DB003A
:103E60003D4913430B6040E07B68DB68002B23D0A7
:103E7000394B1B68384A43F001031360FEF742FFD9
:103E8000386108E0FEF73EFF02463B69D31A022B79
:103E900001D90323C7E1304B1B6803F00203002B59
:103EA000F0D02D4B1B6823F0F8027B681B69DB0008
:103EB000294913430B6018E0274B1B68264A23F05F
:103EC00001031360FEF71EFF386108E0FEF71AFFDA
:103ED00002463B69D31A022B01D90323A3E11E4BEF
:103EE0001B6803F00203002BF0D17B681B6803F012
:103EF0000803002B38D07B685B69002B19D0164B68
:103F00005B6F154A43F001035367FEF7FBFE386110
:103F100008E0FEF7F7FE02463B69D31A022B01D9EF
:103F2000032380E10C4B5B6F03F00203002BF0D006
:103F30001AE0094B5B6F084A23F001035367FEF751
:103F4000E1FE38610AE0FEF7DDFE02463B69D31A66
:103F5000022B03D9032366E100380240924B5B6FCA
:103F600003F00203002BEED17B681B6803F004030F
:103F7000002B00F0A4808C4B1B6C03F08053002BB3
:103F80000DD1894B1B6C884A43F080531364864BD8
:103F90001B6C03F08053BB60BB680123FB75834B34
:103FA0001B6803F48073002B18D1804B1B687F4A79
:103FB00043F480731360FEF7A5FE386108E0FEF756
:103FC000A1FE02463B69D31A642B01D903232AE1DF
:103FD000764B1B6803F48073002BF0D07B689B68E2
:103FE000012B06D1704B1B6F6F4A43F0010313671F
:103FF0002DE07B689B68002B0CD16B4B1B6F6A4AD2
:1040000023F001031367684B1B6F674A23F0040317
:1040100013671CE07B689B68052B0CD1624B1B6F00
:10402000614A43F0040313675F4B1B6F5E4A43F022
:10403000010313670BE05C4B1B6F5B4A23F001032A
:104040001367594B1B6F584A23F0040313677B68AF
:104050009B68002B15D0FEF755FE38610AE0FEF78D
:1040600051FE02463B69D31A41F28832934201D98C
:104070000323D8E04C4B1B6F03F00203002BEED060
:1040800014E0FEF73FFE38610AE0FEF73BFE024611
:104090003B69D31A41F28832934201D90323C2E02B
:1040A000414B1B6F03F00203002BEED1FB7D012B74
:1040B00005D13D4B1B6C3C4A23F0805313647B6855
:1040C0009B69002B00F0AE80374B9B6803F00C031C
:1040D000082B6DD07B689B69022B4BD1324B1B6840
:1040E000314A23F080731360FEF70CFE386108E05C
:1040F000FEF708FE02463B69D31A022B01D90323BF
:1041000091E0294B1B6803F00073002BF0D17B6812
:10411000DA697B681B6A1A437B685B6A9B011A43F6
:104120007B689B6A5B08013B1B041A437B68DB6A64
:104130001B061A437B681B6B1B071B4913434B6011
:10414000194B1B68184A43F080731360FEF7DAFDC1
:10415000386108E0FEF7D6FD02463B69D31A022B10
:1041600001D903235FE0104B1B6803F00073002BA1
:10417000F0D057E00C4B1B680B4A23F080731360A0
:10418000FEF7C0FD386108E0FEF7BCFD02463B6962
:10419000D31A022B01D9032345E0034B1B6803F01C
:1041A0000073002BF0D13DE0003802400070004069
:1041B0001F4B5B68FB607B689B69012B30D0FB6801
:1041C00003F480027B68DB699A4229D1FB6803F023
:1041D0003F027B681B6A9A4222D1FA6847F6C07395
:1041E00013407A68526A9201934219D1FB6803F432
:1041F00040327B689B6A5B08013B1B049A420FD1EB
:10420000FB6803F070627B68DB6A1B069A4207D189
:10421000FB6803F0E0427B681B6B1B079A4201D0EE
:10422000012300E0002318461837BD4680BD00BFBB
:104230000038024080B584B000AF78603960002358
:10424000FB607B68002B01D10123D0E06A4B1B6827
:1042500003F00F033A689A4210D9674B1B6823F0AA
:104260000F0265493B6813430B60634B1B6803F007
:104270000F033A689A4201D00123B8E07B681B68BB
:1042800003F00203002B20D07B681B6803F00403BB
:10429000002B05D0594B9B68584A43F4E053936078
:1042A0007B681B6803F00803002B05D0534B9B6809
:1042B000524A43F460439360504B9B6823F0F002F2
:1042C0007B689B684D4913438B607B681B6803F0D8
:1042D0000103002B40D07B685B68012B07D1474B63
:1042E0001B6803F40033002B15D101237FE07B68AA
:1042F0005B68022B07D1414B1B6803F00073002B56
:1043000009D1012373E03D4B1B6803F00203002B2E
:1043100001D101236BE0394B9B6823F003027B68DA
:104320005B68364913438B60FEF7ECFCF8600AE0EB
:10433000FEF7E8FC0246FB68D31A41F2883293424A
:1043400001D9032353E02D4B9B6803F00C027B68DB
:104350005B689B009A42EBD1274B1B6803F00F036D
:104360003A689A4210D2244B1B6823F00F0222496C
:104370003B6813430B60204B1B6803F00F033A6844
:104380009A4201D0012332E07B681B6803F00403EA
:10439000002B08D0194B9B6823F4E0527B68DB6844
:1043A000164913438B607B681B6803F00803002BDE
:1043B00009D0124B9B6823F460427B681B69DB00C9
:1043C0000E4913438B6000F021F802460B4B9B68AB
:1043D0001B0903F00F030A49CB5C22FA03F3094AD5
:1043E0001360094B1B681846FCF7C0FF00231846F2
:1043F0001037BD4680BD00BF003C0240003802407F
:104400002CCB000800000020100000202DE9B04F48
:1044100090B000AF00237B630023FB6300233B636A
:104420000023BB63594B9B6803F00C03082B0DD092
:10443000082B00F2A180002B02D0042B03D09BE0BC
:10444000534BBB639BE0534BBB6398E04F4B5B68A4
:1044500003F03F037B634D4B5B6803F48003002B49
:1044600028D04A4B5B689B0900223B627A623B6A18
:10447000C3F308000021474B03FB01F2002300FBBC
:1044800003F31344434AA0FB0212FA620A46BA62DB
:10449000FA6A1344FB627B6B0022BB61FA61D7E9C5
:1044A0000623D7E90A01FBF7D3FE02460B46134663
:1044B000FB6353E0354B5B689B0900223B617A61EB
:1044C0003B69C3F3080A4FF0000B52465B464FF0BE
:1044D00000004FF00001590141EAD261500102464B
:1044E0000B46B2EB0A0863EB0B094FF000024FF0EA
:1044F00000034FEA891343EA98634FEA8812B2EB4C
:10450000080463EB09054FF000024FF00003EB00D5
:1045100043EA5473E20014461D4614EB0A033B6061
:1045200045EB0B037B604FF000024FF00003D7E92F
:10453000004529468B02214643EA915321468A02CF
:10454000104619467B6B0022BB60FA60D7E9022354
:10455000FBF77EFE02460B461346FB630B4B5B6884
:104560001B0C03F0030301335B003B63FA6B3B6BF3
:10457000B2FBF3F3BB6302E0054BBB6300BFBB6B55
:1045800018464037BD46BDE8B08F00BF0038024036
:104590000024F40040787D0180B400AF034B1B6819
:1045A0001846BD465DF8047B704700BF0000002040
:1045B00080B500AFFFF7F0FF0246054B9B689B0AF2
:1045C00003F007030349CB5C22FA03F3184680BDCE
:1045D000003802403CCB000880B500AFFFF7DCFF9D
:1045E0000246054B9B685B0B03F007030349CB5C5A
:1045F00022FA03F3184680BD003802403CCB000885
:1046000080B483B000AF786039607B680F221A6095
:10461000124B9B6803F003027B685A600F4B9B6848
:1046200003F0F0027B689A600C4B9B6803F4E05245
:104630007B68DA60094B9B68DB0803F4E0527B6817
:104640001A61074B1B6803F00F023B681A6000BF3A
:104650000C37BD465DF8047B704700BF0038024050
:10466000003C024080B588B000AF786000237B61D9
:1046700000233B610023FB600023FB610023BB613F
:104680007B681B6803F00103002B12D0694B9B6809
:10469000684A23F400039360664B9A687B685B6BFF
:1046A000644913438B607B685B6B002B01D1012352
:1046B000FB617B681B6803F40023002B17D05D4B64
:1046C000D3F88C3023F440127B68DB6B59491343D9
:1046D000C1F88C307B68DB6BB3F5801F01D10123FF
:1046E000FB617B68DB6B002B01D10123BB617B6825
:1046F0001B6803F48013002B17D04E4BD3F88C307B
:1047000023F440027B681B6C4A491343C1F88C3088
:104710007B681B6CB3F5800F01D10123FB617B68C3
:104720001B6C002B01D10123BB617B681B6803F06C
:104730008073002B01D00123FB617B681B6803F0B1
:104740002003002B00F08B803A4B1B6C394A43F05E
:1047500080531364374B1B6C03F08053BB60BB6802
:10476000354B1B68344A43F480731360FEF7CAFA72
:10477000786108E0FEF7C6FA02467B69D31A642B1B
:1047800001D903238FE32C4B1B6803F48073002BA8
:10479000F0D0284B1B6F03F440733B613B69002B47
:1047A00035D07B681B6B03F440733A699A422ED074
:1047B000204B1B6F23F440733B611E4B1B6F1D4A44
:1047C00043F4803313671B4B1B6F1A4A23F4803367
:1047D0001367184A3B691367164B1B6F03F00103FD
:1047E000012B14D1FEF78EFA78610AE0FEF78AFAFF
:1047F00002467B69D31A41F28832934201D90323DE
:1048000051E30C4B1B6F03F00203002BEED07B68CF
:104810001B6B03F44073B3F5407F11D1054B9B68CC
:1048200023F4F8127B68196B044B0B4001491343C6
:104830008B600BE00038024000700040FFFCFF0F6F
:10484000AC4B9B68AB4A23F4F8139360A94B1A6FE7
:104850007B681B6BC3F30B03A64913430B677B6891
:104860001B6803F01003002B10D0A24BD3F88C3040
:10487000A04A23F08073C2F88C309E4BD3F88C2072
:104880007B689B6B9B491343C1F88C307B681B682A
:1048900003F48043002B0AD0964BD3F8903023F4D6
:1048A00040327B685B6E93491343C1F890307B685C
:1048B0001B6803F40043002B0AD08E4BD3F89030D2
:1048C00023F440227B689B6E8A491343C1F89030E1
:1048D0007B681B6803F48033002B0AD0854BD3F828
:1048E000903023F440127B68DB6E82491343C1F899
:1048F00090307B681B6803F40033002B0AD07D4B9B
:10490000D3F8903023F440027B681B6F794913433E
:10491000C1F890307B681B6803F04003002B0AD07D
:10492000744BD3F8903023F003027B685B6C7149C1
:104930001343C1F890307B681B6803F08003002BA1
:104940000AD06C4BD3F8903023F00C027B689B6C40
:1049500068491343C1F890307B681B6803F4807387
:10496000002B0AD0634BD3F8903023F030027B68E1
:10497000DB6C60491343C1F890307B681B6803F41B
:104980000073002B0AD05B4BD3F8903023F0C002A9
:104990007B681B6D57491343C1F890307B681B68D7
:1049A00003F48063002B0AD0524BD3F8903023F4E9
:1049B00040727B685B6D4F491343C1F890307B6850
:1049C0001B6803F40063002B0AD04A4BD3F89030E5
:1049D00023F440627B689B6D46491343C1F89030D5
:1049E0007B681B6803F48053002B0AD0414BD3F83B
:1049F000903023F440527B68DB6D3E491343C1F88D
:104A000090307B681B6803F40053002B0AD0394BAD
:104A1000D3F8903023F440427B681B6E3549134332
:104A2000C1F890307B681B6803F48003002B0AD028
:104A3000304BD3F8903023F080627B689B6F2D4918
:104A40001343C1F890307B681B6803F40013002BFC
:104A500011D0284BD3F8903023F000627B68DB6FD5
:104A600024491343C1F890307B68DB6FB3F1006FCA
:104A700001D10123BB617B681B6803F00803002B95
:104A800001D00123BB617B681B6803F48023002BEA
:104A90000AD0184BD3F8903023F040727B685B6FDC
:104AA00014491343C1F890307B681B6803F400037A
:104AB000002B0BD00F4BD3F8903023F080527B6843
:104AC000D3F880300B491343C1F890307B681B68E2
:104AD00003F08063002B0FD0064BD3F8903023F007
:104AE00000527B68D3F8843002491343C1F89030F8
:104AF00002E000BF003802407B681B6803F00063DF
:104B0000002B0BD08A4BD3F88C3023F000727B68DB
:104B1000D3F8883086491343C1F88C307B681B6812
:104B200003F08053002B0BD0814BD3F88C3023F053
:104B300080627B68D3F88C307D491343C1F88C3098
:104B4000FB69012B06D07B681B6803F00073002B08
:104B500000F0D680764B1B68754A23F080631360A3
:104B6000FEF7D0F8786108E0FEF7CCF802467B69E2
:104B7000D31A642B01D9032395E16D4B1B6803F015
:104B80000063002BF0D17B681B6803F00103002B4E
:104B900021D07B685B6B002B1DD1654BD3F8843033
:104BA0001B0C03F003033B61614BD3F884301B0EF5
:104BB00003F00F03FB607B685B689A013B691B0491
:104BC0001A43FB681B061A437B689B681B075849FE
:104BD0001343C1F884307B681B6803F40023002B67
:104BE00004D07B68DB6BB3F5801F0AD07B681B6841
:104BF00003F48013002B2ED07B681B6CB3F5800F61
:104C000029D14B4BD3F884301B0C03F003033B61D9
:104C1000474BD3F884301B0F03F00703FB607B681E
:104C20005B689A013B691B041A437B68DB681B06BF
:104C30001A43FB681B073E491343C1F884303C4BC1
:104C4000D3F88C3023F01F027B685B6A013B384944
:104C50001343C1F88C307B681B6803F08073002B12
:104C60001DD0334BD3F884301B0E03F00F033B6190
:104C70002F4BD3F884301B0F03F00703FB607B68D6
:104C80005B689A017B681B691B041A433B691B061E
:104C90001A43FB681B0726491343C1F884307B681D
:104CA0001B6803F00073002B11D07B685B689A01CE
:104CB0007B681B691B041A437B68DB681B061A436D
:104CC0007B689B681B071A491343C1F88430184B53
:104CD0001B68174A43F080631360FEF713F878618E
:104CE00008E0FEF70FF802467B69D31A642B01D95E
:104CF0000323D8E00E4B1B6803F00063002BF0D0B9
:104D0000BB69012B40F0CE80094B1B68084A23F099
:104D100080531360FDF7F6FF78610BE0FDF7F2FFBB
:104D200002467B69D31A642B04D90323BBE000BF7E
:104D3000003802405E4B1B6803F00053B3F1005F84
:104D4000ECD07B681B6803F40023002B03D07B6846
:104D5000DB6B002B09D07B681B6803F48013002BEE
:104D60002ED07B681B6C002B2AD1514BD3F8883096
:104D70001B0C03F003033B614D4BD3F888301B0F32
:104D800003F00703FB607B685B699A013B691B04C6
:104D90001A437B689B691B061A43FB681B0744493F
:104DA0001343C1F88830424BD3F88C3023F4F852C7
:104DB0007B689B6A013B1B023D491343C1F88C3061
:104DC0007B681B6803F40013002B22D07B68DB6F29
:104DD000B3F1006F1DD1364BD3F888301B0E03F0B2
:104DE0000F033B61324BD3F888301B0F03F00703EE
:104DF000FB607B685B699A017B681B6A1B041A4332
:104E00003B691B061A43FB681B0729491343C1F87A
:104E100088307B681B6803F00803002B28D0244BE4
:104E2000D3F888301B0E03F00F033B61204BD3F8FF
:104E300088301B0C03F00303FB607B685B699A01FD
:104E4000FB681B041A433B691B061A437B68DB693A
:104E50001B0717491343C1F88830154BD3F88C3022
:104E600023F440327B68DB6A11491343C1F88C306C
:104E70000F4B1B680E4A43F080531360FDF742FF4F
:104E8000786108E0FDF73EFF02467B69D31A642B88
:104E900001D9032307E0064B1B6803F00053B3F16D
:104EA000005FEFD1002318462037BD4680BD00BF0C
:104EB0000038024080B582B000AF78607B68002B7C
:104EC00001D1012349E07B6893F83D30DBB2002B30
:104ED00006D17B68002283F83C207868FCF7F2F862
:104EE0007B68022283F83D207B681A687B68043364
:104EF0001946104600F066FC7B68012283F84820C2
:104F00007B68012283F83E207B68012283F83F20E2
:104F10007B68012283F840207B68012283F84120CE
:104F20007B68012283F842207B68012283F84320BA
:104F30007B68012283F844207B68012283F84520A6
:104F40007B68012283F846207B68012283F8472092
:104F50007B68012283F83D20002318460837BD46B0
:104F600080BD000080B485B000AF78607B6893F8A6
:104F70003D30DBB2012B01D0012354E07B680222DB
:104F800083F83D207B681B68DA687B681B6842F009
:104F90000102DA607B681B68264A934222D07B6854
:104FA0001B68B3F1804F1DD07B681B68224A934277
:104FB00018D07B681B68214A934213D07B681B681A
:104FC0001F4A93420ED07B681B681E4A934209D049
:104FD0007B681B681C4A934204D07B681B681B4A91
:104FE000934215D17B681B689A68194B1340FB608C
:104FF000FB68062B15D0FB68B3F5803F11D07B68AA
:105000001B681A687B681B6842F001021A6008E09E
:105010007B681B681A687B681B6842F001021A6093
:1050200000E000BF002318461437BD465DF8047B3E
:10503000704700BF0000014000040040000800402D
:10504000000C0040000401400040014000180040F6
:105050000700010080B582B000AF78607B68002B4C
:1050600001D1012349E07B6893F83D30DBB2002B8E
:1050700006D17B68002283F83C20786800F041F874
:105080007B68022283F83D207B681A687B680433C2
:105090001946104600F096FB7B68012283F84820F1
:1050A0007B68012283F83E207B68012283F83F2041
:1050B0007B68012283F840207B68012283F841202D
:1050C0007B68012283F842207B68012283F8432019
:1050D0007B68012283F844207B68012283F8452005
:1050E0007B68012283F846207B68012283F84720F1
:1050F0007B68012283F83D20002318460837BD460F
:1051000080BD80B483B000AF786000BF0C37BD466F
:105110005DF8047B7047000080B584B000AF786014
:1051200039603B68002B09D17B6893F83E30DBB2D5
:10513000012B14BF01230023DBB23CE03B68042BAE
:1051400009D17B6893F83F30DBB2012B14BF0123F8
:105150000023DBB22FE03B68082B09D17B6893F872
:105160004030DBB2012B14BF01230023DBB222E06D
:105170003B680C2B09D17B6893F84130DBB2012BE3
:1051800014BF01230023DBB215E03B68102B09D1CB
:105190007B6893F84230DBB2012B14BF012300235C
:1051A000DBB208E07B6893F84330DBB2012B14BF1D
:1051B00001230023DBB2002B01D0012392E03B68E6
:1051C000002B04D17B68022283F83E2023E03B6859
:1051D000042B04D17B68022283F83F201BE03B684C
:1051E000082B04D17B68022283F8402013E03B683F
:1051F0000C2B04D17B68022283F841200BE03B6832
:10520000102B04D17B68022283F8422003E07B68E4
:10521000022283F843207B681B6801223968184604
:1052200000F0CEFD7B681B68304A934204D07B6857
:105230001B682F4A934201D1012300E00023002B79
:1052400007D07B681B685A6C7B681B6842F400427D
:105250005A647B681B68254A934222D07B681B688E
:10526000B3F1804F1DD07B681B68224A934218D04F
:105270007B681B68204A934213D07B681B681F4AD7
:1052800093420ED07B681B68194A934209D07B6811
:105290001B681B4A934204D07B681B68194A9342DF
:1052A00015D17B681B689A68174B1340FB60FB683D
:1052B000062B15D0FB68B3F5803F11D07B681B68C7
:1052C0001A687B681B6842F001021A6008E07B687C
:1052D0001B681A687B681B6842F001021A6000E0D4
:1052E00000BF002318461037BD4680BD00000140B6
:1052F000000401400004004000080040000C004091
:1053000000400140001800400700010080B582B055
:1053100000AF78607B681B681B6903F00203022BF7
:1053200022D17B681B68DB6803F00203022B1BD1D0
:105330007B681B686FF002021A617B6801221A7792
:105340007B681B689B6903F00303002B03D078681C
:1053500000F01AFA05E0786800F00CFA786800F0BE
:105360001DFA7B6800221A777B681B681B6903F0B3
:105370000403042B22D17B681B68DB6803F0040361
:10538000042B1BD17B681B686FF004021A617B68D9
:1053900002221A777B681B689B6903F44073002B19
:1053A00003D0786800F0F0F905E0786800F0E2F9E1
:1053B000786800F0F3F97B6800221A777B681B6835
:1053C0001B6903F00803082B22D17B681B68DB688C
:1053D00003F00803082B1BD17B681B686FF00802E1
:1053E0001A617B6804221A777B681B68DB6903F00B
:1053F0000303002B03D0786800F0C6F905E0786855
:1054000000F0B8F9786800F0C9F97B6800221A77D3
:105410007B681B681B6903F01003102B22D17B688B
:105420001B68DB6803F01003102B1BD17B681B6823
:105430006FF010021A617B6808221A777B681B687C
:10544000DB6903F44073002B03D0786800F09CF90B
:1054500005E0786800F08EF9786800F09FF97B68C5
:1054600000221A777B681B681B6903F00103012B7C
:105470000ED17B681B68DB6803F00103012B07D1A9
:105480007B681B686FF001021A617868FBF76CFD9E
:105490007B681B681B6903F08003802B0ED17B683F
:1054A0001B68DB6803F08003802B07D17B681B68D7
:1054B0006FF080021A61786800F0B1FC7B681B68AD
:1054C0001B6903F48073B3F5807F0ED17B681B6882
:1054D000DB6803F08003802B07D17B681B686FF4C7
:1054E00080721A61786800F0A4FC7B681B681B69F5
:1054F00003F04003402B0ED17B681B68DB6803F090
:105500004003402B07D17B681B686FF040021A6193
:10551000786800F04DF97B681B681B6903F0200375
:10552000202B0ED17B681B68DB6803F02003202B47
:1055300007D17B681B686FF020021A61786800F061
:1055400064FC00BF0837BD4680BD000080B586B052
:1055500000AFF860B9607A600023FB75FB6893F8D0
:105560003C30012B01D10223FFE0FB68012283F8CC
:105570003C207B68142B00F2F08001A252F823F04B
:10558000D55500085B5700085B5700085B570008BB
:10559000155600085B5700085B5700085B5700086A
:1055A000575600085B5700085B5700085B57000818
:1055B000975600085B5700085B5700085B570008C8
:1055C000D95600085B5700085B5700085B57000876
:1055D00019570008FB681B68B968184600F092F973
:1055E000FB681B689A69FB681B6842F008029A61B5
:1055F000FB681B689A69FB681B6822F004029A61C9
:10560000FB681B689969BB681A69FB681B680A43D9
:105610009A61A5E0FB681B68B968184600F0E4F9D8
:10562000FB681B689A69FB681B6842F400629A6118
:10563000FB681B689A69FB681B6822F480629A61A8
:10564000FB681B689969BB681B691A02FB681B68C9
:105650000A439A6184E0FB681B68B968184600F049
:105660003BFAFB681B68DA69FB681B6842F00802BA
:10567000DA61FB681B68DA69FB681B6822F00402C8
:10568000DA61FB681B68D969BB681A69FB681B682B
:105690000A43DA6164E0FB681B68B968184600F0E9
:1056A00091FAFB681B68DA69FB681B6842F40062C8
:1056B000DA61FB681B68DA69FB681B6822F48062A8
:1056C000DA61FB681B68D969BB681B691A02FB6851
:1056D0001B680A43DA6143E0FB681B68B968184637
:1056E00000F0C8FAFB681B685A6DFB681B6842F043
:1056F00008025A65FB681B685A6DFB681B6822F03C
:1057000004025A65FB681B68596DBB681A69FB681F
:105710001B680A435A6523E0FB681B68B968184692
:1057200000F0FAFAFB681B685A6DFB681B6842F4CC
:1057300000625A65FB681B685A6DFB681B6822F49F
:1057400080625A65FB681B68596DBB681B691A0249
:10575000FB681B680A435A6502E00123FB7500BF22
:10576000FB68002283F83C20FB7D18461837BD46B5
:1057700080BD00BF80B483B000AF786000BF0C373D
:10578000BD465DF8047B704780B483B000AF78609D
:1057900000BF0C37BD465DF8047B704780B483B012
:1057A00000AF786000BF0C37BD465DF8047B7047E2
:1057B00080B483B000AF786000BF0C37BD465DF8A1
:1057C000047B704780B485B000AF786039607B6837
:1057D0001B68FB607B68404A934213D07B68B3F13F
:1057E000804F0FD07B683D4A93420BD07B683C4A88
:1057F000934207D07B683B4A934203D07B683A4A86
:10580000934208D1FB6823F07003FB603B685B6840
:10581000FA681343FB607B682F4A93422BD07B6866
:10582000B3F1804F27D07B682C4A934223D07B680A
:105830002B4A93421FD07B682A4A93421BD07B6835
:10584000294A934217D07B68284A934213D07B6839
:10585000274A93420FD07B68264A93420BD07B683D
:10586000254A934207D07B68244A934203D07B6841
:10587000234A934208D1FB6823F44073FB603B68E2
:10588000DB68FA681343FB60FB6823F080023B6827
:105890005B691343FB607B68FA681A603B689A682F
:1058A0007B68DA623B681A687B689A627B680A4A9E
:1058B000934203D07B680C4A934203D13B681A6938
:1058C0007B681A637B6801225A6100BF1437BD46AA
:1058D0005DF8047B704700BF0000014000040040F9
:1058E00000080040000C004000040140004001405E
:1058F000004401400048014000180040001C0040E6
:105900000020004080B487B000AF786039607B68C9
:105910001B6A23F001027B681A627B681B6A7B6149
:105920007B685B683B617B689B69FB60FA682B4B1B
:105930001340FB60FB6823F00303FB603B681B68BC
:10594000FA681343FB607B6923F002037B613B68C9
:105950009B687A6913437B617B68214A934203D039
:105960007B68204A93420CD17B6923F008037B615A
:105970003B68DB687A6913437B617B6923F004032E
:105980007B617B68164A934203D07B68154A934239
:1059900011D13B6923F480733B613B6923F40073AD
:1059A0003B613B685B693A6913433B613B689B69B8
:1059B0003A6913433B617B683A695A607B68FA68CD
:1059C0009A613B685A687B685A637B687A691A6295
:1059D00000BF1C37BD465DF8047B70478FFFFEFF9C
:1059E000000001400004014080B487B000AF78603F
:1059F00039607B681B6A23F010027B681A627B683F
:105A00001B6A7B617B685B683B617B689B69FB60B1
:105A1000FA682E4B1340FB60FB6823F44073FB6075
:105A20003B681B681B02FA681343FB607B6923F029
:105A300020037B613B689B681B017A6913437B6190
:105A40007B68234A934203D07B68224A93420DD15C
:105A50007B6923F080037B613B68DB681B017A690B
:105A600013437B617B6923F040037B617B68184AA9
:105A7000934203D07B68174A934213D13B6923F4C6
:105A800080633B613B6923F400633B613B685B6976
:105A90009B003A6913433B613B689B699B003A69F1
:105AA00013433B617B683A695A607B68FA689A6184
:105AB0003B685A687B689A637B687A691A6200BFA0
:105AC0001C37BD465DF8047B704700BFFF8FFFFEAB
:105AD000000001400004014080B487B000AF78604E
